{
  "contractName": "FwarCharDelegate",
  "abi": [
    {
      "anonymous": false,
      "inputs": [
        {
          "indexed": true,
          "internalType": "address",
          "name": "_caller",
          "type": "address"
        },
        {
          "indexed": true,
          "internalType": "address",
          "name": "_receiver",
          "type": "address"
        },
        {
          "indexed": false,
          "internalType": "uint256[4][]",
          "name": "_openChestInfo",
          "type": "uint256[4][]"
        },
        {
          "indexed": false,
          "internalType": "uint256",
          "name": "_number",
          "type": "uint256"
        }
      ],
      "name": "OpenChest",
      "type": "event"
    },
    {
      "anonymous": false,
      "inputs": [
        {
          "indexed": true,
          "internalType": "bytes32",
          "name": "role",
          "type": "bytes32"
        },
        {
          "indexed": true,
          "internalType": "bytes32",
          "name": "previousAdminRole",
          "type": "bytes32"
        },
        {
          "indexed": true,
          "internalType": "bytes32",
          "name": "newAdminRole",
          "type": "bytes32"
        }
      ],
      "name": "RoleAdminChanged",
      "type": "event"
    },
    {
      "anonymous": false,
      "inputs": [
        {
          "indexed": true,
          "internalType": "bytes32",
          "name": "role",
          "type": "bytes32"
        },
        {
          "indexed": true,
          "internalType": "address",
          "name": "account",
          "type": "address"
        },
        {
          "indexed": true,
          "internalType": "address",
          "name": "sender",
          "type": "address"
        }
      ],
      "name": "RoleGranted",
      "type": "event"
    },
    {
      "anonymous": false,
      "inputs": [
        {
          "indexed": true,
          "internalType": "bytes32",
          "name": "role",
          "type": "bytes32"
        },
        {
          "indexed": true,
          "internalType": "address",
          "name": "account",
          "type": "address"
        },
        {
          "indexed": true,
          "internalType": "address",
          "name": "sender",
          "type": "address"
        }
      ],
      "name": "RoleRevoked",
      "type": "event"
    },
    {
      "anonymous": false,
      "inputs": [
        {
          "indexed": true,
          "internalType": "address",
          "name": "_caller",
          "type": "address"
        },
        {
          "indexed": false,
          "internalType": "uint32",
          "name": "_mainNFTId",
          "type": "uint32"
        },
        {
          "indexed": false,
          "internalType": "uint32[]",
          "name": "_burnedNfts",
          "type": "uint32[]"
        }
      ],
      "name": "Upgrade",
      "type": "event"
    },
    {
      "inputs": [],
      "name": "DEFAULT_ADMIN_ROLE",
      "outputs": [
        {
          "internalType": "bytes32",
          "name": "",
          "type": "bytes32"
        }
      ],
      "stateMutability": "view",
      "type": "function",
      "constant": true
    },
    {
      "inputs": [
        {
          "internalType": "uint256",
          "name": "",
          "type": "uint256"
        }
      ],
      "name": "ELEMENT_MASK",
      "outputs": [
        {
          "internalType": "uint32",
          "name": "",
          "type": "uint32"
        }
      ],
      "stateMutability": "view",
      "type": "function",
      "constant": true
    },
    {
      "inputs": [
        {
          "internalType": "uint256",
          "name": "",
          "type": "uint256"
        }
      ],
      "name": "RARITY_MASK",
      "outputs": [
        {
          "internalType": "uint32",
          "name": "",
          "type": "uint32"
        }
      ],
      "stateMutability": "view",
      "type": "function",
      "constant": true
    },
    {
      "inputs": [],
      "name": "TeamCount",
      "outputs": [
        {
          "internalType": "uint32",
          "name": "",
          "type": "uint32"
        }
      ],
      "stateMutability": "view",
      "type": "function",
      "constant": true
    },
    {
      "inputs": [
        {
          "internalType": "uint256",
          "name": "",
          "type": "uint256"
        },
        {
          "internalType": "uint256",
          "name": "",
          "type": "uint256"
        }
      ],
      "name": "burnInfos",
      "outputs": [
        {
          "internalType": "uint8",
          "name": "junkAmount",
          "type": "uint8"
        },
        {
          "internalType": "uint8",
          "name": "normalAmount",
          "type": "uint8"
        },
        {
          "internalType": "uint8",
          "name": "rareAmount",
          "type": "uint8"
        },
        {
          "internalType": "uint8",
          "name": "baseAmount",
          "type": "uint8"
        },
        {
          "internalType": "uint16",
          "name": "percentConsume",
          "type": "uint16"
        },
        {
          "internalType": "uint16",
          "name": "percentOnBase",
          "type": "uint16"
        }
      ],
      "stateMutability": "view",
      "type": "function",
      "constant": true
    },
    {
      "inputs": [
        {
          "internalType": "uint32",
          "name": "",
          "type": "uint32"
        },
        {
          "internalType": "uint8",
          "name": "",
          "type": "uint8"
        }
      ],
      "name": "charStats",
      "outputs": [
        {
          "internalType": "uint32",
          "name": "maxAttack",
          "type": "uint32"
        },
        {
          "internalType": "uint32",
          "name": "minAttack",
          "type": "uint32"
        },
        {
          "internalType": "uint32",
          "name": "maxDefense",
          "type": "uint32"
        },
        {
          "internalType": "uint32",
          "name": "minDefense",
          "type": "uint32"
        },
        {
          "internalType": "uint32",
          "name": "maxHealth",
          "type": "uint32"
        },
        {
          "internalType": "uint32",
          "name": "minHealth",
          "type": "uint32"
        }
      ],
      "stateMutability": "view",
      "type": "function",
      "constant": true
    },
    {
      "inputs": [],
      "name": "fwarCharAddress",
      "outputs": [
        {
          "internalType": "address",
          "name": "",
          "type": "address"
        }
      ],
      "stateMutability": "view",
      "type": "function",
      "constant": true
    },
    {
      "inputs": [],
      "name": "fwarKeyAddress",
      "outputs": [
        {
          "internalType": "address",
          "name": "",
          "type": "address"
        }
      ],
      "stateMutability": "view",
      "type": "function",
      "constant": true
    },
    {
      "inputs": [],
      "name": "fwarMiningAddress",
      "outputs": [
        {
          "internalType": "address",
          "name": "",
          "type": "address"
        }
      ],
      "stateMutability": "view",
      "type": "function",
      "constant": true
    },
    {
      "inputs": [
        {
          "internalType": "bytes32",
          "name": "role",
          "type": "bytes32"
        }
      ],
      "name": "getRoleAdmin",
      "outputs": [
        {
          "internalType": "bytes32",
          "name": "",
          "type": "bytes32"
        }
      ],
      "stateMutability": "view",
      "type": "function",
      "constant": true
    },
    {
      "inputs": [
        {
          "internalType": "bytes32",
          "name": "role",
          "type": "bytes32"
        },
        {
          "internalType": "uint256",
          "name": "index",
          "type": "uint256"
        }
      ],
      "name": "getRoleMember",
      "outputs": [
        {
          "internalType": "address",
          "name": "",
          "type": "address"
        }
      ],
      "stateMutability": "view",
      "type": "function",
      "constant": true
    },
    {
      "inputs": [
        {
          "internalType": "bytes32",
          "name": "role",
          "type": "bytes32"
        }
      ],
      "name": "getRoleMemberCount",
      "outputs": [
        {
          "internalType": "uint256",
          "name": "",
          "type": "uint256"
        }
      ],
      "stateMutability": "view",
      "type": "function",
      "constant": true
    },
    {
      "inputs": [
        {
          "internalType": "bytes32",
          "name": "role",
          "type": "bytes32"
        },
        {
          "internalType": "address",
          "name": "account",
          "type": "address"
        }
      ],
      "name": "grantRole",
      "outputs": [],
      "stateMutability": "nonpayable",
      "type": "function"
    },
    {
      "inputs": [
        {
          "internalType": "bytes32",
          "name": "role",
          "type": "bytes32"
        },
        {
          "internalType": "address",
          "name": "account",
          "type": "address"
        }
      ],
      "name": "hasRole",
      "outputs": [
        {
          "internalType": "bool",
          "name": "",
          "type": "bool"
        }
      ],
      "stateMutability": "view",
      "type": "function",
      "constant": true
    },
    {
      "inputs": [
        {
          "internalType": "uint8",
          "name": "",
          "type": "uint8"
        }
      ],
      "name": "hashes",
      "outputs": [
        {
          "internalType": "uint32",
          "name": "",
          "type": "uint32"
        }
      ],
      "stateMutability": "view",
      "type": "function",
      "constant": true
    },
    {
      "inputs": [
        {
          "internalType": "address",
          "name": "",
          "type": "address"
        },
        {
          "internalType": "address",
          "name": "",
          "type": "address"
        },
        {
          "internalType": "uint256",
          "name": "",
          "type": "uint256"
        },
        {
          "internalType": "bytes",
          "name": "",
          "type": "bytes"
        }
      ],
      "name": "onERC721Received",
      "outputs": [
        {
          "internalType": "bytes4",
          "name": "",
          "type": "bytes4"
        }
      ],
      "stateMutability": "nonpayable",
      "type": "function"
    },
    {
      "inputs": [
        {
          "internalType": "bytes32",
          "name": "role",
          "type": "bytes32"
        },
        {
          "internalType": "address",
          "name": "account",
          "type": "address"
        }
      ],
      "name": "renounceRole",
      "outputs": [],
      "stateMutability": "nonpayable",
      "type": "function"
    },
    {
      "inputs": [
        {
          "internalType": "bytes32",
          "name": "role",
          "type": "bytes32"
        },
        {
          "internalType": "address",
          "name": "account",
          "type": "address"
        }
      ],
      "name": "revokeRole",
      "outputs": [],
      "stateMutability": "nonpayable",
      "type": "function"
    },
    {
      "inputs": [],
      "name": "seedAddress",
      "outputs": [
        {
          "internalType": "address",
          "name": "",
          "type": "address"
        }
      ],
      "stateMutability": "view",
      "type": "function",
      "constant": true
    },
    {
      "inputs": [
        {
          "internalType": "uint32",
          "name": "",
          "type": "uint32"
        }
      ],
      "name": "teamInfos",
      "outputs": [
        {
          "internalType": "uint32",
          "name": "maxRandom",
          "type": "uint32"
        },
        {
          "internalType": "uint32",
          "name": "minRandom",
          "type": "uint32"
        }
      ],
      "stateMutability": "view",
      "type": "function",
      "constant": true
    },
    {
      "inputs": [
        {
          "internalType": "address",
          "name": "admin",
          "type": "address"
        },
        {
          "internalType": "address",
          "name": "_fwarCharAddress",
          "type": "address"
        },
        {
          "internalType": "address",
          "name": "_seedAddress",
          "type": "address"
        },
        {
          "internalType": "address",
          "name": "_fwarKeyAddress",
          "type": "address"
        },
        {
          "internalType": "address",
          "name": "_fwarMiningAddress",
          "type": "address"
        }
      ],
      "name": "initialize",
      "outputs": [],
      "stateMutability": "payable",
      "type": "function",
      "payable": true
    },
    {
      "inputs": [
        {
          "internalType": "uint32[]",
          "name": "valuelist",
          "type": "uint32[]"
        }
      ],
      "name": "setRarity",
      "outputs": [],
      "stateMutability": "nonpayable",
      "type": "function"
    },
    {
      "inputs": [
        {
          "internalType": "uint32[]",
          "name": "valuelist",
          "type": "uint32[]"
        }
      ],
      "name": "setElement",
      "outputs": [],
      "stateMutability": "nonpayable",
      "type": "function"
    },
    {
      "inputs": [
        {
          "internalType": "address",
          "name": "_fwarMiningAddress",
          "type": "address"
        }
      ],
      "name": "setFwarMiningAddress",
      "outputs": [],
      "stateMutability": "nonpayable",
      "type": "function"
    },
    {
      "inputs": [],
      "name": "getRarity",
      "outputs": [
        {
          "internalType": "uint32[]",
          "name": "",
          "type": "uint32[]"
        }
      ],
      "stateMutability": "view",
      "type": "function",
      "constant": true
    },
    {
      "inputs": [],
      "name": "getElement",
      "outputs": [
        {
          "internalType": "uint32[]",
          "name": "",
          "type": "uint32[]"
        }
      ],
      "stateMutability": "view",
      "type": "function",
      "constant": true
    },
    {
      "inputs": [
        {
          "internalType": "uint32",
          "name": "_teamId",
          "type": "uint32"
        }
      ],
      "name": "getTeamInfo",
      "outputs": [
        {
          "internalType": "uint32",
          "name": "maxRandom",
          "type": "uint32"
        },
        {
          "internalType": "uint32",
          "name": "minRandom",
          "type": "uint32"
        }
      ],
      "stateMutability": "view",
      "type": "function",
      "constant": true
    },
    {
      "inputs": [
        {
          "internalType": "uint32",
          "name": "_maxRandom",
          "type": "uint32"
        },
        {
          "internalType": "uint32",
          "name": "_minRandom",
          "type": "uint32"
        }
      ],
      "name": "addTeamInfo",
      "outputs": [],
      "stateMutability": "nonpayable",
      "type": "function"
    },
    {
      "inputs": [
        {
          "internalType": "uint32",
          "name": "_teamId",
          "type": "uint32"
        },
        {
          "internalType": "uint32",
          "name": "_maxRandom",
          "type": "uint32"
        },
        {
          "internalType": "uint32",
          "name": "_minRandom",
          "type": "uint32"
        }
      ],
      "name": "updateTeamInfo",
      "outputs": [],
      "stateMutability": "nonpayable",
      "type": "function"
    },
    {
      "inputs": [
        {
          "internalType": "uint32",
          "name": "_teamId",
          "type": "uint32"
        },
        {
          "internalType": "uint8",
          "name": "_rarity",
          "type": "uint8"
        },
        {
          "internalType": "uint32",
          "name": "_maxAttack",
          "type": "uint32"
        },
        {
          "internalType": "uint32",
          "name": "_minAttack",
          "type": "uint32"
        },
        {
          "internalType": "uint32",
          "name": "_maxDefense",
          "type": "uint32"
        },
        {
          "internalType": "uint32",
          "name": "_minDefense",
          "type": "uint32"
        },
        {
          "internalType": "uint32",
          "name": "_maxHealth",
          "type": "uint32"
        },
        {
          "internalType": "uint32",
          "name": "_minHealth",
          "type": "uint32"
        }
      ],
      "name": "updateCharStat",
      "outputs": [],
      "stateMutability": "nonpayable",
      "type": "function"
    },
    {
      "inputs": [
        {
          "internalType": "uint32",
          "name": "_teamId",
          "type": "uint32"
        },
        {
          "internalType": "uint8",
          "name": "_rarity",
          "type": "uint8"
        }
      ],
      "name": "getCharStat",
      "outputs": [
        {
          "internalType": "uint32",
          "name": "maxAttack",
          "type": "uint32"
        },
        {
          "internalType": "uint32",
          "name": "minAttack",
          "type": "uint32"
        },
        {
          "internalType": "uint32",
          "name": "maxDefense",
          "type": "uint32"
        },
        {
          "internalType": "uint32",
          "name": "minDefense",
          "type": "uint32"
        },
        {
          "internalType": "uint32",
          "name": "maxHealth",
          "type": "uint32"
        },
        {
          "internalType": "uint32",
          "name": "minHealth",
          "type": "uint32"
        }
      ],
      "stateMutability": "view",
      "type": "function",
      "constant": true
    },
    {
      "inputs": [
        {
          "internalType": "uint8",
          "name": "_rarity",
          "type": "uint8"
        },
        {
          "internalType": "uint32",
          "name": "_hash",
          "type": "uint32"
        }
      ],
      "name": "updateHash",
      "outputs": [],
      "stateMutability": "nonpayable",
      "type": "function"
    },
    {
      "inputs": [
        {
          "internalType": "uint8",
          "name": "_rarity",
          "type": "uint8"
        }
      ],
      "name": "getHash",
      "outputs": [
        {
          "internalType": "uint32",
          "name": "hash",
          "type": "uint32"
        }
      ],
      "stateMutability": "view",
      "type": "function",
      "constant": true
    },
    {
      "inputs": [
        {
          "internalType": "address",
          "name": "_seedAddress",
          "type": "address"
        }
      ],
      "name": "setSeedAddress",
      "outputs": [],
      "stateMutability": "nonpayable",
      "type": "function"
    },
    {
      "inputs": [
        {
          "internalType": "address",
          "name": "_fwarCharAddress",
          "type": "address"
        }
      ],
      "name": "setFwarCharAddress",
      "outputs": [],
      "stateMutability": "nonpayable",
      "type": "function"
    },
    {
      "inputs": [
        {
          "internalType": "address",
          "name": "_fwarKeyAddress",
          "type": "address"
        }
      ],
      "name": "setFwarKeyAddress",
      "outputs": [],
      "stateMutability": "nonpayable",
      "type": "function"
    },
    {
      "inputs": [
        {
          "internalType": "uint8",
          "name": "_ratity",
          "type": "uint8"
        },
        {
          "internalType": "uint8",
          "name": "_level",
          "type": "uint8"
        },
        {
          "internalType": "uint8",
          "name": "_junkAmount",
          "type": "uint8"
        },
        {
          "internalType": "uint8",
          "name": "_normalAmount",
          "type": "uint8"
        },
        {
          "internalType": "uint8",
          "name": "_rareAmount",
          "type": "uint8"
        },
        {
          "internalType": "uint8",
          "name": "_baseAmount",
          "type": "uint8"
        },
        {
          "internalType": "uint16",
          "name": "_percentConsume",
          "type": "uint16"
        },
        {
          "internalType": "uint16",
          "name": "_percentOnBase",
          "type": "uint16"
        }
      ],
      "name": "setBurnInfos",
      "outputs": [],
      "stateMutability": "nonpayable",
      "type": "function"
    },
    {
      "inputs": [
        {
          "internalType": "uint8",
          "name": "_ratity",
          "type": "uint8"
        },
        {
          "internalType": "uint8",
          "name": "_level",
          "type": "uint8"
        }
      ],
      "name": "getBurnInfo",
      "outputs": [
        {
          "internalType": "uint8",
          "name": "junkAmount",
          "type": "uint8"
        },
        {
          "internalType": "uint8",
          "name": "normalAmount",
          "type": "uint8"
        },
        {
          "internalType": "uint8",
          "name": "rareAmount",
          "type": "uint8"
        },
        {
          "internalType": "uint8",
          "name": "baseAmount",
          "type": "uint8"
        }
      ],
      "stateMutability": "view",
      "type": "function",
      "constant": true
    },
    {
      "inputs": [
        {
          "internalType": "address",
          "name": "user",
          "type": "address"
        },
        {
          "internalType": "uint256",
          "name": "number",
          "type": "uint256"
        }
      ],
      "name": "OpenItems",
      "outputs": [],
      "stateMutability": "nonpayable",
      "type": "function"
    },
    {
      "inputs": [
        {
          "internalType": "uint32",
          "name": "_mainNFTId",
          "type": "uint32"
        },
        {
          "internalType": "uint32[]",
          "name": "_burnedNfts",
          "type": "uint32[]"
        }
      ],
      "name": "upgrade",
      "outputs": [],
      "stateMutability": "nonpayable",
      "type": "function"
    }
  ],
  "bytecode": "0x608060405234801561001057600080fd5b50615e0a80620000216000396000f3fe60806040526004361061023b5760003560e01c80636a88c7861161012e578063b95c2386116100ab578063d547741f1161006f578063d547741f1461113f578063e11d57ab1461119a578063e8197595146111f2578063ee4613cf14611282578063fb9b89b7146112da5761023b565b8063b95c238614610f5a578063ca15c87314610fab578063d0ba7dc814610ffa578063d33f797814611055578063d4da7ff8146110965761023b565b80639010d07c116100f25780639010d07c14610da95780639130736814610e1857806391d1485414610e69578063a217fddf14610eda578063b3d371fa14610f055761023b565b80636a88c78614610b9f57806378b723b014610c355780637b32cdba14610cbb57806382e9aa8e14610d275780638e5986a914610d685761023b565b8063294838f8116101bc5780633f328043116101805780633f3280431461095f578063425c3dbd146109fb57806354bda05e14610a5c5780635fbd284814610ab157806362339bc414610b195761023b565b8063294838f81461073d5780632d4fd0e2146107ec5780632f2ff15d1461083d57806336568abe146108985780633ea7d179146108f35761023b565b8063150b7a0211610203578063150b7a021461048e57806316b6224b146105d35780631dda884a14610604578063248a9ca3146106ad57806325ea85c5146106fc5761023b565b80630205fd22146102405780630c7a4659146102a85780630e61611e14610328578063118eeae4146103795780631459457a146103ca575b600080fd5b34801561024c57600080fd5b5061027f6004803603602081101561026357600080fd5b81019080803563ffffffff169060200190929190505050611328565b604051808363ffffffff1681526020018263ffffffff1681526020019250505060405180910390f35b3480156102b457600080fd5b506102f1600480360360408110156102cb57600080fd5b81019080803560ff169060200190929190803560ff16906020019092919050505061136c565b604051808560ff1681526020018460ff1681526020018360ff1681526020018260ff16815260200194505050505060405180910390f35b34801561033457600080fd5b506103776004803603602081101561034b57600080fd5b81019080803573ffffffffffffffffffffffffffffffffffffffff16906020019092919050505061146f565b005b34801561038557600080fd5b506103c86004803603602081101561039c57600080fd5b81019080803573ffffffffffffffffffffffffffffffffffffffff169060200190929190505050611539565b005b61048c600480360360a08110156103e057600080fd5b81019080803573ffffffffffffffffffffffffffffffffffffffff169060200190929190803573ffffffffffffffffffffffffffffffffffffffff169060200190929190803573ffffffffffffffffffffffffffffffffffffffff169060200190929190803573ffffffffffffffffffffffffffffffffffffffff169060200190929190803573ffffffffffffffffffffffffffffffffffffffff169060200190929190505050611603565b005b34801561049a57600080fd5b5061059e600480360360808110156104b157600080fd5b81019080803573ffffffffffffffffffffffffffffffffffffffff169060200190929190803573ffffffffffffffffffffffffffffffffffffffff169060200190929190803590602001909291908035906020019064010000000081111561051857600080fd5b82018360208201111561052a57600080fd5b8035906020019184600183028401116401000000008311171561054c57600080fd5b91908080601f016020809104026020016040519081016040528093929190818152602001838380828437600081840152601f19601f82011690508083019250505050505050919291929050505061183a565b60405180827bffffffffffffffffffffffffffffffffffffffffffffffffffffffff1916815260200191505060405180910390f35b3480156105df57600080fd5b506105e861184e565b604051808263ffffffff16815260200191505060405180910390f35b34801561061057600080fd5b506106506004803603604081101561062757600080fd5b81019080803563ffffffff169060200190929190803560ff169060200190929190505050611864565b604051808763ffffffff1681526020018663ffffffff1681526020018563ffffffff1681526020018463ffffffff1681526020018363ffffffff1681526020018263ffffffff168152602001965050505050505060405180910390f35b3480156106b957600080fd5b506106e6600480360360208110156106d057600080fd5b810190808035906020019092919050505061190d565b6040518082815260200191505060405180910390f35b34801561070857600080fd5b5061071161192d565b604051808273ffffffffffffffffffffffffffffffffffffffff16815260200191505060405180910390f35b34801561074957600080fd5b506107ea600480360361010081101561076157600080fd5b81019080803563ffffffff169060200190929190803560ff169060200190929190803563ffffffff169060200190929190803563ffffffff169060200190929190803563ffffffff169060200190929190803563ffffffff169060200190929190803563ffffffff169060200190929190803563ffffffff169060200190929190505050611953565b005b3480156107f857600080fd5b5061083b6004803603602081101561080f57600080fd5b81019080803573ffffffffffffffffffffffffffffffffffffffff169060200190929190505050611bf3565b005b34801561084957600080fd5b506108966004803603604081101561086057600080fd5b8101908080359060200190929190803573ffffffffffffffffffffffffffffffffffffffff169060200190929190505050611cbd565b005b3480156108a457600080fd5b506108f1600480360360408110156108bb57600080fd5b8101908080359060200190929190803573ffffffffffffffffffffffffffffffffffffffff169060200190929190505050611d47565b005b3480156108ff57600080fd5b50610908611de0565b6040518080602001828103825283818151815260200191508051906020019060200280838360005b8381101561094b578082015181840152602081019050610930565b505050509050019250505060405180910390f35b34801561096b57600080fd5b506109f9600480360361010081101561098357600080fd5b81019080803560ff169060200190929190803560ff169060200190929190803560ff169060200190929190803560ff169060200190929190803560ff169060200190929190803560ff169060200190929190803561ffff169060200190929190803561ffff169060200190929190505050611e64565b005b348015610a0757600080fd5b50610a5a60048036036060811015610a1e57600080fd5b81019080803563ffffffff169060200190929190803563ffffffff169060200190929190803563ffffffff169060200190929190505050612116565b005b348015610a6857600080fd5b50610a9560048036036020811015610a7f57600080fd5b8101908080359060200190929190505050612223565b604051808263ffffffff16815260200191505060405180910390f35b348015610abd57600080fd5b50610af060048036036020811015610ad457600080fd5b81019080803563ffffffff16906020019092919050505061225a565b604051808363ffffffff1681526020018263ffffffff1681526020019250505060405180910390f35b348015610b2557600080fd5b50610b9d60048036036020811015610b3c57600080fd5b8101908080359060200190640100000000811115610b5957600080fd5b820183602082011115610b6b57600080fd5b80359060200191846020830284011164010000000083111715610b8d57600080fd5b90919293919293905050506122cc565b005b348015610bab57600080fd5b50610c3360048036036040811015610bc257600080fd5b81019080803563ffffffff16906020019092919080359060200190640100000000811115610bef57600080fd5b820183602082011115610c0157600080fd5b80359060200191846020830284011164010000000083111715610c2357600080fd5b9091929391929390505050612368565b005b348015610c4157600080fd5b50610cb960048036036020811015610c5857600080fd5b8101908080359060200190640100000000811115610c7557600080fd5b820183602082011115610c8757600080fd5b80359060200191846020830284011164010000000083111715610ca957600080fd5b9091929391929390505050612c49565b005b348015610cc757600080fd5b50610cd0612ce5565b6040518080602001828103825283818151815260200191508051906020019060200280838360005b83811015610d13578082015181840152602081019050610cf8565b505050509050019250505060405180910390f35b348015610d3357600080fd5b50610d3c612d69565b604051808273ffffffffffffffffffffffffffffffffffffffff16815260200191505060405180910390f35b348015610d7457600080fd5b50610d7d612d8f565b604051808273ffffffffffffffffffffffffffffffffffffffff16815260200191505060405180910390f35b348015610db557600080fd5b50610dec60048036036040811015610dcc57600080fd5b810190808035906020019092919080359060200190929190505050612db5565b604051808273ffffffffffffffffffffffffffffffffffffffff16815260200191505060405180910390f35b348015610e2457600080fd5b50610e6760048036036020811015610e3b57600080fd5b81019080803573ffffffffffffffffffffffffffffffffffffffff169060200190929190505050612de7565b005b348015610e7557600080fd5b50610ec260048036036040811015610e8c57600080fd5b8101908080359060200190929190803573ffffffffffffffffffffffffffffffffffffffff169060200190929190505050612eb1565b60405180821515815260200191505060405180910390f35b348015610ee657600080fd5b50610eef612ee3565b6040518082815260200191505060405180910390f35b348015610f1157600080fd5b50610f3e60048036036020811015610f2857600080fd5b8101908080359060200190929190505050612eea565b604051808263ffffffff16815260200191505060405180910390f35b348015610f6657600080fd5b50610fa960048036036040811015610f7d57600080fd5b81019080803563ffffffff169060200190929190803563ffffffff169060200190929190505050612f21565b005b348015610fb757600080fd5b50610fe460048036036020811015610fce57600080fd5b8101908080359060200190929190505050613091565b6040518082815260200191505060405180910390f35b34801561100657600080fd5b506110536004803603604081101561101d57600080fd5b81019080803573ffffffffffffffffffffffffffffffffffffffff169060200190929190803590602001909291905050506130b8565b005b34801561106157600080fd5b5061106a6137a2565b604051808273ffffffffffffffffffffffffffffffffffffffff16815260200191505060405180910390f35b3480156110a257600080fd5b506110e2600480360360408110156110b957600080fd5b81019080803563ffffffff169060200190929190803560ff1690602001909291905050506137c8565b604051808763ffffffff1681526020018663ffffffff1681526020018563ffffffff1681526020018463ffffffff1681526020018363ffffffff1681526020018263ffffffff168152602001965050505050505060405180910390f35b34801561114b57600080fd5b506111986004803603604081101561116257600080fd5b8101908080359060200190929190803573ffffffffffffffffffffffffffffffffffffffff1690602001909291905050506139a3565b005b3480156111a657600080fd5b506111d6600480360360208110156111bd57600080fd5b81019080803560ff169060200190929190505050613a2d565b604051808263ffffffff16815260200191505060405180910390f35b3480156111fe57600080fd5b506112356004803603604081101561121557600080fd5b810190808035906020019092919080359060200190929190505050613a60565b604051808760ff1681526020018660ff1681526020018560ff1681526020018460ff1681526020018361ffff1681526020018261ffff168152602001965050505050505060405180910390f35b34801561128e57600080fd5b506112be600480360360208110156112a557600080fd5b81019080803560ff169060200190929190505050613af9565b604051808263ffffffff16815260200191505060405180910390f35b3480156112e657600080fd5b50611326600480360360408110156112fd57600080fd5b81019080803560ff169060200190929190803563ffffffff169060200190929190505050613b1c565b005b60036020528060005260406000206000915090508060000160009054906101000a900463ffffffff16908060000160049054906101000a900463ffffffff16905082565b600080600080600d60008760ff16815260200190815260200160002060008660ff16815260200190815260200160002060000160009054906101000a900460ff169350600d60008760ff16815260200190815260200160002060008660ff16815260200190815260200160002060000160019054906101000a900460ff169250600d60008760ff16815260200190815260200160002060008660ff16815260200190815260200160002060000160029054906101000a900460ff169150600d60008760ff16815260200190815260200160002060008660ff16815260200190815260200160002060000160039054906101000a900460ff16905092959194509250565b6114836000801b61147e613bde565b612eb1565b6114f5576040517f08c379a00000000000000000000000000000000000000000000000000000000081526004018080602001828103825260168152602001807f41646d696e20726f6c652069732072657175697265640000000000000000000081525060200191505060405180910390fd5b80600960006101000a81548173ffffffffffffffffffffffffffffffffffffffff021916908373ffffffffffffffffffffffffffffffffffffffff16021790555050565b61154d6000801b611548613bde565b612eb1565b6115bf576040517f08c379a00000000000000000000000000000000000000000000000000000000081526004018080602001828103825260168152602001807f41646d696e20726f6c652069732072657175697265640000000000000000000081525060200191505060405180910390fd5b80600660006101000a81548173ffffffffffffffffffffffffffffffffffffffff021916908373ffffffffffffffffffffffffffffffffffffffff16021790555050565b600060019054906101000a900460ff16806116225750611621613be6565b5b80611638575060008054906101000a900460ff16155b61168d576040517f08c379a000000000000000000000000000000000000000000000000000000000815260040180806020018281038252602e815260200180615cbb602e913960400191505060405180910390fd5b60008060019054906101000a900460ff1615905080156116dd576001600060016101000a81548160ff02191690831515021790555060016000806101000a81548160ff0219169083151502179055505b6116ea6000801b87613bf7565b84600660006101000a81548173ffffffffffffffffffffffffffffffffffffffff021916908373ffffffffffffffffffffffffffffffffffffffff16021790555083600860006101000a81548173ffffffffffffffffffffffffffffffffffffffff021916908373ffffffffffffffffffffffffffffffffffffffff16021790555082600760006101000a81548173ffffffffffffffffffffffffffffffffffffffff021916908373ffffffffffffffffffffffffffffffffffffffff16021790555081600960006101000a81548173ffffffffffffffffffffffffffffffffffffffff021916908373ffffffffffffffffffffffffffffffffffffffff1602179055506103e8600c60006101000a81548163ffffffff021916908363ffffffff16021790555080156118325760008060016101000a81548160ff0219169083151502179055505b505050505050565b600063150b7a0260e01b9050949350505050565b600260009054906101000a900463ffffffff1681565b6004602052816000526040600020602052806000526040600020600091509150508060000160009054906101000a900463ffffffff16908060000160049054906101000a900463ffffffff16908060000160089054906101000a900463ffffffff169080600001600c9054906101000a900463ffffffff16908060000160109054906101000a900463ffffffff16908060000160149054906101000a900463ffffffff16905086565b600060016000838152602001908152602001600020600201549050919050565b600760009054906101000a900473ffffffffffffffffffffffffffffffffffffffff1681565b6119676000801b611962613bde565b612eb1565b6119d9576040517f08c379a00000000000000000000000000000000000000000000000000000000081526004018080602001828103825260168152602001807f41646d696e20726f6c652069732072657175697265640000000000000000000081525060200191505060405180910390fd5b85600460008a63ffffffff1663ffffffff16815260200190815260200160002060008960ff1660ff16815260200190815260200160002060000160006101000a81548163ffffffff021916908363ffffffff16021790555084600460008a63ffffffff1663ffffffff16815260200190815260200160002060008960ff1660ff16815260200190815260200160002060000160046101000a81548163ffffffff021916908363ffffffff16021790555083600460008a63ffffffff1663ffffffff16815260200190815260200160002060008960ff1660ff16815260200190815260200160002060000160086101000a81548163ffffffff021916908363ffffffff16021790555082600460008a63ffffffff1663ffffffff16815260200190815260200160002060008960ff1660ff168152602001908152602001600020600001600c6101000a81548163ffffffff021916908363ffffffff16021790555081600460008a63ffffffff1663ffffffff16815260200190815260200160002060008960ff1660ff16815260200190815260200160002060000160106101000a81548163ffffffff021916908363ffffffff16021790555080600460008a63ffffffff1663ffffffff16815260200190815260200160002060008960ff1660ff16815260200190815260200160002060000160146101000a81548163ffffffff021916908363ffffffff1602179055505050505050505050565b611c076000801b611c02613bde565b612eb1565b611c79576040517f08c379a00000000000000000000000000000000000000000000000000000000081526004018080602001828103825260168152602001807f41646d696e20726f6c652069732072657175697265640000000000000000000081525060200191505060405180910390fd5b80600860006101000a81548173ffffffffffffffffffffffffffffffffffffffff021916908373ffffffffffffffffffffffffffffffffffffffff16021790555050565b611ce46001600084815260200190815260200160002060020154611cdf613bde565b612eb1565b611d39576040517f08c379a000000000000000000000000000000000000000000000000000000000815260040180806020018281038252602f815260200180615bba602f913960400191505060405180910390fd5b611d438282613c05565b5050565b611d4f613bde565b73ffffffffffffffffffffffffffffffffffffffff168173ffffffffffffffffffffffffffffffffffffffff1614611dd2576040517f08c379a000000000000000000000000000000000000000000000000000000000815260040180806020018281038252602f815260200180615da6602f913960400191505060405180910390fd5b611ddc8282613c99565b5050565b6060600b805480602002602001604051908101604052809291908181526020018280548015611e5a57602002820191906000526020600020906000905b82829054906101000a900463ffffffff1663ffffffff1681526020019060040190602082600301049283019260010382029150808411611e1d5790505b5050505050905090565b611e786000801b611e73613bde565b612eb1565b611eea576040517f08c379a00000000000000000000000000000000000000000000000000000000081526004018080602001828103825260168152602001807f41646d696e20726f6c652069732072657175697265640000000000000000000081525060200191505060405180910390fd5b60048860ff161015611f64576040517f08c379a000000000000000000000000000000000000000000000000000000000815260040180806020018281038252601a8152602001807f526172697479206d7573742067726561746572207468616e203300000000000081525060200191505060405180910390fd5b85600d60008a60ff16815260200190815260200160002060008960ff16815260200190815260200160002060000160006101000a81548160ff021916908360ff16021790555084600d60008a60ff16815260200190815260200160002060008960ff16815260200190815260200160002060000160016101000a81548160ff021916908360ff16021790555083600d60008a60ff16815260200190815260200160002060008960ff16815260200190815260200160002060000160026101000a81548160ff021916908360ff16021790555082600d60008a60ff16815260200190815260200160002060008960ff16815260200190815260200160002060000160036101000a81548160ff021916908360ff16021790555081600d60008a60ff16815260200190815260200160002060008960ff16815260200190815260200160002060000160046101000a81548161ffff021916908361ffff16021790555080600d60008a60ff16815260200190815260200160002060008960ff16815260200190815260200160002060000160066101000a81548161ffff021916908361ffff1602179055505050505050505050565b61212a6000801b612125613bde565b612eb1565b61219c576040517f08c379a00000000000000000000000000000000000000000000000000000000081526004018080602001828103825260168152602001807f41646d696e20726f6c652069732072657175697265640000000000000000000081525060200191505060405180910390fd5b81600360008563ffffffff1663ffffffff16815260200190815260200160002060000160006101000a81548163ffffffff021916908363ffffffff16021790555080600360008563ffffffff1663ffffffff16815260200190815260200160002060000160046101000a81548163ffffffff021916908363ffffffff160217905550505050565b600b818154811061223057fe5b9060005260206000209060089182820401919006600402915054906101000a900463ffffffff1681565b600080600360008463ffffffff1663ffffffff16815260200190815260200160002060000160009054906101000a900463ffffffff169150600360008463ffffffff1663ffffffff16815260200190815260200160002060000160049054906101000a900463ffffffff169050915091565b6122e06000801b6122db613bde565b612eb1565b612352576040517f08c379a00000000000000000000000000000000000000000000000000000000081526004018080602001828103825260168152602001807f41646d696e20726f6c652069732072657175697265640000000000000000000081525060200191505060405180910390fd5b8181600a9190612363929190615a01565b505050565b3273ffffffffffffffffffffffffffffffffffffffff16612387613bde565b73ffffffffffffffffffffffffffffffffffffffff16146123f3576040517f08c379a000000000000000000000000000000000000000000000000000000000815260040180806020018281038252602c815260200180615d2c602c913960400191505060405180910390fd5b60008363ffffffff161415612453576040517f08c379a0000000000000000000000000000000000000000000000000000000008152600401808060200182810382526022815260200180615ce96022913960400191505060405180910390fd5b61245b613bde565b73ffffffffffffffffffffffffffffffffffffffff16600660009054906101000a900473ffffffffffffffffffffffffffffffffffffffff1673ffffffffffffffffffffffffffffffffffffffff16636352211e856040518263ffffffff1660e01b8152600401808263ffffffff16815260200191505060206040518083038186803b1580156124ea57600080fd5b505afa1580156124fe573d6000803e3d6000fd5b505050506040513d602081101561251457600080fd5b810190808051906020019092919050505073ffffffffffffffffffffffffffffffffffffffff1614612591576040517f08c379a0000000000000000000000000000000000000000000000000000000008152600401808060200182810382526028815260200180615c426028913960400191505060405180910390fd5b612599615ab7565b6125a284613d2d565b905060016125b6826020015160ff16613edb565b14612629576040517f08c379a00000000000000000000000000000000000000000000000000000000081526004018080602001828103825260138152602001807f4e46542063616e206e6f7420757067726164650000000000000000000000000081525060200191505060405180910390fd5b60008060008061267b8886898980806020026020016040519081016040528093929190818152602001838360200280828437600081840152601f19601f82011690508083019250505050505050613eef565b935093509350935060005b8787905081101561274957600660009054906101000a900473ffffffffffffffffffffffffffffffffffffffff1673ffffffffffffffffffffffffffffffffffffffff16637a5984c48989848181106126db57fe5b9050602002013563ffffffff166040518263ffffffff1660e01b8152600401808263ffffffff168152602001915050600060405180830381600087803b15801561272457600080fd5b505af1158015612738573d6000803e3d6000fd5b505050508080600101915050612686565b506000600d6000876020015160ff1681526020019081526020016000206000876000015160ff16815260200190815260200160002060000160049054906101000a900461ffff1690506000600d6000886020015160ff1681526020019081526020016000206000886000015160ff16815260200190815260200160002060000160069054906101000a900461ffff16905061289f612828600c60009054906101000a900463ffffffff166128148561ffff168b6080015163ffffffff1661491490919063ffffffff16565b63ffffffff166149b890919063ffffffff16565b61288b612872600c60009054906101000a900463ffffffff1661285e8661ffff168c63ffffffff1661491490919063ffffffff16565b63ffffffff166149b890919063ffffffff16565b8a60e0015163ffffffff16614a5990919063ffffffff16565b63ffffffff16614a5990919063ffffffff16565b8760e0019063ffffffff16908163ffffffff168152505061297c612904600c60009054906101000a900463ffffffff166128f08561ffff168b60a0015163ffffffff1661491490919063ffffffff16565b63ffffffff166149b890919063ffffffff16565b61296861294e600c60009054906101000a900463ffffffff1661293a8661ffff168b63ffffffff1661491490919063ffffffff16565b63ffffffff166149b890919063ffffffff16565b8a610100015163ffffffff16614a5990919063ffffffff16565b63ffffffff16614a5990919063ffffffff16565b87610100019063ffffffff16908163ffffffff1681525050612a5a6129e2600c60009054906101000a900463ffffffff166129ce8561ffff168b60c0015163ffffffff1661491490919063ffffffff16565b63ffffffff166149b890919063ffffffff16565b612a46612a2c600c60009054906101000a900463ffffffff16612a188661ffff168a63ffffffff1661491490919063ffffffff16565b63ffffffff166149b890919063ffffffff16565b8a610120015163ffffffff16614a5990919063ffffffff16565b63ffffffff16614a5990919063ffffffff16565b87610120019063ffffffff16908163ffffffff1681525050612a908388610140015163ffffffff16614a5990919063ffffffff16565b87610140019063ffffffff16908163ffffffff1681525050600660009054906101000a900473ffffffffffffffffffffffffffffffffffffffff1673ffffffffffffffffffffffffffffffffffffffff166346a65bc48b612b0260018b6000015160ff16614aed90919063ffffffff16565b8a60e001518b61010001518c61012001518d61014001516040518763ffffffff1660e01b8152600401808763ffffffff1681526020018660ff1681526020018563ffffffff1681526020018463ffffffff1681526020018363ffffffff1681526020018263ffffffff1681526020019650505050505050600060405180830381600087803b158015612b9357600080fd5b505af1158015612ba7573d6000803e3d6000fd5b50505050612bb3613bde565b73ffffffffffffffffffffffffffffffffffffffff167f4e5b306004d35fd69e57fb8afce15045c9a721a1b8652b1dd9a8136403e71d568b8b8b604051808463ffffffff168152602001806020018281038252848482818152602001925060200280828437600081840152601f19601f82011690508083019250505094505050505060405180910390a250505050505050505050565b612c5d6000801b612c58613bde565b612eb1565b612ccf576040517f08c379a00000000000000000000000000000000000000000000000000000000081526004018080602001828103825260168152602001807f41646d696e20726f6c652069732072657175697265640000000000000000000081525060200191505060405180910390fd5b8181600b9190612ce0929190615a01565b505050565b6060600a805480602002602001604051908101604052809291908181526020018280548015612d5f57602002820191906000526020600020906000905b82829054906101000a900463ffffffff1663ffffffff1681526020019060040190602082600301049283019260010382029150808411612d225790505b5050505050905090565b600660009054906101000a900473ffffffffffffffffffffffffffffffffffffffff1681565b600960009054906101000a900473ffffffffffffffffffffffffffffffffffffffff1681565b6000612ddf8260016000868152602001908152602001600020600001614b7b90919063ffffffff16565b905092915050565b612dfb6000801b612df6613bde565b612eb1565b612e6d576040517f08c379a00000000000000000000000000000000000000000000000000000000081526004018080602001828103825260168152602001807f41646d696e20726f6c652069732072657175697265640000000000000000000081525060200191505060405180910390fd5b80600760006101000a81548173ffffffffffffffffffffffffffffffffffffffff021916908373ffffffffffffffffffffffffffffffffffffffff16021790555050565b6000612edb8260016000868152602001908152602001600020600001614b9590919063ffffffff16565b905092915050565b6000801b81565b600a8181548110612ef757fe5b9060005260206000209060089182820401919006600402915054906101000a900463ffffffff1681565b612f356000801b612f30613bde565b612eb1565b612fa7576040517f08c379a00000000000000000000000000000000000000000000000000000000081526004018080602001828103825260168152602001807f41646d696e20726f6c652069732072657175697265640000000000000000000081525060200191505060405180910390fd5b6000600260009054906101000a900463ffffffff16905082600360008363ffffffff1663ffffffff16815260200190815260200160002060000160006101000a81548163ffffffff021916908363ffffffff16021790555081600360008363ffffffff1663ffffffff16815260200190815260200160002060000160046101000a81548163ffffffff021916908363ffffffff16021790555061306c6001600260009054906101000a900463ffffffff1663ffffffff16614a5990919063ffffffff16565b600260006101000a81548163ffffffff021916908363ffffffff160217905550505050565b60006130b160016000848152602001908152602001600020600001614bc5565b9050919050565b3273ffffffffffffffffffffffffffffffffffffffff166130d7613bde565b73ffffffffffffffffffffffffffffffffffffffff1614613160576040517f08c379a000000000000000000000000000000000000000000000000000000000815260040180806020018281038252601a8152602001807f63616e206e6f742063616c6c2066726f6d20636f6e747261637400000000000081525060200191505060405180910390fd5b6000811180156131705750600b81105b6131c5576040517f08c379a0000000000000000000000000000000000000000000000000000000008152600401808060200182810382526036815260200180615be96036913960400191505060405180910390fd5b600760009054906101000a900473ffffffffffffffffffffffffffffffffffffffff1673ffffffffffffffffffffffffffffffffffffffff166323b872dd61320b613bde565b30613227670de0b6b3a764000086614bda90919063ffffffff16565b6040518463ffffffff1660e01b8152600401808473ffffffffffffffffffffffffffffffffffffffff1681526020018373ffffffffffffffffffffffffffffffffffffffff1681526020018281526020019350505050602060405180830381600087803b15801561329757600080fd5b505af11580156132ab573d6000803e3d6000fd5b505050506040513d60208110156132c157600080fd5b810190808051906020019092919050505050600760009054906101000a900473ffffffffffffffffffffffffffffffffffffffff1673ffffffffffffffffffffffffffffffffffffffff16639dc29fac3061332d670de0b6b3a764000085614bda90919063ffffffff16565b6040518363ffffffff1660e01b8152600401808373ffffffffffffffffffffffffffffffffffffffff16815260200182815260200192505050600060405180830381600087803b15801561338057600080fd5b505af1158015613394573d6000803e3d6000fd5b5050505060608167ffffffffffffffff811180156133b157600080fd5b506040519080825280602002602001820160405280156133eb57816020015b6133d8615b4a565b8152602001906001900390816133d05790505b50905060005b828110156136c6576000600860009054906101000a900473ffffffffffffffffffffffffffffffffffffffff1673ffffffffffffffffffffffffffffffffffffffff166339e7357c6040518163ffffffff1660e01b8152600401602060405180830381600087803b15801561346557600080fd5b505af1158015613479573d6000803e3d6000fd5b505050506040513d602081101561348f57600080fd5b810190808051906020019092919050505090506134aa615ab7565b6134b48683614c60565b9050600660009054906101000a900473ffffffffffffffffffffffffffffffffffffffff1673ffffffffffffffffffffffffffffffffffffffff1663f86f491e878484600001518560200151866040015187606001518860e001518961010001518a61012001518b61014001516040518b63ffffffff1660e01b8152600401808b73ffffffffffffffffffffffffffffffffffffffff1681526020018a63ffffffff1681526020018960ff1681526020018860ff1681526020018760ff1681526020018663ffffffff1681526020018563ffffffff1681526020018463ffffffff1681526020018363ffffffff1681526020018263ffffffff1681526020019a5050505050505050505050600060405180830381600087803b1580156135d957600080fd5b505af11580156135ed573d6000803e3d6000fd5b505050508163ffffffff1684848151811061360457fe5b602002602001015160006004811061361857fe5b602002018181525050806020015160ff1684848151811061363557fe5b602002602001015160016004811061364957fe5b602002018181525050806040015160ff1684848151811061366657fe5b602002602001015160026004811061367a57fe5b602002018181525050806060015163ffffffff1684848151811061369a57fe5b60200260200101516003600481106136ae57fe5b602002018181525050505080806001019150506133f1565b508273ffffffffffffffffffffffffffffffffffffffff166136e6613bde565b73ffffffffffffffffffffffffffffffffffffffff167f2520f28f6570e1738d318e1de9087d63b309b58f3f4043700b08cb9f99e33446838560405180806020018381526020018281038252848181518152602001915080516000925b8184101561378c5782846020026020010151600460200280838360005b8381101561377b578082015181840152602081019050613760565b505050509050019260010192613743565b92505050935050505060405180910390a3505050565b600860009054906101000a900473ffffffffffffffffffffffffffffffffffffffff1681565b600080600080600080600460008963ffffffff1663ffffffff16815260200190815260200160002060008860ff1660ff16815260200190815260200160002060000160009054906101000a900463ffffffff169550600460008963ffffffff1663ffffffff16815260200190815260200160002060008860ff1660ff16815260200190815260200160002060000160049054906101000a900463ffffffff169450600460008963ffffffff1663ffffffff16815260200190815260200160002060008860ff1660ff16815260200190815260200160002060000160089054906101000a900463ffffffff169350600460008963ffffffff1663ffffffff16815260200190815260200160002060008860ff1660ff168152602001908152602001600020600001600c9054906101000a900463ffffffff169250600460008963ffffffff1663ffffffff16815260200190815260200160002060008860ff1660ff16815260200190815260200160002060000160109054906101000a900463ffffffff169150600460008963ffffffff1663ffffffff16815260200190815260200160002060008860ff1660ff16815260200190815260200160002060000160149054906101000a900463ffffffff1690509295509295509295565b6139ca60016000848152602001908152602001600020600201546139c5613bde565b612eb1565b613a1f576040517f08c379a0000000000000000000000000000000000000000000000000000000008152600401808060200182810382526030815260200180615c8b6030913960400191505060405180910390fd5b613a298282613c99565b5050565b6000600560008360ff1660ff16815260200190815260200160002060009054906101000a900463ffffffff169050919050565b600d602052816000526040600020602052806000526040600020600091509150508060000160009054906101000a900460ff16908060000160019054906101000a900460ff16908060000160029054906101000a900460ff16908060000160039054906101000a900460ff16908060000160049054906101000a900461ffff16908060000160069054906101000a900461ffff16905086565b60056020528060005260406000206000915054906101000a900463ffffffff1681565b613b306000801b613b2b613bde565b612eb1565b613ba2576040517f08c379a00000000000000000000000000000000000000000000000000000000081526004018080602001828103825260168152602001807f41646d696e20726f6c652069732072657175697265640000000000000000000081525060200191505060405180910390fd5b80600560008460ff1660ff16815260200190815260200160002060006101000a81548163ffffffff021916908363ffffffff1602179055505050565b600033905090565b6000613bf1306152a7565b15905090565b613c018282613c05565b5050565b613c2d81600160008581526020019081526020016000206000016152ba90919063ffffffff16565b15613c9557613c3a613bde565b73ffffffffffffffffffffffffffffffffffffffff168173ffffffffffffffffffffffffffffffffffffffff16837f2f8788117e7eff1d82e926ec794901d17c78024a50270940304540a733656f0d60405160405180910390a45b5050565b613cc181600160008581526020019081526020016000206000016152ea90919063ffffffff16565b15613d2957613cce613bde565b73ffffffffffffffffffffffffffffffffffffffff168173ffffffffffffffffffffffffffffffffffffffff16837ff6391f5c32d9c69d2a47ea670b442974b53935d1edc7fd64eb21e047a839171b60405160405180910390a45b5050565b613d35615ab7565b600660009054906101000a900473ffffffffffffffffffffffffffffffffffffffff1673ffffffffffffffffffffffffffffffffffffffff16637d37048c836040518263ffffffff1660e01b8152600401808263ffffffff1681526020019150506101006040518083038186803b158015613daf57600080fd5b505afa158015613dc3573d6000803e3d6000fd5b505050506040513d610100811015613dda57600080fd5b81019080805190602001909291908051906020019092919080519060200190929190805190602001909291908051906020019092919080519060200190929190805190602001909291908051906020019092919050505088600001896020018a6040018b6060018c60e0018d610100018e610120018f610140018863ffffffff1663ffffffff168152508863ffffffff1663ffffffff168152508863ffffffff1663ffffffff168152508863ffffffff1663ffffffff168152508863ffffffff1663ffffffff168152508860ff1660ff168152508860ff1660ff168152508860ff1660ff168152505050505050505050613ed4828261531a565b9050919050565b600060048210613eea57600190505b919050565b6000806000806000806000806000600960009054906101000a900473ffffffffffffffffffffffffffffffffffffffff1673ffffffffffffffffffffffffffffffffffffffff16633c170f9d8d6040518263ffffffff1660e01b8152600401808263ffffffff16815260200191505060206040518083038186803b158015613f7657600080fd5b505afa158015613f8a573d6000803e3d6000fd5b505050506040513d6020811015613fa057600080fd5b8101908080519060200190929190505050905060005b8a518110156146115760008b8281518110613fcd57fe5b602002602001015163ffffffff16141561404f576040517f08c379a00000000000000000000000000000000000000000000000000000000081526004018080602001828103825260128152602001807f6275726e6564204e46544964206572726f72000000000000000000000000000081525060200191505060405180910390fd5b614057613bde565b73ffffffffffffffffffffffffffffffffffffffff16600660009054906101000a900473ffffffffffffffffffffffffffffffffffffffff1673ffffffffffffffffffffffffffffffffffffffff16636352211e8d84815181106140b757fe5b60200260200101516040518263ffffffff1660e01b8152600401808263ffffffff16815260200191505060206040518083038186803b1580156140f957600080fd5b505afa15801561410d573d6000803e3d6000fd5b505050506040513d602081101561412357600080fd5b810190808051906020019092919050505073ffffffffffffffffffffffffffffffffffffffff16146141a0576040517f08c379a0000000000000000000000000000000000000000000000000000000008152600401808060200182810382526028815260200180615c426028913960400191505060405180910390fd5b6000600960009054906101000a900473ffffffffffffffffffffffffffffffffffffffff1673ffffffffffffffffffffffffffffffffffffffff16633c170f9d8d84815181106141ec57fe5b60200260200101516040518263ffffffff1660e01b8152600401808263ffffffff16815260200191505060206040518083038186803b15801561422e57600080fd5b505afa158015614242573d6000803e3d6000fd5b505050506040513d602081101561425857600080fd5b810190808051906020019092919050505090506000818402118061428857506000831480156142875750600081145b5b6142dd576040517f08c379a0000000000000000000000000000000000000000000000000000000008152600401808060200182810382526026815260200180615d806026913960400191505060405180910390fd5b6142e5615ab7565b6143018d84815181106142f457fe5b6020026020010151613d2d565b9050806060015163ffffffff168e6060015163ffffffff161461438c576040517f08c379a00000000000000000000000000000000000000000000000000000000081526004018080602001828103825260208152602001807f4275726e6564204e46542073686f756c6420686176652073616d65207465616d81525060200191505060405180910390fd5b806040015160ff168e6040015160ff16146143f2576040517f08c379a0000000000000000000000000000000000000000000000000000000008152600401808060200182810382526023815260200180615c1f6023913960400191505060405180910390fd5b6001816020015160ff16141561441c5761441960018960ff16614aed90919063ffffffff16565b97505b6002816020015160ff1614156144465761444360018860ff16614aed90919063ffffffff16565b96505b6003816020015160ff1614156144705761446d60018760ff16614aed90919063ffffffff16565b95505b8d6020015160ff16816020015160ff1614156145e2576144a38160e001518d63ffffffff16614a5990919063ffffffff16565b9b506144c38161010001518c63ffffffff16614a5990919063ffffffff16565b9a506144e38161012001518b63ffffffff16614a5990919063ffffffff16565b99506144fc60018660ff16614aed90919063ffffffff16565b9450601e8e6000015160ff16101561457a57806000015160ff168e6000015160ff161015614575576040517f08c379a0000000000000000000000000000000000000000000000000000000008152600401808060200182810382526028815260200180615d586028913960400191505060405180910390fd5b6145e1565b806000015160ff168e6000015160ff16146145e0576040517f08c379a0000000000000000000000000000000000000000000000000000000008152600401808060200182810382526021815260200180615c6a6021913960400191505060405180910390fd5b5b5b6146008161014001518a63ffffffff16614a5990919063ffffffff16565b985050508080600101915050613fb6565b508460ff16600d60008d6020015160ff16815260200190815260200160002060008d6000015160ff16815260200190815260200160002060000160009054906101000a900460ff1660ff16146146cf576040517f08c379a000000000000000000000000000000000000000000000000000000000815260040180806020018281038252601b8152602001807f616d6f756e74206f66206a756e6b20697320696e636f7272656374000000000081525060200191505060405180910390fd5b8360ff16600d60008d6020015160ff16815260200190815260200160002060008d6000015160ff16815260200190815260200160002060000160019054906101000a900460ff1660ff161461478c576040517f08c379a000000000000000000000000000000000000000000000000000000000815260040180806020018281038252601d8152602001807f616d6f756e74206f66206e6f726d616c20697320696e636f727265637400000081525060200191505060405180910390fd5b8260ff16600d60008d6020015160ff16815260200190815260200160002060008d6000015160ff16815260200190815260200160002060000160029054906101000a900460ff1660ff1614614849576040517f08c379a000000000000000000000000000000000000000000000000000000000815260040180806020018281038252601b8152602001807f616d6f756e74206f66207261726520697320696e636f7272656374000000000081525060200191505060405180910390fd5b8160ff16600d60008d6020015160ff16815260200190815260200160002060008d6000015160ff16815260200190815260200160002060000160039054906101000a900460ff1660ff1614614906576040517f08c379a000000000000000000000000000000000000000000000000000000000815260040180806020018281038252601b8152602001807f616d6f756e74206f66206261736520697320696e636f7272656374000000000081525060200191505060405180910390fd5b505050505093509350935093565b6000808363ffffffff16141561492d57600090506149b2565b600082840290508263ffffffff168463ffffffff168263ffffffff168161495057fe5b0463ffffffff16146149ad576040517f08c379a0000000000000000000000000000000000000000000000000000000008152600401808060200182810382526021815260200180615d0b6021913960400191505060405180910390fd5b809150505b92915050565b6000808263ffffffff1611614a35576040517f08c379a000000000000000000000000000000000000000000000000000000000815260040180806020018281038252601a8152602001807f536166654d6174683a206469766973696f6e206279207a65726f00000000000081525060200191505060405180910390fd5b60008263ffffffff168463ffffffff1681614a4c57fe5b0490508091505092915050565b60008082840190508363ffffffff168163ffffffff161015614ae3576040517f08c379a000000000000000000000000000000000000000000000000000000000815260040180806020018281038252601b8152602001807f536166654d6174683a206164646974696f6e206f766572666c6f77000000000081525060200191505060405180910390fd5b8091505092915050565b60008082840190508360ff168160ff161015614b71576040517f08c379a000000000000000000000000000000000000000000000000000000000815260040180806020018281038252601b8152602001807f536166654d6174683a206164646974696f6e206f766572666c6f77000000000081525060200191505060405180910390fd5b8091505092915050565b6000614b8a8360000183615432565b60001c905092915050565b6000614bbd836000018373ffffffffffffffffffffffffffffffffffffffff1660001b6154b5565b905092915050565b6000614bd3826000016154d8565b9050919050565b600080831415614bed5760009050614c5a565b6000828402905082848281614bfe57fe5b0414614c55576040517f08c379a0000000000000000000000000000000000000000000000000000000008152600401808060200182810382526021815260200180615d0b6021913960400191505060405180910390fd5b809150505b92915050565b614c68615ab7565b6000614c7e6001436154e990919063ffffffff16565b408385604051602001808481526020018381526020018273ffffffffffffffffffffffffffffffffffffffff16815260200193505050506040516020818303038152906040528051906020012060001c9050600081604051602001808281526020019150506040516020818303038152906040528051906020012060001c9050600081604051602001808281526020019150506040516020818303038152906040528051906020012060001c9050600081604051602001808281526020019150506040516020818303038152906040528051906020012060001c9050600081604051602001808281526020019150506040516020818303038152906040528051906020012060001c9050600081604051602001808281526020019150506040516020818303038152906040528051906020012060001c90506001876000019060ff16908160ff1681525050614e766001614e68614de66103e88661556c90919063ffffffff16565b600b805480602002602001604051908101604052809291908181526020018280548015614e5e57602002820191906000526020600020906000905b82829054906101000a900463ffffffff1663ffffffff1681526020019060040190602082600301049283019260010382029150808411614e215790505b50505050506155f5565b61564590919063ffffffff16565b876040019060ff16908160ff1681525050614ea4614e9f6103e88561556c90919063ffffffff16565b6156cd565b876060019063ffffffff16908163ffffffff1681525050614f686001614f5a614ed86103e88561556c90919063ffffffff16565b600a805480602002602001604051908101604052809291908181526020018280548015614f5057602002820191906000526020600020906000905b82829054906101000a900463ffffffff1663ffffffff1681526020019060040190602082600301049283019260010382029150808411614f135790505b50505050506155f5565b61564590919063ffffffff16565b876020019060ff16908160ff168152505060056000886020015160ff1660ff16815260200190815260200160002060009054906101000a900463ffffffff1687610140019063ffffffff16908163ffffffff16815250506004876020015160ff161061529b576150a5600c60009054906101000a900463ffffffff1661509186600460008c6060015163ffffffff1663ffffffff16815260200190815260200160002060008c6020015160ff1660ff16815260200190815260200160002060000160009054906101000a900463ffffffff16600460008d6060015163ffffffff1663ffffffff16815260200190815260200160002060008d6020015160ff1660ff16815260200190815260200160002060000160049054906101000a900463ffffffff166157ad565b63ffffffff1661491490919063ffffffff16565b8760e0019063ffffffff16908163ffffffff1681525050615193600c60009054906101000a900463ffffffff1661517f87600460008c6060015163ffffffff1663ffffffff16815260200190815260200160002060008c6020015160ff1660ff16815260200190815260200160002060000160089054906101000a900463ffffffff16600460008d6060015163ffffffff1663ffffffff16815260200190815260200160002060008d6020015160ff1660ff168152602001908152602001600020600001600c9054906101000a900463ffffffff166157ad565b63ffffffff1661491490919063ffffffff16565b87610100019063ffffffff16908163ffffffff1681525050615282600c60009054906101000a900463ffffffff1661526e88600460008c6060015163ffffffff1663ffffffff16815260200190815260200160002060008c6020015160ff1660ff16815260200190815260200160002060000160109054906101000a900463ffffffff16600460008d6060015163ffffffff1663ffffffff16815260200190815260200160002060008d6020015160ff1660ff16815260200190815260200160002060000160149054906101000a900463ffffffff166157ad565b63ffffffff1661491490919063ffffffff16565b87610120019063ffffffff16908163ffffffff16815250505b50505050505092915050565b600080823b905060008111915050919050565b60006152e2836000018373ffffffffffffffffffffffffffffffffffffffff1660001b615814565b905092915050565b6000615312836000018373ffffffffffffffffffffffffffffffffffffffff1660001b615884565b905092915050565b615322615ab7565b600660009054906101000a900473ffffffffffffffffffffffffffffffffffffffff1673ffffffffffffffffffffffffffffffffffffffff1663abafa8f1846040518263ffffffff1660e01b8152600401808263ffffffff16815260200191505060606040518083038186803b15801561539b57600080fd5b505afa1580156153af573d6000803e3d6000fd5b505050506040513d60608110156153c557600080fd5b81019080805190602001909291908051906020019092919080519060200190929190505050846080018560a0018660c0018363ffffffff1663ffffffff168152508363ffffffff1663ffffffff168152508363ffffffff1663ffffffff1681525050505081905092915050565b600081836000018054905011615493576040517f08c379a0000000000000000000000000000000000000000000000000000000008152600401808060200182810382526022815260200180615b986022913960400191505060405180910390fd5b8260000182815481106154a257fe5b9060005260206000200154905092915050565b600080836001016000848152602001908152602001600020541415905092915050565b600081600001805490509050919050565b600082821115615561576040517f08c379a000000000000000000000000000000000000000000000000000000000815260040180806020018281038252601e8152602001807f536166654d6174683a207375627472616374696f6e206f766572666c6f77000081525060200191505060405180910390fd5b818303905092915050565b60008082116155e3576040517f08c379a00000000000000000000000000000000000000000000000000000000081526004018080602001828103825260188152602001807f536166654d6174683a206d6f64756c6f206279207a65726f000000000000000081525060200191505060405180910390fd5b8183816155ec57fe5b06905092915050565b600080600090505b825181101561563d5782818151811061561257fe5b602002602001015163ffffffff16841015615630578091505061563f565b80806001019150506155fd565b505b92915050565b6000808284019050838110156156c3576040517f08c379a000000000000000000000000000000000000000000000000000000000815260040180806020018281038252601b8152602001807f536166654d6174683a206164646974696f6e206f766572666c6f77000000000081525060200191505060405180910390fd5b8091505092915050565b6000806000905060005b600260009054906101000a900463ffffffff1663ffffffff168163ffffffff1610156157a3578363ffffffff16600360008363ffffffff1663ffffffff16815260200190815260200160002060000160049054906101000a900463ffffffff1663ffffffff16111580156157895750600360008263ffffffff1663ffffffff16815260200190815260200160002060000160009054906101000a900463ffffffff1663ffffffff168463ffffffff1611155b15615796578091506157a3565b80806001019150506156d7565b5080915050919050565b600061580b60016157fd8463ffffffff166157ef6157da878963ffffffff1661596c90919063ffffffff16565b63ffffffff168961556c90919063ffffffff16565b61564590919063ffffffff16565b61564590919063ffffffff16565b90509392505050565b600061582083836154b5565b61587957826000018290806001815401808255809150506001900390600052602060002001600090919091909150558260000180549050836001016000848152602001908152602001600020819055506001905061587e565b600090505b92915050565b6000808360010160008481526020019081526020016000205490506000811461596057600060018203905060006001866000018054905003905060008660000182815481106158cf57fe5b90600052602060002001549050808760000184815481106158ec57fe5b906000526020600020018190555060018301876001016000838152602001908152602001600020819055508660000180548061592457fe5b60019003818190600052602060002001600090559055866001016000878152602001908152602001600020600090556001945050505050615966565b60009150505b92915050565b60008263ffffffff168263ffffffff1611156159f0576040517f08c379a000000000000000000000000000000000000000000000000000000000815260040180806020018281038252601e8152602001807f536166654d6174683a207375627472616374696f6e206f766572666c6f77000081525060200191505060405180910390fd5b600082840390508091505092915050565b82805482825590600052602060002090600701600890048101928215615aa65791602002820160005b83821115615a7457833563ffffffff1683826101000a81548163ffffffff021916908363ffffffff1602179055509260200192600401602081600301049283019260010302615a2a565b8015615aa45782816101000a81549063ffffffff0219169055600401602081600301049283019260010302615a74565b505b509050615ab39190615b6c565b5090565b604051806101600160405280600060ff168152602001600060ff168152602001600060ff168152602001600063ffffffff168152602001600063ffffffff168152602001600063ffffffff168152602001600063ffffffff168152602001600063ffffffff168152602001600063ffffffff168152602001600063ffffffff168152602001600063ffffffff1681525090565b6040518060800160405280600490602082028036833780820191505090505090565b5b80821115615b9357600081816101000a81549063ffffffff021916905550600101615b6d565b509056fe456e756d657261626c655365743a20696e646578206f7574206f6620626f756e6473416363657373436f6e74726f6c3a2073656e646572206d75737420626520616e2061646d696e20746f206772616e744e756d626572206f662043686573742073686f756c642067726561746572207468616e203020616e64206c657373207468616e2031314275726e6564204e46542073686f756c6420686176652073616d6520656c656d656e74465761724368617244656c65676174653a20596f752068617665206e6f207065726d697373696f6e4275726e6564204e46542073686f756c6420686176652073616d65206c6576656c416363657373436f6e74726f6c3a2073656e646572206d75737420626520616e2061646d696e20746f207265766f6b65496e697469616c697a61626c653a20636f6e747261637420697320616c726561647920696e697469616c697a6564465761724368617244656c65676174653a206d61696e204e46544964206572726f72536166654d6174683a206d756c7469706c69636174696f6e206f766572666c6f77465761724368617244656c65676174653a2043616e206e6f742063616c6c2066726f6d20636f6e74726163744275726e6564204e46542073686f756c642068617665206c6576656c203c3d206d61696e204e4654726571756972652073616d65205374616b696e67206f7220756e5374616b6520737461747573416363657373436f6e74726f6c3a2063616e206f6e6c792072656e6f756e636520726f6c657320666f722073656c66a2646970667358221220f4093d1faf756074d81051bc8453bfbcfaff73210778e832f91aacf13e75ebdc64736f6c634300060c0033",
  "immutableReferences": {},
  "source": "// SPDX-License-Identifier: MIT\npragma solidity 0.6.12;\n// pragma experimental ABIEncoderV2;\n\nimport \"@openzeppelin/contracts/token/ERC721/ERC721.sol\";\nimport \"@openzeppelin/contracts/token/ERC20/IERC20.sol\";\nimport \"@openzeppelin/contracts/token/ERC20/SafeERC20.sol\";\nimport \"@openzeppelin/contracts/access/AccessControl.sol\";\nimport \"@openzeppelin/contracts/proxy/Initializable.sol\";\nimport \"@openzeppelin/contracts/token/ERC721/ERC721Holder.sol\";\n\nimport \"./FwarCharStorage.sol\";\n\ninterface IFwarChar {\n    function mint(address _user, uint32 tokenId, uint8 _level, uint8 _rarity, uint8 _elementType, uint32 _teamId, \n        uint32 _attack, uint32 _defense, uint32 _health, uint32 _hash ) external;\n    function upgrade(uint32 _tokenId, uint8 _level, uint32 _attack, uint32 _defense, uint32 _health, uint32 _hash) external;\n    function totalSupply() external view returns (uint);\n    function getCharInfo(uint32 _id) external view returns (uint8 level, uint8 rarity, uint8 elementType, \n        uint32 teamId, uint32 attack, uint32 defense, uint32 health, uint32 hash);\n    function getCharBaseInfo(uint32 _id) external view returns (uint32 baseAttack, uint32 baseDefense, uint32 baseHealth);\n    function burn(uint32 _tokenId) external;\n}\n\ninterface IFwarKey{\n    function burn(address _from, uint256 _amount) external;\n}\ninterface ISeed {\n    function getSeed() external returns(uint256);\n}\n\ninterface IFwarMining {\n    function getStakingNFT(uint _nftId) external view returns (uint);\n}\n\ncontract FwarCharDelegate is Initializable, AccessControl, ERC721Holder, FwarCharStorage {\n    using SafeERC20 for IERC20;\n\n\n    event OpenChest(address indexed _caller, address indexed _receiver, uint[4][] _openChestInfo, uint _number);\n    event Upgrade(address indexed _caller, uint32 _mainNFTId, uint32[] _burnedNfts);\n\n    function initialize(address admin, address _fwarCharAddress,address _seedAddress, address _fwarKeyAddress, address _fwarMiningAddress) public payable initializer {\n        _setupRole(DEFAULT_ADMIN_ROLE, admin);\n\n        fwarCharAddress = _fwarCharAddress;\n        seedAddress = _seedAddress;\n        fwarKeyAddress = _fwarKeyAddress;\n        fwarMiningAddress = _fwarMiningAddress;\n\n        MULTIPLER = 1e3;\n    }\n\n    function setRarity(uint32[] calldata valuelist) external {\n        require(hasRole(DEFAULT_ADMIN_ROLE, _msgSender()), 'Admin role is required');\n        RARITY_MASK = valuelist;\n    }\n\n    function setElement(uint32[] calldata valuelist) external{\n        require(hasRole(DEFAULT_ADMIN_ROLE, _msgSender()), 'Admin role is required');\n        ELEMENT_MASK = valuelist;\n    }\n\n    function setFwarMiningAddress(address _fwarMiningAddress) external{\n        require(hasRole(DEFAULT_ADMIN_ROLE, _msgSender()), 'Admin role is required');\n        fwarMiningAddress = _fwarMiningAddress;\n    }\n\n    function getRarity() external view returns (uint32[] memory ){\n        return RARITY_MASK;\n    }\n\n    function getElement() external view returns (uint32[] memory){\n        return ELEMENT_MASK;\n    }\n\n\n    function getTeamInfo(uint32 _teamId) public view returns (uint32 maxRandom, uint32 minRandom)\n    {\n        maxRandom = teamInfos[_teamId].maxRandom;\n        minRandom = teamInfos[_teamId].minRandom;\n        return (maxRandom, minRandom);\n    }\n\n\n    function addTeamInfo(uint32 _maxRandom, uint32 _minRandom) public \n    {\n        require(hasRole(DEFAULT_ADMIN_ROLE, _msgSender()), 'Admin role is required');\n        \n        uint32 teamId = TeamCount;\n        teamInfos[teamId].maxRandom   = _maxRandom;\n        teamInfos[teamId].minRandom   = _minRandom;\n\n        TeamCount = TeamCount.add(1);\n    }\n\n    function updateTeamInfo(uint32 _teamId, uint32 _maxRandom, uint32 _minRandom) public \n    {\n        require(hasRole(DEFAULT_ADMIN_ROLE, _msgSender()), 'Admin role is required');\n\n        teamInfos[_teamId].maxRandom   = _maxRandom;\n        teamInfos[_teamId].minRandom   = _minRandom;\n    }\n\n    function updateCharStat(uint32 _teamId, uint8 _rarity, uint32 _maxAttack,  uint32 _minAttack, \n        uint32 _maxDefense, uint32 _minDefense, uint32 _maxHealth, uint32 _minHealth) public \n    {\n        require(hasRole(DEFAULT_ADMIN_ROLE, _msgSender()), 'Admin role is required');\n\n        charStats[_teamId][_rarity].maxAttack = _maxAttack;\n        charStats[_teamId][_rarity].minAttack = _minAttack;\n        charStats[_teamId][_rarity].maxDefense = _maxDefense;\n        charStats[_teamId][_rarity].minDefense =_minDefense;\n        charStats[_teamId][_rarity].maxHealth = _maxHealth;\n        charStats[_teamId][_rarity].minHealth = _minHealth;\n\n    }\n\n    function getCharStat(uint32 _teamId, uint8 _rarity) public view returns \n        (uint32 maxAttack, uint32 minAttack, uint32 maxDefense, uint32 minDefense, uint32 maxHealth, uint32 minHealth)\n    {\n        maxAttack = charStats[_teamId][_rarity].maxAttack;\n        minAttack = charStats[_teamId][_rarity].minAttack;\n        maxDefense = charStats[_teamId][_rarity].maxDefense;\n        minDefense = charStats[_teamId][_rarity].minDefense;\n        maxHealth = charStats[_teamId][_rarity].maxHealth;\n        minHealth = charStats[_teamId][_rarity].minHealth;\n\n        return (maxAttack, minAttack, maxDefense, minDefense, maxHealth, minHealth);\n    }\n\n    function updateHash(uint8 _rarity, uint32 _hash) public \n    {\n        require(hasRole(DEFAULT_ADMIN_ROLE, _msgSender()), 'Admin role is required');\n\n        hashes[_rarity] = _hash;\n    }\n\n    function getHash(uint8 _rarity) public view returns (uint32 hash)\n    {\n        return (hashes[_rarity]);\n    }\n\n\n    function setSeedAddress(address _seedAddress) external {\n        require(hasRole(DEFAULT_ADMIN_ROLE, _msgSender()), 'Admin role is required');\n        seedAddress = _seedAddress;\n    }\n\n\n    function setFwarCharAddress(address _fwarCharAddress) external {\n        require(hasRole(DEFAULT_ADMIN_ROLE, _msgSender()), 'Admin role is required');\n        fwarCharAddress = _fwarCharAddress;\n    }\n\n    function setFwarKeyAddress(address _fwarKeyAddress) external {\n        require(hasRole(DEFAULT_ADMIN_ROLE, _msgSender()), 'Admin role is required');\n        fwarKeyAddress = _fwarKeyAddress;\n    }\n\n    function setBurnInfos(uint8 _ratity, uint8 _level, uint8 _junkAmount, uint8 _normalAmount,  uint8 _rareAmount, \n        uint8 _baseAmount, uint16 _percentConsume, uint16 _percentOnBase) external \n    {\n        require(hasRole(DEFAULT_ADMIN_ROLE, _msgSender()), 'Admin role is required');\n        require(_ratity >= 4, \"Rarity must greater than 3\");\n\n        burnInfos[_ratity][_level].junkAmount = _junkAmount;\n        burnInfos[_ratity][_level].normalAmount = _normalAmount;\n        burnInfos[_ratity][_level].rareAmount = _rareAmount;\n        burnInfos[_ratity][_level].baseAmount = _baseAmount;\n        burnInfos[_ratity][_level].percentConsume = _percentConsume;\n        burnInfos[_ratity][_level].percentOnBase = _percentOnBase;\n    }\n\n    function getBurnInfo(uint8 _ratity, uint8 _level) external view returns(uint8 junkAmount, uint8 normalAmount, uint8 rareAmount, uint8 baseAmount){\n        junkAmount = burnInfos[_ratity][_level].junkAmount;\n        normalAmount = burnInfos[_ratity][_level].normalAmount;\n        rareAmount = burnInfos[_ratity][_level].rareAmount;\n        baseAmount = burnInfos[_ratity][_level].baseAmount;\n\n        return (junkAmount , normalAmount, rareAmount, baseAmount);\n    }\n\n    function OpenItems(address user, uint number) external {\n        require(_msgSender() == tx.origin, \"can not call from contract\");\n        require(number > 0 && number < 11, \"Number of Chest should greater than 0 and less than 11\");\n        \n        //Burn Keys    \n        IERC20(fwarKeyAddress).transferFrom(_msgSender(), address(this), number.mul(1e18));\n        IFwarKey(fwarKeyAddress).burn(address(this),number.mul(1e18));\n\n        uint[4][] memory topenChestInfos = new uint[4][](number);\n        for(uint i = 0; i < number; i++)\n        {   \n            uint tokenId = ISeed(seedAddress).getSeed();\n            CharInfo memory charInfo = randomCharStats(user, tokenId);\n\n            IFwarChar(fwarCharAddress).mint(user, uint32(tokenId), charInfo.level, charInfo.rarity, charInfo.elementType,\n            charInfo.teamId, charInfo.attack, charInfo.defense, charInfo.health, charInfo.hash);\n\n            topenChestInfos[i][0] = uint32(tokenId);\n            topenChestInfos[i][1] = charInfo.rarity;\n            topenChestInfos[i][2] = charInfo.elementType;\n            topenChestInfos[i][3] = charInfo.teamId;\n        }\n\n        emit OpenChest(_msgSender(), user, topenChestInfos, number);\n    }\n\n    function randomCharStats(address _user, uint _seed) internal view returns (\n        CharInfo memory charInfo) \n    {\n        uint random1 = uint(keccak256(abi.encode(blockhash(block.number.sub(1)), _seed, _user)));\n        uint random2 = uint(keccak256(abi.encode(random1)));\n        uint random3 = uint(keccak256(abi.encode(random2)));\n        uint random4 = uint(keccak256(abi.encode(random3)));\n        uint random5 = uint(keccak256(abi.encode(random4)));\n        uint random6 = uint(keccak256(abi.encode(random5)));\n        \n        charInfo.level = 1;\n\n        charInfo.elementType = uint8(getMaskValue(random5.mod(1000), ELEMENT_MASK).add(1));\n        charInfo.teamId = getTeamId(uint32(random4.mod(1000)));\n        charInfo.rarity = uint8(getMaskValue(random6.mod(1000), RARITY_MASK).add(1));\n        charInfo.hash = hashes[charInfo.rarity];\n        if(charInfo.rarity >= 4){\n            charInfo.attack = randomStatistic(random3, charStats[charInfo.teamId][charInfo.rarity].maxAttack,charStats[charInfo.teamId][charInfo.rarity].minAttack).mul(MULTIPLER);\n            charInfo.defense = randomStatistic(random2, charStats[charInfo.teamId][charInfo.rarity].maxDefense,charStats[charInfo.teamId][charInfo.rarity].minDefense).mul(MULTIPLER);\n            charInfo.health = randomStatistic(random1, charStats[charInfo.teamId][charInfo.rarity].maxHealth,charStats[charInfo.teamId][charInfo.rarity].minHealth).mul(MULTIPLER);\n        }\n    }\n\n    function getTeamId (uint32 random) private view returns (uint32){\n        uint32 id = 0;\n\n        for(uint32 i=0; i< TeamCount; i++)\n        {\n            if(teamInfos[i].minRandom <= random && random <= teamInfos[i].maxRandom)\n            {\n                id = i;\n                break;\n            }\n        }\n        return id;\n    }\n\n    function getMaskValue(uint random, uint32[] memory mask) private pure returns (uint) {\n        for (uint i=0; i<mask.length; i++) {\n            if (random < mask[i]) {\n                return i;\n            }\n        }\n    }\n\n    function randomStatistic(uint random, uint32 max, uint32 min) private pure returns (uint32 value){\n        value = uint32(random.mod(max.sub(min)).add(min).add(1));\n        return value;\n    }\n\n    /// @dev upgrade is called by a user\n    /// @param _mainNFTId is the NFT Id of nft which want to upgrade\n    /// @param _burnedNfts is the array of nftId which use to burn for mainNFT\n\n    //Need check isSelling or Not\n    function upgrade(uint32 _mainNFTId, uint32[] calldata _burnedNfts) external\n    {\n        require(_msgSender() == tx.origin, \"FWarCharDelegate: Can not call from contract\");\n        require(_mainNFTId != 0, \"FWarCharDelegate: main NFTId error\");\n        require(IERC721(fwarCharAddress).ownerOf(_mainNFTId) == _msgSender(), \"FWarCharDelegate: You have no permission\");\n\n        CharInfo memory mainNFT = getCharInfo(_mainNFTId);\n\n        require(isUpgradable(mainNFT.rarity) == 1, 'NFT can not upgrade');\n\n        (uint32 totalAttack, uint32 totalDefense, uint32 totalHealth, uint32 totalHash) = verifyBurnedNfts(_mainNFTId, mainNFT, _burnedNfts);\n\n        for (uint i = 0; i < _burnedNfts.length; i++) {\n            IFwarChar(fwarCharAddress).burn(_burnedNfts[i]);\n        }\n\n        uint16 percentConsume = burnInfos[mainNFT.rarity][mainNFT.level].percentConsume;\n        uint16 percentBase = burnInfos[mainNFT.rarity][mainNFT.level].percentOnBase;\n\n        mainNFT.attack = mainNFT.attack.add(totalAttack.mul(percentBase).div(MULTIPLER)).add(mainNFT.baseAttack.mul(percentConsume).div(MULTIPLER));\n        mainNFT.defense = mainNFT.defense.add(totalDefense.mul(percentBase).div(MULTIPLER)).add(mainNFT.baseDefense.mul(percentConsume).div(MULTIPLER));\n        mainNFT.health = mainNFT.health.add(totalHealth.mul(percentBase).div(MULTIPLER)).add(mainNFT.baseHealth.mul(percentConsume).div(MULTIPLER));\n        mainNFT.hash = mainNFT.hash.add(totalHash);\n\n        IFwarChar(fwarCharAddress).upgrade(_mainNFTId, mainNFT.level.add(1), mainNFT.attack, mainNFT.defense, mainNFT.health, mainNFT.hash);\n\n        emit Upgrade(_msgSender(), _mainNFTId, _burnedNfts);\n    }\n\n    /// @dev isUpgradable\n    /// @param _rarity is the rarity of NFT which want to check\n    function isUpgradable(uint _rarity) internal pure returns (uint returnVal){\n        if(_rarity >= 4) {\n            returnVal = 1;\n        }\n        return returnVal;\n    }\n\n    /// @dev getCharInfo\n    /// @param _nftId is the id of NFT\n    function getCharInfo(uint32 _nftId) internal view returns (CharInfo memory charInfo){\n        (charInfo.level, charInfo.rarity, charInfo.elementType, charInfo.teamId,\n            charInfo.attack, charInfo.defense, charInfo.health, charInfo.hash) = IFwarChar(fwarCharAddress).getCharInfo(_nftId);\n        charInfo = getCharBaseInfo(_nftId, charInfo);\n        return charInfo;\n    }\n\n    /// @dev getCharBaseInfo\n    /// @param _nftId is the id of NFT\n    /// @param _charInfo is the struct info will be fill\n    function getCharBaseInfo(uint32 _nftId, CharInfo memory _charInfo) internal view returns (CharInfo memory){\n        (_charInfo.baseAttack, _charInfo.baseDefense, _charInfo.baseHealth) = IFwarChar(fwarCharAddress).getCharBaseInfo(_nftId);\n        return _charInfo;\n    }\n\n    /// @dev verifyBurnedNfts\n    /// @param _burnedNfts is the id of NFT\n    function verifyBurnedNfts(uint32 _mainNFTId, CharInfo memory _mainNFT, uint32[] memory _burnedNfts) internal view\n        returns (uint32 totalAttack, uint32 totalDefense, uint32 totalHealth, uint32 totalHash)\n    {\n        uint8 junkAmount;\n        uint8 normalAmount;\n        uint8 rareAmount;\n        uint8 baseAmount;\n\n        uint isMainStaking = IFwarMining(fwarMiningAddress).getStakingNFT(_mainNFTId);\n\n        for (uint i = 0; i < _burnedNfts.length; i++) {\n            require(_burnedNfts[i] != 0, \"burned NFTId error\");\n            require(IERC721(fwarCharAddress).ownerOf(_burnedNfts[i]) == _msgSender(), \"FWarCharDelegate: You have no permission\");\n\n            uint isBurnStaking = IFwarMining(fwarMiningAddress).getStakingNFT(_burnedNfts[i]);\n            require( (isMainStaking * isBurnStaking) > 0 || (isMainStaking==0 && isBurnStaking ==0), \"require same Staking or unStake status\");\n\n            CharInfo memory charInfo = getCharInfo(_burnedNfts[i]);\n\n            require(_mainNFT.teamId == charInfo.teamId, \"Burned NFT should have same team\");\n            require(_mainNFT.elementType == charInfo.elementType, \"Burned NFT should have same element\");         \n\n            if(charInfo.rarity == 1) {\n                junkAmount = junkAmount.add(1);\n            }\n            if(charInfo.rarity == 2) {\n                normalAmount = normalAmount.add(1);\n            }\n\n            if(charInfo.rarity == 3) {\n                rareAmount = rareAmount.add(1);\n            }\n\n            if(charInfo.rarity == _mainNFT.rarity) {\n                totalAttack = totalAttack.add(charInfo.attack);\n                totalDefense = totalDefense.add(charInfo.defense);\n                totalHealth = totalHealth.add(charInfo.health);\n                baseAmount = baseAmount.add(1);\n                if(_mainNFT.level<30){\n                    require(_mainNFT.level >= charInfo.level, 'Burned NFT should have level <= main NFT');\n                }else{\n                    require(_mainNFT.level == charInfo.level, 'Burned NFT should have same level');\n                }\n            }\n            totalHash = totalHash.add(charInfo.hash);\n        }\n\n        require(burnInfos[_mainNFT.rarity][_mainNFT.level].junkAmount == junkAmount, \"amount of junk is incorrect\");\n        require(burnInfos[_mainNFT.rarity][_mainNFT.level].normalAmount == normalAmount, \"amount of normal is incorrect\");\n        require(burnInfos[_mainNFT.rarity][_mainNFT.level].rareAmount == rareAmount, \"amount of rare is incorrect\");\n        require(burnInfos[_mainNFT.rarity][_mainNFT.level].baseAmount == baseAmount, \"amount of base is incorrect\");\n    }\n}\n",
  "sourcePath": "/Users/badung1870/Working/Node/fwar-contracts/Fwar/FwarChar/contracts/FwarCharDelegate.sol",
  "compiler": {
    "name": "solc",
    "version": "0.6.12+commit.27d51765.Emscripten.clang"
  },
  "schemaVersion": "3.4.3",
  "updatedAt": "2021-11-29T19:04:28.462Z",
  "networkType": "ethereum",
  "devdoc": {
    "kind": "dev",
    "methods": {
      "getRoleAdmin(bytes32)": {
        "details": "Returns the admin role that controls `role`. See {grantRole} and {revokeRole}. To change a role's admin, use {_setRoleAdmin}."
      },
      "getRoleMember(bytes32,uint256)": {
        "details": "Returns one of the accounts that have `role`. `index` must be a value between 0 and {getRoleMemberCount}, non-inclusive. Role bearers are not sorted in any particular way, and their ordering may change at any point. WARNING: When using {getRoleMember} and {getRoleMemberCount}, make sure you perform all queries on the same block. See the following https://forum.openzeppelin.com/t/iterating-over-elements-on-enumerableset-in-openzeppelin-contracts/2296[forum post] for more information."
      },
      "getRoleMemberCount(bytes32)": {
        "details": "Returns the number of accounts that have `role`. Can be used together with {getRoleMember} to enumerate all bearers of a role."
      },
      "grantRole(bytes32,address)": {
        "details": "Grants `role` to `account`. If `account` had not been already granted `role`, emits a {RoleGranted} event. Requirements: - the caller must have ``role``'s admin role."
      },
      "hasRole(bytes32,address)": {
        "details": "Returns `true` if `account` has been granted `role`."
      },
      "onERC721Received(address,address,uint256,bytes)": {
        "details": "See {IERC721Receiver-onERC721Received}. Always returns `IERC721Receiver.onERC721Received.selector`."
      },
      "renounceRole(bytes32,address)": {
        "details": "Revokes `role` from the calling account. Roles are often managed via {grantRole} and {revokeRole}: this function's purpose is to provide a mechanism for accounts to lose their privileges if they are compromised (such as when a trusted device is misplaced). If the calling account had been granted `role`, emits a {RoleRevoked} event. Requirements: - the caller must be `account`."
      },
      "revokeRole(bytes32,address)": {
        "details": "Revokes `role` from `account`. If `account` had been granted `role`, emits a {RoleRevoked} event. Requirements: - the caller must have ``role``'s admin role."
      },
      "upgrade(uint32,uint32[])": {
        "details": "upgrade is called by a user",
        "params": {
          "_burnedNfts": "is the array of nftId which use to burn for mainNFT",
          "_mainNFTId": "is the NFT Id of nft which want to upgrade"
        }
      }
    },
    "version": 1
  },
  "userdoc": {
    "kind": "user",
    "methods": {},
    "version": 1
  }
}