{
  "contractName": "FWarChar",
  "abi": [
    {
      "anonymous": false,
      "inputs": [
        {
          "indexed": true,
          "internalType": "address",
          "name": "owner",
          "type": "address"
        },
        {
          "indexed": true,
          "internalType": "address",
          "name": "approved",
          "type": "address"
        },
        {
          "indexed": true,
          "internalType": "uint256",
          "name": "tokenId",
          "type": "uint256"
        }
      ],
      "name": "Approval",
      "type": "event"
    },
    {
      "anonymous": false,
      "inputs": [
        {
          "indexed": true,
          "internalType": "address",
          "name": "owner",
          "type": "address"
        },
        {
          "indexed": true,
          "internalType": "address",
          "name": "operator",
          "type": "address"
        },
        {
          "indexed": false,
          "internalType": "bool",
          "name": "approved",
          "type": "bool"
        }
      ],
      "name": "ApprovalForAll",
      "type": "event"
    },
    {
      "anonymous": false,
      "inputs": [
        {
          "indexed": false,
          "internalType": "address",
          "name": "receiver",
          "type": "address"
        },
        {
          "indexed": true,
          "internalType": "uint32",
          "name": "tokenId",
          "type": "uint32"
        },
        {
          "indexed": false,
          "internalType": "uint8",
          "name": "level",
          "type": "uint8"
        },
        {
          "indexed": true,
          "internalType": "uint8",
          "name": "rarity",
          "type": "uint8"
        },
        {
          "indexed": true,
          "internalType": "uint8",
          "name": "elementType",
          "type": "uint8"
        },
        {
          "indexed": false,
          "internalType": "uint32",
          "name": "teamId",
          "type": "uint32"
        },
        {
          "indexed": false,
          "internalType": "uint32",
          "name": "attack",
          "type": "uint32"
        },
        {
          "indexed": false,
          "internalType": "uint32",
          "name": "defense",
          "type": "uint32"
        },
        {
          "indexed": false,
          "internalType": "uint32",
          "name": "health",
          "type": "uint32"
        },
        {
          "indexed": false,
          "internalType": "uint32",
          "name": "hash",
          "type": "uint32"
        }
      ],
      "name": "MintNFT",
      "type": "event"
    },
    {
      "anonymous": false,
      "inputs": [
        {
          "indexed": true,
          "internalType": "bytes32",
          "name": "role",
          "type": "bytes32"
        },
        {
          "indexed": true,
          "internalType": "bytes32",
          "name": "previousAdminRole",
          "type": "bytes32"
        },
        {
          "indexed": true,
          "internalType": "bytes32",
          "name": "newAdminRole",
          "type": "bytes32"
        }
      ],
      "name": "RoleAdminChanged",
      "type": "event"
    },
    {
      "anonymous": false,
      "inputs": [
        {
          "indexed": true,
          "internalType": "bytes32",
          "name": "role",
          "type": "bytes32"
        },
        {
          "indexed": true,
          "internalType": "address",
          "name": "account",
          "type": "address"
        },
        {
          "indexed": true,
          "internalType": "address",
          "name": "sender",
          "type": "address"
        }
      ],
      "name": "RoleGranted",
      "type": "event"
    },
    {
      "anonymous": false,
      "inputs": [
        {
          "indexed": true,
          "internalType": "bytes32",
          "name": "role",
          "type": "bytes32"
        },
        {
          "indexed": true,
          "internalType": "address",
          "name": "account",
          "type": "address"
        },
        {
          "indexed": true,
          "internalType": "address",
          "name": "sender",
          "type": "address"
        }
      ],
      "name": "RoleRevoked",
      "type": "event"
    },
    {
      "anonymous": false,
      "inputs": [
        {
          "indexed": true,
          "internalType": "address",
          "name": "from",
          "type": "address"
        },
        {
          "indexed": true,
          "internalType": "address",
          "name": "to",
          "type": "address"
        },
        {
          "indexed": true,
          "internalType": "uint256",
          "name": "tokenId",
          "type": "uint256"
        }
      ],
      "name": "Transfer",
      "type": "event"
    },
    {
      "anonymous": false,
      "inputs": [
        {
          "indexed": true,
          "internalType": "uint32",
          "name": "tokenId",
          "type": "uint32"
        },
        {
          "indexed": false,
          "internalType": "uint8",
          "name": "level",
          "type": "uint8"
        },
        {
          "indexed": false,
          "internalType": "uint32",
          "name": "attack",
          "type": "uint32"
        },
        {
          "indexed": false,
          "internalType": "uint32",
          "name": "defense",
          "type": "uint32"
        },
        {
          "indexed": false,
          "internalType": "uint32",
          "name": "health",
          "type": "uint32"
        },
        {
          "indexed": false,
          "internalType": "uint32",
          "name": "hash",
          "type": "uint32"
        }
      ],
      "name": "UpgradeNFT",
      "type": "event"
    },
    {
      "inputs": [],
      "name": "DEFAULT_ADMIN_ROLE",
      "outputs": [
        {
          "internalType": "bytes32",
          "name": "",
          "type": "bytes32"
        }
      ],
      "stateMutability": "view",
      "type": "function",
      "constant": true
    },
    {
      "inputs": [],
      "name": "MINTER_ROLE",
      "outputs": [
        {
          "internalType": "bytes32",
          "name": "",
          "type": "bytes32"
        }
      ],
      "stateMutability": "view",
      "type": "function",
      "constant": true
    },
    {
      "inputs": [],
      "name": "TRANSFER_ROLE",
      "outputs": [
        {
          "internalType": "bytes32",
          "name": "",
          "type": "bytes32"
        }
      ],
      "stateMutability": "view",
      "type": "function",
      "constant": true
    },
    {
      "inputs": [],
      "name": "UPGRADATOR_ROLE",
      "outputs": [
        {
          "internalType": "bytes32",
          "name": "",
          "type": "bytes32"
        }
      ],
      "stateMutability": "view",
      "type": "function",
      "constant": true
    },
    {
      "inputs": [
        {
          "internalType": "address",
          "name": "to",
          "type": "address"
        },
        {
          "internalType": "uint256",
          "name": "tokenId",
          "type": "uint256"
        }
      ],
      "name": "approve",
      "outputs": [],
      "stateMutability": "nonpayable",
      "type": "function"
    },
    {
      "inputs": [
        {
          "internalType": "address",
          "name": "owner",
          "type": "address"
        }
      ],
      "name": "balanceOf",
      "outputs": [
        {
          "internalType": "uint256",
          "name": "",
          "type": "uint256"
        }
      ],
      "stateMutability": "view",
      "type": "function",
      "constant": true
    },
    {
      "inputs": [],
      "name": "baseURI",
      "outputs": [
        {
          "internalType": "string",
          "name": "",
          "type": "string"
        }
      ],
      "stateMutability": "view",
      "type": "function",
      "constant": true
    },
    {
      "inputs": [
        {
          "internalType": "uint256",
          "name": "",
          "type": "uint256"
        }
      ],
      "name": "charInfos",
      "outputs": [
        {
          "internalType": "uint8",
          "name": "level",
          "type": "uint8"
        },
        {
          "internalType": "uint8",
          "name": "rarity",
          "type": "uint8"
        },
        {
          "internalType": "uint8",
          "name": "elementType",
          "type": "uint8"
        },
        {
          "internalType": "uint32",
          "name": "teamId",
          "type": "uint32"
        },
        {
          "internalType": "uint32",
          "name": "baseAttack",
          "type": "uint32"
        },
        {
          "internalType": "uint32",
          "name": "baseDefense",
          "type": "uint32"
        },
        {
          "internalType": "uint32",
          "name": "baseHealth",
          "type": "uint32"
        },
        {
          "internalType": "uint32",
          "name": "attack",
          "type": "uint32"
        },
        {
          "internalType": "uint32",
          "name": "defense",
          "type": "uint32"
        },
        {
          "internalType": "uint32",
          "name": "health",
          "type": "uint32"
        },
        {
          "internalType": "uint32",
          "name": "hash",
          "type": "uint32"
        }
      ],
      "stateMutability": "view",
      "type": "function",
      "constant": true
    },
    {
      "inputs": [
        {
          "internalType": "uint256",
          "name": "tokenId",
          "type": "uint256"
        }
      ],
      "name": "getApproved",
      "outputs": [
        {
          "internalType": "address",
          "name": "",
          "type": "address"
        }
      ],
      "stateMutability": "view",
      "type": "function",
      "constant": true
    },
    {
      "inputs": [
        {
          "internalType": "bytes32",
          "name": "role",
          "type": "bytes32"
        }
      ],
      "name": "getRoleAdmin",
      "outputs": [
        {
          "internalType": "bytes32",
          "name": "",
          "type": "bytes32"
        }
      ],
      "stateMutability": "view",
      "type": "function",
      "constant": true
    },
    {
      "inputs": [
        {
          "internalType": "bytes32",
          "name": "role",
          "type": "bytes32"
        },
        {
          "internalType": "uint256",
          "name": "index",
          "type": "uint256"
        }
      ],
      "name": "getRoleMember",
      "outputs": [
        {
          "internalType": "address",
          "name": "",
          "type": "address"
        }
      ],
      "stateMutability": "view",
      "type": "function",
      "constant": true
    },
    {
      "inputs": [
        {
          "internalType": "bytes32",
          "name": "role",
          "type": "bytes32"
        }
      ],
      "name": "getRoleMemberCount",
      "outputs": [
        {
          "internalType": "uint256",
          "name": "",
          "type": "uint256"
        }
      ],
      "stateMutability": "view",
      "type": "function",
      "constant": true
    },
    {
      "inputs": [
        {
          "internalType": "bytes32",
          "name": "role",
          "type": "bytes32"
        },
        {
          "internalType": "address",
          "name": "account",
          "type": "address"
        }
      ],
      "name": "grantRole",
      "outputs": [],
      "stateMutability": "nonpayable",
      "type": "function"
    },
    {
      "inputs": [
        {
          "internalType": "bytes32",
          "name": "role",
          "type": "bytes32"
        },
        {
          "internalType": "address",
          "name": "account",
          "type": "address"
        }
      ],
      "name": "hasRole",
      "outputs": [
        {
          "internalType": "bool",
          "name": "",
          "type": "bool"
        }
      ],
      "stateMutability": "view",
      "type": "function",
      "constant": true
    },
    {
      "inputs": [
        {
          "internalType": "address",
          "name": "owner",
          "type": "address"
        },
        {
          "internalType": "address",
          "name": "operator",
          "type": "address"
        }
      ],
      "name": "isApprovedForAll",
      "outputs": [
        {
          "internalType": "bool",
          "name": "",
          "type": "bool"
        }
      ],
      "stateMutability": "view",
      "type": "function",
      "constant": true
    },
    {
      "inputs": [],
      "name": "name",
      "outputs": [
        {
          "internalType": "string",
          "name": "",
          "type": "string"
        }
      ],
      "stateMutability": "view",
      "type": "function",
      "constant": true
    },
    {
      "inputs": [
        {
          "internalType": "uint256",
          "name": "",
          "type": "uint256"
        },
        {
          "internalType": "uint256",
          "name": "",
          "type": "uint256"
        },
        {
          "internalType": "uint256",
          "name": "",
          "type": "uint256"
        }
      ],
      "name": "nftURI",
      "outputs": [
        {
          "internalType": "string",
          "name": "",
          "type": "string"
        }
      ],
      "stateMutability": "view",
      "type": "function",
      "constant": true
    },
    {
      "inputs": [
        {
          "internalType": "uint256",
          "name": "tokenId",
          "type": "uint256"
        }
      ],
      "name": "ownerOf",
      "outputs": [
        {
          "internalType": "address",
          "name": "",
          "type": "address"
        }
      ],
      "stateMutability": "view",
      "type": "function",
      "constant": true
    },
    {
      "inputs": [
        {
          "internalType": "bytes32",
          "name": "role",
          "type": "bytes32"
        },
        {
          "internalType": "address",
          "name": "account",
          "type": "address"
        }
      ],
      "name": "renounceRole",
      "outputs": [],
      "stateMutability": "nonpayable",
      "type": "function"
    },
    {
      "inputs": [
        {
          "internalType": "bytes32",
          "name": "role",
          "type": "bytes32"
        },
        {
          "internalType": "address",
          "name": "account",
          "type": "address"
        }
      ],
      "name": "revokeRole",
      "outputs": [],
      "stateMutability": "nonpayable",
      "type": "function"
    },
    {
      "inputs": [
        {
          "internalType": "address",
          "name": "from",
          "type": "address"
        },
        {
          "internalType": "address",
          "name": "to",
          "type": "address"
        },
        {
          "internalType": "uint256",
          "name": "tokenId",
          "type": "uint256"
        }
      ],
      "name": "safeTransferFrom",
      "outputs": [],
      "stateMutability": "nonpayable",
      "type": "function"
    },
    {
      "inputs": [
        {
          "internalType": "address",
          "name": "from",
          "type": "address"
        },
        {
          "internalType": "address",
          "name": "to",
          "type": "address"
        },
        {
          "internalType": "uint256",
          "name": "tokenId",
          "type": "uint256"
        },
        {
          "internalType": "bytes",
          "name": "_data",
          "type": "bytes"
        }
      ],
      "name": "safeTransferFrom",
      "outputs": [],
      "stateMutability": "nonpayable",
      "type": "function"
    },
    {
      "inputs": [
        {
          "internalType": "address",
          "name": "operator",
          "type": "address"
        },
        {
          "internalType": "bool",
          "name": "approved",
          "type": "bool"
        }
      ],
      "name": "setApprovalForAll",
      "outputs": [],
      "stateMutability": "nonpayable",
      "type": "function"
    },
    {
      "inputs": [
        {
          "internalType": "bytes4",
          "name": "interfaceId",
          "type": "bytes4"
        }
      ],
      "name": "supportsInterface",
      "outputs": [
        {
          "internalType": "bool",
          "name": "",
          "type": "bool"
        }
      ],
      "stateMutability": "view",
      "type": "function",
      "constant": true
    },
    {
      "inputs": [],
      "name": "symbol",
      "outputs": [
        {
          "internalType": "string",
          "name": "",
          "type": "string"
        }
      ],
      "stateMutability": "view",
      "type": "function",
      "constant": true
    },
    {
      "inputs": [
        {
          "internalType": "uint256",
          "name": "index",
          "type": "uint256"
        }
      ],
      "name": "tokenByIndex",
      "outputs": [
        {
          "internalType": "uint256",
          "name": "",
          "type": "uint256"
        }
      ],
      "stateMutability": "view",
      "type": "function",
      "constant": true
    },
    {
      "inputs": [
        {
          "internalType": "address",
          "name": "owner",
          "type": "address"
        },
        {
          "internalType": "uint256",
          "name": "index",
          "type": "uint256"
        }
      ],
      "name": "tokenOfOwnerByIndex",
      "outputs": [
        {
          "internalType": "uint256",
          "name": "",
          "type": "uint256"
        }
      ],
      "stateMutability": "view",
      "type": "function",
      "constant": true
    },
    {
      "inputs": [
        {
          "internalType": "uint256",
          "name": "tokenId",
          "type": "uint256"
        }
      ],
      "name": "tokenURI",
      "outputs": [
        {
          "internalType": "string",
          "name": "",
          "type": "string"
        }
      ],
      "stateMutability": "view",
      "type": "function",
      "constant": true
    },
    {
      "inputs": [],
      "name": "totalSupply",
      "outputs": [
        {
          "internalType": "uint256",
          "name": "",
          "type": "uint256"
        }
      ],
      "stateMutability": "view",
      "type": "function",
      "constant": true
    },
    {
      "inputs": [
        {
          "internalType": "address",
          "name": "from",
          "type": "address"
        },
        {
          "internalType": "address",
          "name": "to",
          "type": "address"
        },
        {
          "internalType": "uint256",
          "name": "tokenId",
          "type": "uint256"
        }
      ],
      "name": "transferFrom",
      "outputs": [],
      "stateMutability": "nonpayable",
      "type": "function"
    },
    {
      "inputs": [
        {
          "internalType": "address",
          "name": "admin",
          "type": "address"
        }
      ],
      "name": "initialize",
      "outputs": [],
      "stateMutability": "payable",
      "type": "function",
      "payable": true
    },
    {
      "inputs": [
        {
          "internalType": "uint32",
          "name": "_id",
          "type": "uint32"
        }
      ],
      "name": "getCharInfo",
      "outputs": [
        {
          "internalType": "uint8",
          "name": "level",
          "type": "uint8"
        },
        {
          "internalType": "uint8",
          "name": "rarity",
          "type": "uint8"
        },
        {
          "internalType": "uint8",
          "name": "elementType",
          "type": "uint8"
        },
        {
          "internalType": "uint32",
          "name": "teamId",
          "type": "uint32"
        },
        {
          "internalType": "uint32",
          "name": "attack",
          "type": "uint32"
        },
        {
          "internalType": "uint32",
          "name": "defense",
          "type": "uint32"
        },
        {
          "internalType": "uint32",
          "name": "health",
          "type": "uint32"
        },
        {
          "internalType": "uint32",
          "name": "hash",
          "type": "uint32"
        }
      ],
      "stateMutability": "view",
      "type": "function",
      "constant": true
    },
    {
      "inputs": [
        {
          "internalType": "uint256",
          "name": "_id",
          "type": "uint256"
        }
      ],
      "name": "getCharFullInfo",
      "outputs": [
        {
          "internalType": "uint8",
          "name": "level",
          "type": "uint8"
        },
        {
          "internalType": "uint8",
          "name": "rarity",
          "type": "uint8"
        },
        {
          "internalType": "uint8",
          "name": "elementType",
          "type": "uint8"
        },
        {
          "internalType": "uint32",
          "name": "teamId",
          "type": "uint32"
        },
        {
          "internalType": "uint32",
          "name": "baseAttack",
          "type": "uint32"
        },
        {
          "internalType": "uint32",
          "name": "baseDefense",
          "type": "uint32"
        },
        {
          "internalType": "uint32",
          "name": "baseHealth",
          "type": "uint32"
        },
        {
          "internalType": "uint32",
          "name": "attack",
          "type": "uint32"
        },
        {
          "internalType": "uint32",
          "name": "defense",
          "type": "uint32"
        },
        {
          "internalType": "uint32",
          "name": "health",
          "type": "uint32"
        },
        {
          "internalType": "uint32",
          "name": "hash",
          "type": "uint32"
        }
      ],
      "stateMutability": "view",
      "type": "function",
      "constant": true
    },
    {
      "inputs": [
        {
          "internalType": "uint32",
          "name": "_id",
          "type": "uint32"
        }
      ],
      "name": "getCharBaseInfo",
      "outputs": [
        {
          "internalType": "uint32",
          "name": "baseAttack",
          "type": "uint32"
        },
        {
          "internalType": "uint32",
          "name": "baseDefense",
          "type": "uint32"
        },
        {
          "internalType": "uint32",
          "name": "baseHealth",
          "type": "uint32"
        }
      ],
      "stateMutability": "view",
      "type": "function",
      "constant": true
    },
    {
      "inputs": [
        {
          "internalType": "uint32",
          "name": "_id",
          "type": "uint32"
        }
      ],
      "name": "getHash",
      "outputs": [
        {
          "internalType": "uint32",
          "name": "hash",
          "type": "uint32"
        }
      ],
      "stateMutability": "view",
      "type": "function",
      "constant": true
    },
    {
      "inputs": [
        {
          "internalType": "address",
          "name": "_receiver",
          "type": "address"
        },
        {
          "internalType": "uint32",
          "name": "_id",
          "type": "uint32"
        },
        {
          "internalType": "uint8",
          "name": "_level",
          "type": "uint8"
        },
        {
          "internalType": "uint8",
          "name": "_rarity",
          "type": "uint8"
        },
        {
          "internalType": "uint8",
          "name": "_elementType",
          "type": "uint8"
        },
        {
          "internalType": "uint32",
          "name": "_teamId",
          "type": "uint32"
        },
        {
          "internalType": "uint32",
          "name": "_attack",
          "type": "uint32"
        },
        {
          "internalType": "uint32",
          "name": "_defense",
          "type": "uint32"
        },
        {
          "internalType": "uint32",
          "name": "_health",
          "type": "uint32"
        },
        {
          "internalType": "uint32",
          "name": "_hash",
          "type": "uint32"
        }
      ],
      "name": "mint",
      "outputs": [],
      "stateMutability": "nonpayable",
      "type": "function"
    },
    {
      "inputs": [
        {
          "internalType": "uint32",
          "name": "_tokenId",
          "type": "uint32"
        }
      ],
      "name": "burn",
      "outputs": [],
      "stateMutability": "nonpayable",
      "type": "function"
    },
    {
      "inputs": [
        {
          "internalType": "uint32",
          "name": "_id",
          "type": "uint32"
        },
        {
          "internalType": "uint8",
          "name": "_level",
          "type": "uint8"
        },
        {
          "internalType": "uint32",
          "name": "_attack",
          "type": "uint32"
        },
        {
          "internalType": "uint32",
          "name": "_defense",
          "type": "uint32"
        },
        {
          "internalType": "uint32",
          "name": "_health",
          "type": "uint32"
        },
        {
          "internalType": "uint32",
          "name": "_hash",
          "type": "uint32"
        }
      ],
      "name": "upgrade",
      "outputs": [],
      "stateMutability": "nonpayable",
      "type": "function"
    }
  ],
  "bytecode": "0x60806040523480156200001157600080fd5b506040518060400160405280600881526020017f46776172436861720000000000000000000000000000000000000000000000008152506040518060400160405280600381526020017f4657430000000000000000000000000000000000000000000000000000000000815250620000966301ffc9a760e01b6200011860201b60201c565b8160069080519060200190620000ae92919062000221565b508060079080519060200190620000c792919062000221565b50620000e06380ac58cd60e01b6200011860201b60201c565b620000f8635b5e139f60e01b6200011860201b60201c565b6200011063780e9d6360e01b6200011860201b60201c565b5050620002c7565b63ffffffff60e01b817bffffffffffffffffffffffffffffffffffffffffffffffffffffffff19161415620001b5576040517f08c379a000000000000000000000000000000000000000000000000000000000815260040180806020018281038252601c8152602001807f4552433136353a20696e76616c696420696e746572666163652069640000000081525060200191505060405180910390fd5b6001600080837bffffffffffffffffffffffffffffffffffffffffffffffffffffffff19167bffffffffffffffffffffffffffffffffffffffffffffffffffffffff1916815260200190815260200160002060006101000a81548160ff02191690831515021790555050565b828054600181600116156101000203166002900490600052602060002090601f016020900481019282601f106200026457805160ff191683800117855562000295565b8280016001018555821562000295579182015b828111156200029457825182559160200191906001019062000277565b5b509050620002a49190620002a8565b5090565b5b80821115620002c3576000816000905550600101620002a9565b5090565b614b6c80620002d76000396000f3fe6080604052600436106102255760003560e01c80637d37048c11610123578063c87b56dd116100ab578063db69323a1161006f578063db69323a14611014578063df8a78da146110dc578063e985e9c514611137578063f86f491e146111be578063fb9397b41461129757610225565b8063c87b56dd14610dbd578063ca15c87314610e71578063d4f0053314610ec0578063d539139314610f8e578063d547741f14610fb957610225565b8063a217fddf116100f2578063a217fddf14610b6a578063a22cb46514610b95578063abafa8f114610bf2578063b88d4fde14610c67578063c4d66de814610d7957610225565b80637d37048c1461094d5780639010d07c146109fa57806391d1485414610a6957806395d89b4114610ada57610225565b80632f745c59116101b15780634f6ccce7116101755780634f6ccce7146107635780636352211e146107b25780636c0360eb1461081757806370a08231146108a75780637a5984c41461090c57610225565b80632f745c591461056557806336568abe146105d457806342842e0e1461062f57806342b6f7c2146106aa57806346a65bc4146106d557610225565b806318160ddd116101f857806318160ddd146103ea578063206b60f91461041557806323b872dd14610440578063248a9ca3146104bb5780632f2ff15d1461050a57610225565b806301ffc9a71461022a57806306fdde031461029a578063081812fc1461032a578063095ea7b31461038f575b600080fd5b34801561023657600080fd5b506102826004803603602081101561024d57600080fd5b8101908080357bffffffffffffffffffffffffffffffffffffffffffffffffffffffff19169060200190929190505050611365565b60405180821515815260200191505060405180910390f35b3480156102a657600080fd5b506102af6113cc565b6040518080602001828103825283818151815260200191508051906020019080838360005b838110156102ef5780820151818401526020810190506102d4565b50505050905090810190601f16801561031c5780820380516001836020036101000a031916815260200191505b509250505060405180910390f35b34801561033657600080fd5b506103636004803603602081101561034d57600080fd5b810190808035906020019092919050505061146e565b604051808273ffffffffffffffffffffffffffffffffffffffff16815260200191505060405180910390f35b34801561039b57600080fd5b506103e8600480360360408110156103b257600080fd5b81019080803573ffffffffffffffffffffffffffffffffffffffff16906020019092919080359060200190929190505050611509565b005b3480156103f657600080fd5b506103ff61164d565b6040518082815260200191505060405180910390f35b34801561042157600080fd5b5061042a61165e565b6040518082815260200191505060405180910390f35b34801561044c57600080fd5b506104b96004803603606081101561046357600080fd5b81019080803573ffffffffffffffffffffffffffffffffffffffff169060200190929190803573ffffffffffffffffffffffffffffffffffffffff16906020019092919080359060200190929190505050611682565b005b3480156104c757600080fd5b506104f4600480360360208110156104de57600080fd5b81019080803590602001909291905050506116f8565b6040518082815260200191505060405180910390f35b34801561051657600080fd5b506105636004803603604081101561052d57600080fd5b8101908080359060200190929190803573ffffffffffffffffffffffffffffffffffffffff169060200190929190505050611718565b005b34801561057157600080fd5b506105be6004803603604081101561058857600080fd5b81019080803573ffffffffffffffffffffffffffffffffffffffff169060200190929190803590602001909291905050506117a2565b6040518082815260200191505060405180910390f35b3480156105e057600080fd5b5061062d600480360360408110156105f757600080fd5b8101908080359060200190929190803573ffffffffffffffffffffffffffffffffffffffff1690602001909291905050506117fd565b005b34801561063b57600080fd5b506106a86004803603606081101561065257600080fd5b81019080803573ffffffffffffffffffffffffffffffffffffffff169060200190929190803573ffffffffffffffffffffffffffffffffffffffff16906020019092919080359060200190929190505050611896565b005b3480156106b657600080fd5b506106bf6118b6565b6040518082815260200191505060405180910390f35b3480156106e157600080fd5b50610761600480360360c08110156106f857600080fd5b81019080803563ffffffff169060200190929190803560ff169060200190929190803563ffffffff169060200190929190803563ffffffff169060200190929190803563ffffffff169060200190929190803563ffffffff1690602001909291905050506118da565b005b34801561076f57600080fd5b5061079c6004803603602081101561078657600080fd5b8101908080359060200190929190505050611b1f565b6040518082815260200191505060405180910390f35b3480156107be57600080fd5b506107eb600480360360208110156107d557600080fd5b8101908080359060200190929190505050611b42565b604051808273ffffffffffffffffffffffffffffffffffffffff16815260200191505060405180910390f35b34801561082357600080fd5b5061082c611b79565b6040518080602001828103825283818151815260200191508051906020019080838360005b8381101561086c578082015181840152602081019050610851565b50505050905090810190601f1680156108995780820380516001836020036101000a031916815260200191505b509250505060405180910390f35b3480156108b357600080fd5b506108f6600480360360208110156108ca57600080fd5b81019080803573ffffffffffffffffffffffffffffffffffffffff169060200190929190505050611c1b565b6040518082815260200191505060405180910390f35b34801561091857600080fd5b5061094b6004803603602081101561092f57600080fd5b81019080803563ffffffff169060200190929190505050611cf0565b005b34801561095957600080fd5b5061098c6004803603602081101561097057600080fd5b81019080803563ffffffff169060200190929190505050611d6e565b604051808960ff1681526020018860ff1681526020018760ff1681526020018663ffffffff1681526020018563ffffffff1681526020018463ffffffff1681526020018363ffffffff1681526020018263ffffffff1681526020019850505050505050505060405180910390f35b348015610a0657600080fd5b50610a3d60048036036040811015610a1d57600080fd5b810190808035906020019092919080359060200190929190505050611e52565b604051808273ffffffffffffffffffffffffffffffffffffffff16815260200191505060405180910390f35b348015610a7557600080fd5b50610ac260048036036040811015610a8c57600080fd5b8101908080359060200190929190803573ffffffffffffffffffffffffffffffffffffffff169060200190929190505050611e84565b60405180821515815260200191505060405180910390f35b348015610ae657600080fd5b50610aef611eb6565b6040518080602001828103825283818151815260200191508051906020019080838360005b83811015610b2f578082015181840152602081019050610b14565b50505050905090810190601f168015610b5c5780820380516001836020036101000a031916815260200191505b509250505060405180910390f35b348015610b7657600080fd5b50610b7f611f58565b6040518082815260200191505060405180910390f35b348015610ba157600080fd5b50610bf060048036036040811015610bb857600080fd5b81019080803573ffffffffffffffffffffffffffffffffffffffff169060200190929190803515159060200190929190505050611f5f565b005b348015610bfe57600080fd5b50610c3160048036036020811015610c1557600080fd5b81019080803563ffffffff169060200190929190505050612115565b604051808463ffffffff1681526020018363ffffffff1681526020018263ffffffff168152602001935050505060405180910390f35b348015610c7357600080fd5b50610d7760048036036080811015610c8a57600080fd5b81019080803573ffffffffffffffffffffffffffffffffffffffff169060200190929190803573ffffffffffffffffffffffffffffffffffffffff1690602001909291908035906020019092919080359060200190640100000000811115610cf157600080fd5b820183602082011115610d0357600080fd5b80359060200191846001830284011164010000000083111715610d2557600080fd5b91908080601f016020809104026020016040519081016040528093929190818152602001838380828437600081840152601f19601f820116905080830192505050505050509192919290505050612183565b005b610dbb60048036036020811015610d8f57600080fd5b81019080803573ffffffffffffffffffffffffffffffffffffffff1690602001909291905050506121fb565b005b348015610dc957600080fd5b50610df660048036036020811015610de057600080fd5b8101908080359060200190929190505050612393565b6040518080602001828103825283818151815260200191508051906020019080838360005b83811015610e36578082015181840152602081019050610e1b565b50505050905090810190601f168015610e635780820380516001836020036101000a031916815260200191505b509250505060405180910390f35b348015610e7d57600080fd5b50610eaa60048036036020811015610e9457600080fd5b8101908080359060200190929190505050612664565b6040518082815260200191505060405180910390f35b348015610ecc57600080fd5b50610ef960048036036020811015610ee357600080fd5b810190808035906020019092919050505061268b565b604051808c60ff1681526020018b60ff1681526020018a60ff1681526020018963ffffffff1681526020018863ffffffff1681526020018763ffffffff1681526020018663ffffffff1681526020018563ffffffff1681526020018463ffffffff1681526020018363ffffffff1681526020018263ffffffff1681526020019b50505050505050505050505060405180910390f35b348015610f9a57600080fd5b50610fa36127b6565b6040518082815260200191505060405180910390f35b348015610fc557600080fd5b5061101260048036036040811015610fdc57600080fd5b8101908080359060200190929190803573ffffffffffffffffffffffffffffffffffffffff1690602001909291905050506127da565b005b34801561102057600080fd5b506110616004803603606081101561103757600080fd5b81019080803590602001909291908035906020019092919080359060200190929190505050612864565b6040518080602001828103825283818151815260200191508051906020019080838360005b838110156110a1578082015181840152602081019050611086565b50505050905090810190601f1680156110ce5780820380516001836020036101000a031916815260200191505b509250505060405180910390f35b3480156110e857600080fd5b5061111b600480360360208110156110ff57600080fd5b81019080803563ffffffff16906020019092919050505061292e565b604051808263ffffffff16815260200191505060405180910390f35b34801561114357600080fd5b506111a66004803603604081101561115a57600080fd5b81019080803573ffffffffffffffffffffffffffffffffffffffff169060200190929190803573ffffffffffffffffffffffffffffffffffffffff169060200190929190505050612969565b60405180821515815260200191505060405180910390f35b3480156111ca57600080fd5b5061129560048036036101408110156111e257600080fd5b81019080803573ffffffffffffffffffffffffffffffffffffffff169060200190929190803563ffffffff169060200190929190803560ff169060200190929190803560ff169060200190929190803560ff169060200190929190803563ffffffff169060200190929190803563ffffffff169060200190929190803563ffffffff169060200190929190803563ffffffff169060200190929190803563ffffffff1690602001909291905050506129fd565b005b3480156112a357600080fd5b506112d0600480360360208110156112ba57600080fd5b8101908080359060200190929190505050612d3d565b604051808c60ff1681526020018b60ff1681526020018a60ff1681526020018963ffffffff1681526020018863ffffffff1681526020018763ffffffff1681526020018663ffffffff1681526020018563ffffffff1681526020018463ffffffff1681526020018363ffffffff1681526020018263ffffffff1681526020019b50505050505050505050505060405180910390f35b6000806000837bffffffffffffffffffffffffffffffffffffffffffffffffffffffff19167bffffffffffffffffffffffffffffffffffffffffffffffffffffffff1916815260200190815260200160002060009054906101000a900460ff169050919050565b606060068054600181600116156101000203166002900480601f0160208091040260200160405190810160405280929190818152602001828054600181600116156101000203166002900480156114645780601f1061143957610100808354040283529160200191611464565b820191906000526020600020905b81548152906001019060200180831161144757829003601f168201915b5050505050905090565b600061147982612e3e565b6114ce576040517f08c379a000000000000000000000000000000000000000000000000000000000815260040180806020018281038252602c815260200180614a04602c913960400191505060405180910390fd5b6004600083815260200190815260200160002060009054906101000a900473ffffffffffffffffffffffffffffffffffffffff169050919050565b600061151482611b42565b90508073ffffffffffffffffffffffffffffffffffffffff168373ffffffffffffffffffffffffffffffffffffffff16141561159b576040517f08c379a0000000000000000000000000000000000000000000000000000000008152600401808060200182810382526021815260200180614a886021913960400191505060405180910390fd5b8073ffffffffffffffffffffffffffffffffffffffff166115ba612e5b565b73ffffffffffffffffffffffffffffffffffffffff1614806115e957506115e8816115e3612e5b565b612969565b5b61163e576040517f08c379a00000000000000000000000000000000000000000000000000000000081526004018080602001828103825260388152602001806149296038913960400191505060405180910390fd5b6116488383612e63565b505050565b60006116596002612f1c565b905090565b7f8502233096d909befbda0999bb8ea2f3a6be3c138b9fbf003752a4c8bce86f6c81565b61169361168d612e5b565b82612f31565b6116e8576040517f08c379a0000000000000000000000000000000000000000000000000000000008152600401808060200182810382526031815260200180614aa96031913960400191505060405180910390fd5b6116f3838383613025565b505050565b6000600b6000838152602001908152602001600020600201549050919050565b61173f600b60008481526020019081526020016000206002015461173a612e5b565b611e84565b611794576040517f08c379a000000000000000000000000000000000000000000000000000000000815260040180806020018281038252602f815260200180614822602f913960400191505060405180910390fd5b61179e8282613268565b5050565b60006117f582600160008673ffffffffffffffffffffffffffffffffffffffff1673ffffffffffffffffffffffffffffffffffffffff1681526020019081526020016000206132fc90919063ffffffff16565b905092915050565b611805612e5b565b73ffffffffffffffffffffffffffffffffffffffff168173ffffffffffffffffffffffffffffffffffffffff1614611888576040517f08c379a000000000000000000000000000000000000000000000000000000000815260040180806020018281038252602f815260200180614b08602f913960400191505060405180910390fd5b6118928282613316565b5050565b6118b183838360405180602001604052806000815250612183565b505050565b7fa48978b4005c636910d4509d0b2cba835948bfd426c647cce40bbbec61dd636181565b61190b7fa48978b4005c636910d4509d0b2cba835948bfd426c647cce40bbbec61dd6361611906612e5b565b611e84565b61197d576040517f08c379a000000000000000000000000000000000000000000000000000000000815260040180806020018281038252601e8152602001807f4657433a205570677261646520726f6c6520697320726571756972656421000081525060200191505060405180910390fd5b84600c60008863ffffffff16815260200190815260200160002060000160006101000a81548160ff021916908360ff16021790555083600c60008863ffffffff16815260200190815260200160002060000160136101000a81548163ffffffff021916908363ffffffff16021790555082600c60008863ffffffff16815260200190815260200160002060000160176101000a81548163ffffffff021916908363ffffffff16021790555081600c60008863ffffffff168152602001908152602001600020600001601b6101000a81548163ffffffff021916908363ffffffff16021790555080600c60008863ffffffff16815260200190815260200160002060010160006101000a81548163ffffffff021916908363ffffffff1602179055508563ffffffff167f3e58738456054eb1c10572851a5bad8f22e0776b5d57b1d0ddbdc5e26178695d8686868686604051808660ff1681526020018563ffffffff1681526020018463ffffffff1681526020018363ffffffff1681526020018263ffffffff1681526020019550505050505060405180910390a2505050505050565b600080611b368360026133aa90919063ffffffff16565b50905080915050919050565b6000611b728260405180606001604052806029815260200161498b6029913960026133d69092919063ffffffff16565b9050919050565b606060098054600181600116156101000203166002900480601f016020809104026020016040519081016040528092919081815260200182805460018160011615610100020316600290048015611c115780601f10611be657610100808354040283529160200191611c11565b820191906000526020600020905b815481529060010190602001808311611bf457829003601f168201915b5050505050905090565b60008073ffffffffffffffffffffffffffffffffffffffff168273ffffffffffffffffffffffffffffffffffffffff161415611ca2576040517f08c379a000000000000000000000000000000000000000000000000000000000815260040180806020018281038252602a815260200180614961602a913960400191505060405180910390fd5b611ce9600160008473ffffffffffffffffffffffffffffffffffffffff1673ffffffffffffffffffffffffffffffffffffffff1681526020019081526020016000206133f5565b9050919050565b611d07611cfb612e5b565b8263ffffffff16612f31565b611d5c576040517f08c379a000000000000000000000000000000000000000000000000000000000815260040180806020018281038252602e815260200180614ada602e913960400191505060405180910390fd5b611d6b8163ffffffff1661340a565b50565b6000806000806000806000806000600c60008b63ffffffff16815260200190815260200160002090508060000160009054906101000a900460ff168160000160019054906101000a900460ff168260000160029054906101000a900460ff168360000160039054906101000a900463ffffffff168460000160139054906101000a900463ffffffff168560000160179054906101000a900463ffffffff1686600001601b9054906101000a900463ffffffff168760010160009054906101000a900463ffffffff169850985098509850985098509850985050919395975091939597565b6000611e7c82600b600086815260200190815260200160002060000161354490919063ffffffff16565b905092915050565b6000611eae82600b600086815260200190815260200160002060000161355e90919063ffffffff16565b905092915050565b606060078054600181600116156101000203166002900480601f016020809104026020016040519081016040528092919081815260200182805460018160011615610100020316600290048015611f4e5780601f10611f2357610100808354040283529160200191611f4e565b820191906000526020600020905b815481529060010190602001808311611f3157829003601f168201915b5050505050905090565b6000801b81565b611f67612e5b565b73ffffffffffffffffffffffffffffffffffffffff168273ffffffffffffffffffffffffffffffffffffffff161415612008576040517f08c379a00000000000000000000000000000000000000000000000000000000081526004018080602001828103825260198152602001807f4552433732313a20617070726f766520746f2063616c6c65720000000000000081525060200191505060405180910390fd5b8060056000612015612e5b565b73ffffffffffffffffffffffffffffffffffffffff1673ffffffffffffffffffffffffffffffffffffffff16815260200190815260200160002060008473ffffffffffffffffffffffffffffffffffffffff1673ffffffffffffffffffffffffffffffffffffffff16815260200190815260200160002060006101000a81548160ff0219169083151502179055508173ffffffffffffffffffffffffffffffffffffffff166120c2612e5b565b73ffffffffffffffffffffffffffffffffffffffff167f17307eab39ab6107e8899845ad3d59bd9653f200f220920489ca2b5937696c318360405180821515815260200191505060405180910390a35050565b600080600080600c60008663ffffffff16815260200190815260200160002090508060000160079054906101000a900463ffffffff1681600001600b9054906101000a900463ffffffff1682600001600f9054906101000a900463ffffffff16935093509350509193909250565b61219461218e612e5b565b83612f31565b6121e9576040517f08c379a0000000000000000000000000000000000000000000000000000000008152600401808060200182810382526031815260200180614aa96031913960400191505060405180910390fd5b6121f58484848461358e565b50505050565b600a60019054906101000a900460ff168061221a5750612219613600565b5b806122325750600a60009054906101000a900460ff16155b612287576040517f08c379a000000000000000000000000000000000000000000000000000000000815260040180806020018281038252602e8152602001806149b4602e913960400191505060405180910390fd5b6000600a60019054906101000a900460ff1615905080156122d9576001600a60016101000a81548160ff0219169083151502179055506001600a60006101000a81548160ff0219169083151502179055505b6122e66000801b83613611565b6123137f9f2df0fed2c77648de5860a4cc508cd0818c85b8b8a1ab4ceeef8d981c8956a66000801b61361f565b6123407fa48978b4005c636910d4509d0b2cba835948bfd426c647cce40bbbec61dd63616000801b61361f565b61236d7f8502233096d909befbda0999bb8ea2f3a6be3c138b9fbf003752a4c8bce86f6c6000801b61361f565b801561238f576000600a60016101000a81548160ff0219169083151502179055505b5050565b606061239e82612e3e565b6123f3576040517f08c379a000000000000000000000000000000000000000000000000000000000815260040180806020018281038252602f815260200180614a59602f913960400191505060405180910390fd5b6060600860008481526020019081526020016000208054600181600116156101000203166002900480601f01602080910402602001604051908101604052809291908181526020018280546001816001161561010002031660029004801561249c5780601f106124715761010080835404028352916020019161249c565b820191906000526020600020905b81548152906001019060200180831161247f57829003601f168201915b5050505050905060606124ad611b79565b90506000815114156124c357819250505061265f565b6000825111156125945780826040516020018083805190602001908083835b6020831061250557805182526020820191506020810190506020830392506124e2565b6001836020036101000a03801982511681845116808217855250505050505090500182805190602001908083835b602083106125565780518252602082019150602081019050602083039250612533565b6001836020036101000a038019825116818451168082178552505050505050905001925050506040516020818303038152906040529250505061265f565b8061259e85613683565b6040516020018083805190602001908083835b602083106125d457805182526020820191506020810190506020830392506125b1565b6001836020036101000a03801982511681845116808217855250505050505090500182805190602001908083835b602083106126255780518252602082019150602081019050602083039250612602565b6001836020036101000a03801982511681845116808217855250505050505090500192505050604051602081830303815290604052925050505b919050565b6000612684600b60008481526020019081526020016000206000016137ca565b9050919050565b600080600080600080600080600080600080600c60008e815260200190815260200160002090508060000160009054906101000a900460ff168160000160019054906101000a900460ff168260000160029054906101000a900460ff168360000160039054906101000a900463ffffffff168460000160079054906101000a900463ffffffff1685600001600b9054906101000a900463ffffffff1686600001600f9054906101000a900463ffffffff168760000160139054906101000a900463ffffffff168860000160179054906101000a900463ffffffff1689600001601b9054906101000a900463ffffffff168a60010160009054906101000a900463ffffffff169b509b509b509b509b509b509b509b509b509b509b505091939597999b90929496989a50565b7f9f2df0fed2c77648de5860a4cc508cd0818c85b8b8a1ab4ceeef8d981c8956a681565b612801600b6000848152602001908152602001600020600201546127fc612e5b565b611e84565b612856576040517f08c379a00000000000000000000000000000000000000000000000000000000081526004018080602001828103825260308152602001806148f96030913960400191505060405180910390fd5b6128608282613316565b5050565b600d60205282600052604060002060205281600052604060002060205280600052604060002060009250925050508054600181600116156101000203166002900480601f0160208091040260200160405190810160405280929190818152602001828054600181600116156101000203166002900480156129265780601f106128fb57610100808354040283529160200191612926565b820191906000526020600020905b81548152906001019060200180831161290957829003601f168201915b505050505081565b600080600c60008463ffffffff16815260200190815260200160002090508060010160009054906101000a900463ffffffff16915050919050565b6000600560008473ffffffffffffffffffffffffffffffffffffffff1673ffffffffffffffffffffffffffffffffffffffff16815260200190815260200160002060008373ffffffffffffffffffffffffffffffffffffffff1673ffffffffffffffffffffffffffffffffffffffff16815260200190815260200160002060009054906101000a900460ff16905092915050565b612a0d8a8a63ffffffff166137df565b87600c60008b63ffffffff16815260200190815260200160002060000160006101000a81548160ff021916908360ff16021790555086600c60008b63ffffffff16815260200190815260200160002060000160016101000a81548160ff021916908360ff16021790555085600c60008b63ffffffff16815260200190815260200160002060000160026101000a81548160ff021916908360ff16021790555084600c60008b63ffffffff16815260200190815260200160002060000160036101000a81548163ffffffff021916908363ffffffff16021790555083600c60008b63ffffffff16815260200190815260200160002060000160076101000a81548163ffffffff021916908363ffffffff16021790555082600c60008b63ffffffff168152602001908152602001600020600001600b6101000a81548163ffffffff021916908363ffffffff16021790555081600c60008b63ffffffff168152602001908152602001600020600001600f6101000a81548163ffffffff021916908363ffffffff16021790555083600c60008b63ffffffff16815260200190815260200160002060000160136101000a81548163ffffffff021916908363ffffffff16021790555082600c60008b63ffffffff16815260200190815260200160002060000160176101000a81548163ffffffff021916908363ffffffff16021790555081600c60008b63ffffffff168152602001908152602001600020600001601b6101000a81548163ffffffff021916908363ffffffff16021790555080600c60008b63ffffffff16815260200190815260200160002060010160006101000a81548163ffffffff021916908363ffffffff1602179055508560ff168760ff168a63ffffffff167f264276b1c99a61590d3f1d6a51e9c550098d73a539cba8881f566d7e7a09f8638d8c8a8a8a8a8a604051808873ffffffffffffffffffffffffffffffffffffffff1681526020018760ff1681526020018663ffffffff1681526020018563ffffffff1681526020018463ffffffff1681526020018363ffffffff1681526020018263ffffffff16815260200197505050505050505060405180910390a450505050505050505050565b600c6020528060005260406000206000915090508060000160009054906101000a900460ff16908060000160019054906101000a900460ff16908060000160029054906101000a900460ff16908060000160039054906101000a900463ffffffff16908060000160079054906101000a900463ffffffff169080600001600b9054906101000a900463ffffffff169080600001600f9054906101000a900463ffffffff16908060000160139054906101000a900463ffffffff16908060000160179054906101000a900463ffffffff169080600001601b9054906101000a900463ffffffff16908060010160009054906101000a900463ffffffff1690508b565b6000612e548260026137fd90919063ffffffff16565b9050919050565b600033905090565b816004600083815260200190815260200160002060006101000a81548173ffffffffffffffffffffffffffffffffffffffff021916908373ffffffffffffffffffffffffffffffffffffffff160217905550808273ffffffffffffffffffffffffffffffffffffffff16612ed683611b42565b73ffffffffffffffffffffffffffffffffffffffff167f8c5be1e5ebec7d5bd14f71427d1e84f3dd0314c0f7b2291e5b200ac8c7c3b92560405160405180910390a45050565b6000612f2a82600001613817565b9050919050565b6000612f3c82612e3e565b612f91576040517f08c379a000000000000000000000000000000000000000000000000000000000815260040180806020018281038252602c8152602001806148cd602c913960400191505060405180910390fd5b6000612f9c83611b42565b90508073ffffffffffffffffffffffffffffffffffffffff168473ffffffffffffffffffffffffffffffffffffffff16148061300b57508373ffffffffffffffffffffffffffffffffffffffff16612ff38461146e565b73ffffffffffffffffffffffffffffffffffffffff16145b8061301c575061301b8185612969565b5b91505092915050565b8273ffffffffffffffffffffffffffffffffffffffff1661304582611b42565b73ffffffffffffffffffffffffffffffffffffffff16146130b1576040517f08c379a0000000000000000000000000000000000000000000000000000000008152600401808060200182810382526029815260200180614a306029913960400191505060405180910390fd5b600073ffffffffffffffffffffffffffffffffffffffff168273ffffffffffffffffffffffffffffffffffffffff161415613137576040517f08c379a00000000000000000000000000000000000000000000000000000000081526004018080602001828103825260248152602001806148836024913960400191505060405180910390fd5b613142838383613828565b61314d600082612e63565b61319e81600160008673ffffffffffffffffffffffffffffffffffffffff1673ffffffffffffffffffffffffffffffffffffffff1681526020019081526020016000206139e390919063ffffffff16565b506131f081600160008573ffffffffffffffffffffffffffffffffffffffff1673ffffffffffffffffffffffffffffffffffffffff1681526020019081526020016000206139fd90919063ffffffff16565b5061320781836002613a179092919063ffffffff16565b50808273ffffffffffffffffffffffffffffffffffffffff168473ffffffffffffffffffffffffffffffffffffffff167fddf252ad1be2c89b69c2b068fc378daa952ba7f163c4a11628f55a4df523b3ef60405160405180910390a4505050565b61329081600b6000858152602001908152602001600020600001613a4c90919063ffffffff16565b156132f85761329d612e5b565b73ffffffffffffffffffffffffffffffffffffffff168173ffffffffffffffffffffffffffffffffffffffff16837f2f8788117e7eff1d82e926ec794901d17c78024a50270940304540a733656f0d60405160405180910390a45b5050565b600061330b8360000183613a7c565b60001c905092915050565b61333e81600b6000858152602001908152602001600020600001613aff90919063ffffffff16565b156133a65761334b612e5b565b73ffffffffffffffffffffffffffffffffffffffff168173ffffffffffffffffffffffffffffffffffffffff16837ff6391f5c32d9c69d2a47ea670b442974b53935d1edc7fd64eb21e047a839171b60405160405180910390a45b5050565b6000806000806133bd8660000186613b2f565b915091508160001c8160001c9350935050509250929050565b60006133e9846000018460001b84613bc8565b60001c90509392505050565b600061340382600001613cbe565b9050919050565b600061341582611b42565b905061342381600084613828565b61342e600083612e63565b6000600860008481526020019081526020016000208054600181600116156101000203166002900490501461347d5760086000838152602001908152602001600020600061347c919061479a565b5b6134ce82600160008473ffffffffffffffffffffffffffffffffffffffff1673ffffffffffffffffffffffffffffffffffffffff1681526020019081526020016000206139e390919063ffffffff16565b506134e3826002613ccf90919063ffffffff16565b5081600073ffffffffffffffffffffffffffffffffffffffff168273ffffffffffffffffffffffffffffffffffffffff167fddf252ad1be2c89b69c2b068fc378daa952ba7f163c4a11628f55a4df523b3ef60405160405180910390a45050565b60006135538360000183613a7c565b60001c905092915050565b6000613586836000018373ffffffffffffffffffffffffffffffffffffffff1660001b613ce9565b905092915050565b613599848484613025565b6135a584848484613d0c565b6135fa576040517f08c379a00000000000000000000000000000000000000000000000000000000081526004018080602001828103825260328152602001806148516032913960400191505060405180910390fd5b50505050565b600061360b30613f25565b15905090565b61361b8282613268565b5050565b80600b600084815260200190815260200160002060020154837fbd79b86ffe0ab8e8776151514217cd7cacd52c909f66475c3af44e129f0b00ff60405160405180910390a480600b6000848152602001908152602001600020600201819055505050565b606060008214156136cb576040518060400160405280600181526020017f300000000000000000000000000000000000000000000000000000000000000081525090506137c5565b600082905060005b600082146136f5578080600101915050600a82816136ed57fe5b0491506136d3565b60608167ffffffffffffffff8111801561370e57600080fd5b506040519080825280601f01601f1916602001820160405280156137415781602001600182028036833780820191505090505b50905060006001830390508593505b600084146137bd57600a848161376257fe5b0660300160f81b8282806001900393508151811061377c57fe5b60200101907effffffffffffffffffffffffffffffffffffffffffffffffffffffffffffff1916908160001a905350600a84816137b557fe5b049350613750565b819450505050505b919050565b60006137d882600001613cbe565b9050919050565b6137f9828260405180602001604052806000815250613f38565b5050565b600061380f836000018360001b613fa9565b905092915050565b600081600001805490509050919050565b600073ffffffffffffffffffffffffffffffffffffffff168373ffffffffffffffffffffffffffffffffffffffff1614156139055761388e7f9f2df0fed2c77648de5860a4cc508cd0818c85b8b8a1ab4ceeef8d981c8956a6613889612e5b565b611e84565b613900576040517f08c379a000000000000000000000000000000000000000000000000000000000815260040180806020018281038252601d8152602001807f4657433a204d696e74657220726f6c652069732072657175697265642100000081525060200191505060405180910390fd5b6139de565b600073ffffffffffffffffffffffffffffffffffffffff168273ffffffffffffffffffffffffffffffffffffffff16146139dd5761396a7f8502233096d909befbda0999bb8ea2f3a6be3c138b9fbf003752a4c8bce86f6c613965612e5b565b611e84565b6139dc576040517f08c379a000000000000000000000000000000000000000000000000000000000815260040180806020018281038252601f8152602001807f4657433a205472616e7366657220726f6c65206973207265717569726564210081525060200191505060405180910390fd5b5b5b505050565b60006139f5836000018360001b613fcc565b905092915050565b6000613a0f836000018360001b6140b4565b905092915050565b6000613a43846000018460001b8473ffffffffffffffffffffffffffffffffffffffff1660001b614124565b90509392505050565b6000613a74836000018373ffffffffffffffffffffffffffffffffffffffff1660001b6140b4565b905092915050565b600081836000018054905011613add576040517f08c379a00000000000000000000000000000000000000000000000000000000081526004018080602001828103825260228152602001806148006022913960400191505060405180910390fd5b826000018281548110613aec57fe5b9060005260206000200154905092915050565b6000613b27836000018373ffffffffffffffffffffffffffffffffffffffff1660001b613fcc565b905092915050565b60008082846000018054905011613b91576040517f08c379a00000000000000000000000000000000000000000000000000000000081526004018080602001828103825260228152602001806149e26022913960400191505060405180910390fd5b6000846000018481548110613ba257fe5b906000526020600020906002020190508060000154816001015492509250509250929050565b60008084600101600085815260200190815260200160002054905060008114158390613c8f576040517f08c379a00000000000000000000000000000000000000000000000000000000081526004018080602001828103825283818151815260200191508051906020019080838360005b83811015613c54578082015181840152602081019050613c39565b50505050905090810190601f168015613c815780820380516001836020036101000a031916815260200191505b509250505060405180910390fd5b50846000016001820381548110613ca257fe5b9060005260206000209060020201600101549150509392505050565b600081600001805490509050919050565b6000613ce1836000018360001b614200565b905092915050565b600080836001016000848152602001908152602001600020541415905092915050565b6000613d2d8473ffffffffffffffffffffffffffffffffffffffff16613f25565b613d3a5760019050613f1d565b6060613ea463150b7a0260e01b613d4f612e5b565b888787604051602401808573ffffffffffffffffffffffffffffffffffffffff1681526020018473ffffffffffffffffffffffffffffffffffffffff16815260200183815260200180602001828103825283818151815260200191508051906020019080838360005b83811015613dd3578082015181840152602081019050613db8565b50505050905090810190601f168015613e005780820380516001836020036101000a031916815260200191505b5095505050505050604051602081830303815290604052907bffffffffffffffffffffffffffffffffffffffffffffffffffffffff19166020820180517bffffffffffffffffffffffffffffffffffffffffffffffffffffffff8381831617835250505050604051806060016040528060328152602001614851603291398773ffffffffffffffffffffffffffffffffffffffff166143199092919063ffffffff16565b90506000818060200190516020811015613ebd57600080fd5b8101908080519060200190929190505050905063150b7a0260e01b7bffffffffffffffffffffffffffffffffffffffffffffffffffffffff1916817bffffffffffffffffffffffffffffffffffffffffffffffffffffffff191614925050505b949350505050565b600080823b905060008111915050919050565b613f428383614331565b613f4f6000848484613d0c565b613fa4576040517f08c379a00000000000000000000000000000000000000000000000000000000081526004018080602001828103825260328152602001806148516032913960400191505060405180910390fd5b505050565b600080836001016000848152602001908152602001600020541415905092915050565b600080836001016000848152602001908152602001600020549050600081146140a8576000600182039050600060018660000180549050039050600086600001828154811061401757fe5b906000526020600020015490508087600001848154811061403457fe5b906000526020600020018190555060018301876001016000838152602001908152602001600020819055508660000180548061406c57fe5b600190038181906000526020600020016000905590558660010160008781526020019081526020016000206000905560019450505050506140ae565b60009150505b92915050565b60006140c08383613ce9565b61411957826000018290806001815401808255809150506001900390600052602060002001600090919091909150558260000180549050836001016000848152602001908152602001600020819055506001905061411e565b600090505b92915050565b60008084600101600085815260200190815260200160002054905060008114156141cb578460000160405180604001604052808681526020018581525090806001815401808255809150506001900390600052602060002090600202016000909190919091506000820151816000015560208201518160010155505084600001805490508560010160008681526020019081526020016000208190555060019150506141f9565b828560000160018303815481106141de57fe5b90600052602060002090600202016001018190555060009150505b9392505050565b6000808360010160008481526020019081526020016000205490506000811461430d576000600182039050600060018660000180549050039050600086600001828154811061424b57fe5b906000526020600020906002020190508087600001848154811061426b57fe5b90600052602060002090600202016000820154816000015560018201548160010155905050600183018760010160008360000154815260200190815260200160002081905550866000018054806142be57fe5b6001900381819060005260206000209060020201600080820160009055600182016000905550509055866001016000878152602001908152602001600020600090556001945050505050614313565b60009150505b92915050565b60606143288484600085614525565b90509392505050565b600073ffffffffffffffffffffffffffffffffffffffff168273ffffffffffffffffffffffffffffffffffffffff1614156143d4576040517f08c379a00000000000000000000000000000000000000000000000000000000081526004018080602001828103825260208152602001807f4552433732313a206d696e7420746f20746865207a65726f206164647265737381525060200191505060405180910390fd5b6143dd81612e3e565b15614450576040517f08c379a000000000000000000000000000000000000000000000000000000000815260040180806020018281038252601c8152602001807f4552433732313a20746f6b656e20616c7265616479206d696e7465640000000081525060200191505060405180910390fd5b61445c60008383613828565b6144ad81600160008573ffffffffffffffffffffffffffffffffffffffff1673ffffffffffffffffffffffffffffffffffffffff1681526020019081526020016000206139fd90919063ffffffff16565b506144c481836002613a179092919063ffffffff16565b50808273ffffffffffffffffffffffffffffffffffffffff16600073ffffffffffffffffffffffffffffffffffffffff167fddf252ad1be2c89b69c2b068fc378daa952ba7f163c4a11628f55a4df523b3ef60405160405180910390a45050565b606082471015614580576040517f08c379a00000000000000000000000000000000000000000000000000000000081526004018080602001828103825260268152602001806148a76026913960400191505060405180910390fd5b61458985613f25565b6145fb576040517f08c379a000000000000000000000000000000000000000000000000000000000815260040180806020018281038252601d8152602001807f416464726573733a2063616c6c20746f206e6f6e2d636f6e747261637400000081525060200191505060405180910390fd5b600060608673ffffffffffffffffffffffffffffffffffffffff1685876040518082805190602001908083835b6020831061464b5780518252602082019150602081019050602083039250614628565b6001836020036101000a03801982511681845116808217855250505050505090500191505060006040518083038185875af1925050503d80600081146146ad576040519150601f19603f3d011682016040523d82523d6000602084013e6146b2565b606091505b50915091506146c28282866146ce565b92505050949350505050565b606083156146de57829050614793565b6000835111156146f15782518084602001fd5b816040517f08c379a00000000000000000000000000000000000000000000000000000000081526004018080602001828103825283818151815260200191508051906020019080838360005b8381101561475857808201518184015260208101905061473d565b50505050905090810190601f1680156147855780820380516001836020036101000a031916815260200191505b509250505060405180910390fd5b9392505050565b50805460018160011615610100020316600290046000825580601f106147c057506147df565b601f0160209004906000526020600020908101906147de91906147e2565b5b50565b5b808211156147fb5760008160009055506001016147e3565b509056fe456e756d657261626c655365743a20696e646578206f7574206f6620626f756e6473416363657373436f6e74726f6c3a2073656e646572206d75737420626520616e2061646d696e20746f206772616e744552433732313a207472616e7366657220746f206e6f6e20455243373231526563656976657220696d706c656d656e7465724552433732313a207472616e7366657220746f20746865207a65726f2061646472657373416464726573733a20696e73756666696369656e742062616c616e636520666f722063616c6c4552433732313a206f70657261746f7220717565727920666f72206e6f6e6578697374656e7420746f6b656e416363657373436f6e74726f6c3a2073656e646572206d75737420626520616e2061646d696e20746f207265766f6b654552433732313a20617070726f76652063616c6c6572206973206e6f74206f776e6572206e6f7220617070726f76656420666f7220616c6c4552433732313a2062616c616e636520717565727920666f7220746865207a65726f20616464726573734552433732313a206f776e657220717565727920666f72206e6f6e6578697374656e7420746f6b656e496e697469616c697a61626c653a20636f6e747261637420697320616c726561647920696e697469616c697a6564456e756d657261626c654d61703a20696e646578206f7574206f6620626f756e64734552433732313a20617070726f76656420717565727920666f72206e6f6e6578697374656e7420746f6b656e4552433732313a207472616e73666572206f6620746f6b656e2074686174206973206e6f74206f776e4552433732314d657461646174613a2055524920717565727920666f72206e6f6e6578697374656e7420746f6b656e4552433732313a20617070726f76616c20746f2063757272656e74206f776e65724552433732313a207472616e736665722063616c6c6572206973206e6f74206f776e6572206e6f7220617070726f7665644657433a207472616e736665722063616c6c6572206973206e6f74206f776e6572206e6f7220617070726f766564416363657373436f6e74726f6c3a2063616e206f6e6c792072656e6f756e636520726f6c657320666f722073656c66a26469706673582212209b136f7522e2138732928fa300e1f6a6557bf3d98235e36263469344e2da548764736f6c634300060c0033",
  "immutableReferences": {},
  "source": "//SPDX-License-Identifier: UNLICENSED\npragma solidity ^0.6.12;\nimport \"@openzeppelin/contracts/math/SafeMath.sol\";\nimport \"@openzeppelin/contracts/token/ERC721/ERC721.sol\";\nimport \"@openzeppelin/contracts/access/AccessControl.sol\";\nimport \"@openzeppelin/contracts/proxy/Initializable.sol\";\nimport \"./SafeMath32.sol\";\nimport \"./SafeMath8.sol\";\n\ncontract FWarChar is \n    ERC721(\"FwarChar\", \"FWC\"),\n    Initializable,\n    AccessControl\n{\n    using SafeMath for uint256;\n    using SafeMath32 for uint32;\n    using SafeMath8 for uint8;\n\n    event MintNFT(address receiver, uint32 indexed tokenId, uint8 level, uint8 indexed rarity, uint8 indexed elementType, uint32 teamId, uint32 attack, uint32 defense, uint32 health, uint32 hash);\n    event UpgradeNFT(uint32 indexed tokenId, uint8 level, uint32 attack, uint32 defense, uint32 health, uint32 hash);\n    struct CharInfo {\n        uint8 level;\n        \n        uint8 rarity;\n        \n        uint8 elementType;\n\n        uint32 teamId;\n\n        uint32 baseAttack;\n        uint32 baseDefense;\n        uint32 baseHealth;\n\n        uint32 attack;\n        uint32 defense;\n        uint32 health;\n\n        uint32 hash;\n    }\n\n    // tokenId => CharInfo\n    mapping(uint => CharInfo) public charInfos;\n\n    // level => category => item => tokenURI\n    mapping(uint => mapping(uint => mapping(uint => string))) public nftURI;\n\n    bytes32 public constant MINTER_ROLE = keccak256(\"MINTER_ROLE\");\n    bytes32 public constant UPGRADATOR_ROLE = keccak256(\"UPGRADATOR_ROLE\");\n    bytes32 public constant TRANSFER_ROLE = keccak256(\"TRANSFER_ROLE\");\n\n    function initialize(address admin) public payable initializer {\n        _setupRole(DEFAULT_ADMIN_ROLE, admin);\n        _setRoleAdmin(MINTER_ROLE, DEFAULT_ADMIN_ROLE);\n        _setRoleAdmin(UPGRADATOR_ROLE, DEFAULT_ADMIN_ROLE);\n        _setRoleAdmin(TRANSFER_ROLE, DEFAULT_ADMIN_ROLE);\n    }\n\n    /// @dev getCharInfo is called by a user\n    /// @param _id is the NFT Id \n    function getCharInfo(uint32 _id) external view returns (uint8 level, uint8 rarity, uint8 elementType, \n        uint32 teamId, uint32 attack, uint32 defense, uint32 health, uint32 hash) \n    {\n        CharInfo storage charInfo = charInfos[_id];\n        return (charInfo.level, charInfo.rarity, charInfo.elementType, charInfo.teamId, charInfo.attack, charInfo.defense, charInfo.health, charInfo.hash);\n    }\n\n    /// @dev getCharFullInfo is called by a user\n    /// @param _id is the NFT Id \n    function getCharFullInfo(uint _id) external view returns (uint8 level, uint8 rarity, uint8 elementType, \n        uint32 teamId, uint32 baseAttack, uint32 baseDefense, \n        uint32 baseHealth, uint32 attack, uint32 defense, uint32 health, uint32 hash) \n    {\n        CharInfo storage charInfo = charInfos[_id];\n        return (charInfo.level, charInfo.rarity, charInfo.elementType, charInfo.teamId, charInfo.baseAttack, charInfo.baseDefense,\n         charInfo.baseHealth, charInfo.attack, charInfo.defense, charInfo.health, charInfo.hash);\n    }\n\n    /// @dev getCharBaseInfo is called by a user\n    /// @param _id is the NFT Id \n    function getCharBaseInfo(uint32 _id) external view returns (uint32 baseAttack, uint32 baseDefense, uint32 baseHealth) \n    {\n        CharInfo storage charInfo = charInfos[_id];\n        return (charInfo.baseAttack, charInfo.baseDefense, charInfo.baseHealth);\n    }\n\n    /// @dev getHash is called by a user\n    /// @param _id is the NFT Id \n    function getHash(uint32 _id) external view returns (uint32 hash) \n    {\n        CharInfo storage charInfo = charInfos[_id];\n        return (charInfo.hash);\n    }\n\n\n    //mint NFT\n    function mint(\n        address _receiver, \n        uint32 _id,\n        uint8 _level,\n        uint8 _rarity,\n        uint8 _elementType,\n        uint32 _teamId,\n        uint32 _attack,\n        uint32 _defense,\n        uint32 _health,\n        uint32 _hash\n    ) external {\n        _safeMint(_receiver, _id);\n        charInfos[_id].level = _level;\n        charInfos[_id].rarity = _rarity;\n        charInfos[_id].elementType = _elementType;\n        charInfos[_id].teamId = _teamId;\n\n        charInfos[_id].baseAttack = _attack;\n        charInfos[_id].baseDefense = _defense;\n        charInfos[_id].baseHealth = _health;\n\n        charInfos[_id].attack = _attack;\n        charInfos[_id].defense = _defense;\n        charInfos[_id].health = _health;\n\n        charInfos[_id].hash = _hash;\n\n        emit MintNFT(_receiver, _id, _level, _rarity, _elementType, _teamId, _attack, _defense, _health, _hash);\n    }\n\n\n    //burn NFT\n    function burn(uint32 _tokenId) external {\n        require(_isApprovedOrOwner(_msgSender(), _tokenId), \"FWC: transfer caller is not owner nor approved\");\n        _burn(_tokenId);\n    }\n\n    //upgrade NFT\n    function upgrade(\n        uint32 _id,\n        uint8 _level,\n        uint32 _attack,\n        uint32 _defense,\n        uint32 _health,\n        uint32 _hash\n    ) external {\n        require(hasRole(UPGRADATOR_ROLE, _msgSender()), 'FWC: Upgrade role is required!');\n\n        charInfos[_id].level = _level;\n        charInfos[_id].attack = _attack;\n        charInfos[_id].defense = _defense;\n        charInfos[_id].health = _health;\n        charInfos[_id].hash = _hash;\n\n        emit UpgradeNFT(_id, _level, _attack, _defense, _health, _hash);\n    }\n\n    function _beforeTokenTransfer(address from, address to, uint256 tokenId) internal virtual override{\n        if(from == address(0))\n        {\n            require(hasRole(MINTER_ROLE, _msgSender()), 'FWC: Minter role is required!');\n        }\n        else if(to != address(0))\n        {\n            require(hasRole(TRANSFER_ROLE, _msgSender()), 'FWC: Transfer role is required!');\n        }\n    }\n\n}",
  "sourcePath": "/Users/badung1870/Working/Node/fwar-contracts/Fwar/FwarChar/contracts/FwarChar.sol",
  "compiler": {
    "name": "solc",
    "version": "0.6.12+commit.27d51765.Emscripten.clang"
  },
  "schemaVersion": "3.4.3",
  "updatedAt": "2021-11-29T19:03:58.226Z",
  "networkType": "ethereum",
  "devdoc": {
    "kind": "dev",
    "methods": {
      "approve(address,uint256)": {
        "details": "See {IERC721-approve}."
      },
      "balanceOf(address)": {
        "details": "See {IERC721-balanceOf}."
      },
      "baseURI()": {
        "details": "Returns the base URI set via {_setBaseURI}. This will be automatically added as a prefix in {tokenURI} to each token's URI, or to the token ID if no specific URI is set for that token ID."
      },
      "getApproved(uint256)": {
        "details": "See {IERC721-getApproved}."
      },
      "getCharBaseInfo(uint32)": {
        "details": "getCharBaseInfo is called by a user",
        "params": {
          "_id": "is the NFT Id "
        }
      },
      "getCharFullInfo(uint256)": {
        "details": "getCharFullInfo is called by a user",
        "params": {
          "_id": "is the NFT Id "
        }
      },
      "getCharInfo(uint32)": {
        "details": "getCharInfo is called by a user",
        "params": {
          "_id": "is the NFT Id "
        }
      },
      "getHash(uint32)": {
        "details": "getHash is called by a user",
        "params": {
          "_id": "is the NFT Id "
        }
      },
      "getRoleAdmin(bytes32)": {
        "details": "Returns the admin role that controls `role`. See {grantRole} and {revokeRole}. To change a role's admin, use {_setRoleAdmin}."
      },
      "getRoleMember(bytes32,uint256)": {
        "details": "Returns one of the accounts that have `role`. `index` must be a value between 0 and {getRoleMemberCount}, non-inclusive. Role bearers are not sorted in any particular way, and their ordering may change at any point. WARNING: When using {getRoleMember} and {getRoleMemberCount}, make sure you perform all queries on the same block. See the following https://forum.openzeppelin.com/t/iterating-over-elements-on-enumerableset-in-openzeppelin-contracts/2296[forum post] for more information."
      },
      "getRoleMemberCount(bytes32)": {
        "details": "Returns the number of accounts that have `role`. Can be used together with {getRoleMember} to enumerate all bearers of a role."
      },
      "grantRole(bytes32,address)": {
        "details": "Grants `role` to `account`. If `account` had not been already granted `role`, emits a {RoleGranted} event. Requirements: - the caller must have ``role``'s admin role."
      },
      "hasRole(bytes32,address)": {
        "details": "Returns `true` if `account` has been granted `role`."
      },
      "isApprovedForAll(address,address)": {
        "details": "See {IERC721-isApprovedForAll}."
      },
      "name()": {
        "details": "See {IERC721Metadata-name}."
      },
      "ownerOf(uint256)": {
        "details": "See {IERC721-ownerOf}."
      },
      "renounceRole(bytes32,address)": {
        "details": "Revokes `role` from the calling account. Roles are often managed via {grantRole} and {revokeRole}: this function's purpose is to provide a mechanism for accounts to lose their privileges if they are compromised (such as when a trusted device is misplaced). If the calling account had been granted `role`, emits a {RoleRevoked} event. Requirements: - the caller must be `account`."
      },
      "revokeRole(bytes32,address)": {
        "details": "Revokes `role` from `account`. If `account` had been granted `role`, emits a {RoleRevoked} event. Requirements: - the caller must have ``role``'s admin role."
      },
      "safeTransferFrom(address,address,uint256)": {
        "details": "See {IERC721-safeTransferFrom}."
      },
      "safeTransferFrom(address,address,uint256,bytes)": {
        "details": "See {IERC721-safeTransferFrom}."
      },
      "setApprovalForAll(address,bool)": {
        "details": "See {IERC721-setApprovalForAll}."
      },
      "supportsInterface(bytes4)": {
        "details": "See {IERC165-supportsInterface}. Time complexity O(1), guaranteed to always use less than 30 000 gas."
      },
      "symbol()": {
        "details": "See {IERC721Metadata-symbol}."
      },
      "tokenByIndex(uint256)": {
        "details": "See {IERC721Enumerable-tokenByIndex}."
      },
      "tokenOfOwnerByIndex(address,uint256)": {
        "details": "See {IERC721Enumerable-tokenOfOwnerByIndex}."
      },
      "tokenURI(uint256)": {
        "details": "See {IERC721Metadata-tokenURI}."
      },
      "totalSupply()": {
        "details": "See {IERC721Enumerable-totalSupply}."
      },
      "transferFrom(address,address,uint256)": {
        "details": "See {IERC721-transferFrom}."
      }
    },
    "version": 1
  },
  "userdoc": {
    "kind": "user",
    "methods": {},
    "version": 1
  }
}