{
  "contractName": "FwarMining",
  "abi": [
    {
      "anonymous": false,
      "inputs": [
        {
          "indexed": true,
          "internalType": "address",
          "name": "_owner",
          "type": "address"
        },
        {
          "indexed": false,
          "internalType": "uint256",
          "name": "_amount",
          "type": "uint256"
        }
      ],
      "name": "Claim",
      "type": "event"
    },
    {
      "anonymous": false,
      "inputs": [
        {
          "indexed": true,
          "internalType": "address",
          "name": "previousOwner",
          "type": "address"
        },
        {
          "indexed": true,
          "internalType": "address",
          "name": "newOwner",
          "type": "address"
        }
      ],
      "name": "OwnershipTransferred",
      "type": "event"
    },
    {
      "anonymous": false,
      "inputs": [
        {
          "indexed": true,
          "internalType": "bytes32",
          "name": "role",
          "type": "bytes32"
        },
        {
          "indexed": true,
          "internalType": "bytes32",
          "name": "previousAdminRole",
          "type": "bytes32"
        },
        {
          "indexed": true,
          "internalType": "bytes32",
          "name": "newAdminRole",
          "type": "bytes32"
        }
      ],
      "name": "RoleAdminChanged",
      "type": "event"
    },
    {
      "anonymous": false,
      "inputs": [
        {
          "indexed": true,
          "internalType": "bytes32",
          "name": "role",
          "type": "bytes32"
        },
        {
          "indexed": true,
          "internalType": "address",
          "name": "account",
          "type": "address"
        },
        {
          "indexed": true,
          "internalType": "address",
          "name": "sender",
          "type": "address"
        }
      ],
      "name": "RoleGranted",
      "type": "event"
    },
    {
      "anonymous": false,
      "inputs": [
        {
          "indexed": true,
          "internalType": "bytes32",
          "name": "role",
          "type": "bytes32"
        },
        {
          "indexed": true,
          "internalType": "address",
          "name": "account",
          "type": "address"
        },
        {
          "indexed": true,
          "internalType": "address",
          "name": "sender",
          "type": "address"
        }
      ],
      "name": "RoleRevoked",
      "type": "event"
    },
    {
      "anonymous": false,
      "inputs": [
        {
          "indexed": true,
          "internalType": "address",
          "name": "_owner",
          "type": "address"
        },
        {
          "indexed": false,
          "internalType": "uint32[]",
          "name": "_nftIds",
          "type": "uint32[]"
        },
        {
          "indexed": false,
          "internalType": "uint256",
          "name": "_amount",
          "type": "uint256"
        }
      ],
      "name": "Stake",
      "type": "event"
    },
    {
      "anonymous": false,
      "inputs": [
        {
          "indexed": true,
          "internalType": "address",
          "name": "_owner",
          "type": "address"
        },
        {
          "indexed": false,
          "internalType": "uint32[]",
          "name": "_nftIds",
          "type": "uint32[]"
        },
        {
          "indexed": false,
          "internalType": "uint256",
          "name": "_amount",
          "type": "uint256"
        }
      ],
      "name": "Unstake",
      "type": "event"
    },
    {
      "inputs": [],
      "name": "DEFAULT_ADMIN_ROLE",
      "outputs": [
        {
          "internalType": "bytes32",
          "name": "",
          "type": "bytes32"
        }
      ],
      "stateMutability": "view",
      "type": "function",
      "constant": true
    },
    {
      "inputs": [],
      "name": "blackListAddress",
      "outputs": [
        {
          "internalType": "address",
          "name": "",
          "type": "address"
        }
      ],
      "stateMutability": "view",
      "type": "function",
      "constant": true
    },
    {
      "inputs": [],
      "name": "fwarMarketAddress",
      "outputs": [
        {
          "internalType": "address",
          "name": "",
          "type": "address"
        }
      ],
      "stateMutability": "view",
      "type": "function",
      "constant": true
    },
    {
      "inputs": [],
      "name": "fwtAddress",
      "outputs": [
        {
          "internalType": "address",
          "name": "",
          "type": "address"
        }
      ],
      "stateMutability": "view",
      "type": "function",
      "constant": true
    },
    {
      "inputs": [],
      "name": "fwtPerBlock",
      "outputs": [
        {
          "internalType": "uint256",
          "name": "",
          "type": "uint256"
        }
      ],
      "stateMutability": "view",
      "type": "function",
      "constant": true
    },
    {
      "inputs": [
        {
          "internalType": "bytes32",
          "name": "role",
          "type": "bytes32"
        }
      ],
      "name": "getRoleAdmin",
      "outputs": [
        {
          "internalType": "bytes32",
          "name": "",
          "type": "bytes32"
        }
      ],
      "stateMutability": "view",
      "type": "function",
      "constant": true
    },
    {
      "inputs": [
        {
          "internalType": "bytes32",
          "name": "role",
          "type": "bytes32"
        },
        {
          "internalType": "uint256",
          "name": "index",
          "type": "uint256"
        }
      ],
      "name": "getRoleMember",
      "outputs": [
        {
          "internalType": "address",
          "name": "",
          "type": "address"
        }
      ],
      "stateMutability": "view",
      "type": "function",
      "constant": true
    },
    {
      "inputs": [
        {
          "internalType": "bytes32",
          "name": "role",
          "type": "bytes32"
        }
      ],
      "name": "getRoleMemberCount",
      "outputs": [
        {
          "internalType": "uint256",
          "name": "",
          "type": "uint256"
        }
      ],
      "stateMutability": "view",
      "type": "function",
      "constant": true
    },
    {
      "inputs": [
        {
          "internalType": "bytes32",
          "name": "role",
          "type": "bytes32"
        },
        {
          "internalType": "address",
          "name": "account",
          "type": "address"
        }
      ],
      "name": "grantRole",
      "outputs": [],
      "stateMutability": "nonpayable",
      "type": "function"
    },
    {
      "inputs": [
        {
          "internalType": "bytes32",
          "name": "role",
          "type": "bytes32"
        },
        {
          "internalType": "address",
          "name": "account",
          "type": "address"
        }
      ],
      "name": "hasRole",
      "outputs": [
        {
          "internalType": "bool",
          "name": "",
          "type": "bool"
        }
      ],
      "stateMutability": "view",
      "type": "function",
      "constant": true
    },
    {
      "inputs": [],
      "name": "nftContract",
      "outputs": [
        {
          "internalType": "address",
          "name": "",
          "type": "address"
        }
      ],
      "stateMutability": "view",
      "type": "function",
      "constant": true
    },
    {
      "inputs": [],
      "name": "owner",
      "outputs": [
        {
          "internalType": "address",
          "name": "",
          "type": "address"
        }
      ],
      "stateMutability": "view",
      "type": "function",
      "constant": true
    },
    {
      "inputs": [],
      "name": "renounceOwnership",
      "outputs": [],
      "stateMutability": "nonpayable",
      "type": "function"
    },
    {
      "inputs": [
        {
          "internalType": "bytes32",
          "name": "role",
          "type": "bytes32"
        },
        {
          "internalType": "address",
          "name": "account",
          "type": "address"
        }
      ],
      "name": "renounceRole",
      "outputs": [],
      "stateMutability": "nonpayable",
      "type": "function"
    },
    {
      "inputs": [
        {
          "internalType": "bytes32",
          "name": "role",
          "type": "bytes32"
        },
        {
          "internalType": "address",
          "name": "account",
          "type": "address"
        }
      ],
      "name": "revokeRole",
      "outputs": [],
      "stateMutability": "nonpayable",
      "type": "function"
    },
    {
      "inputs": [],
      "name": "seedAddress",
      "outputs": [
        {
          "internalType": "address",
          "name": "",
          "type": "address"
        }
      ],
      "stateMutability": "view",
      "type": "function",
      "constant": true
    },
    {
      "inputs": [
        {
          "internalType": "uint256",
          "name": "",
          "type": "uint256"
        }
      ],
      "name": "stakingNFT",
      "outputs": [
        {
          "internalType": "uint256",
          "name": "",
          "type": "uint256"
        }
      ],
      "stateMutability": "view",
      "type": "function",
      "constant": true
    },
    {
      "inputs": [],
      "name": "startBlock",
      "outputs": [
        {
          "internalType": "uint256",
          "name": "",
          "type": "uint256"
        }
      ],
      "stateMutability": "view",
      "type": "function",
      "constant": true
    },
    {
      "inputs": [
        {
          "internalType": "address",
          "name": "newOwner",
          "type": "address"
        }
      ],
      "name": "transferOwnership",
      "outputs": [],
      "stateMutability": "nonpayable",
      "type": "function"
    },
    {
      "inputs": [
        {
          "internalType": "address",
          "name": "",
          "type": "address"
        }
      ],
      "name": "userInfo",
      "outputs": [
        {
          "internalType": "uint256",
          "name": "hash",
          "type": "uint256"
        },
        {
          "internalType": "uint256",
          "name": "rewardDebt",
          "type": "uint256"
        },
        {
          "internalType": "uint256",
          "name": "lastStakeTime",
          "type": "uint256"
        }
      ],
      "stateMutability": "view",
      "type": "function",
      "constant": true
    },
    {
      "stateMutability": "payable",
      "type": "receive",
      "payable": true
    },
    {
      "inputs": [
        {
          "internalType": "address",
          "name": "admin",
          "type": "address"
        },
        {
          "internalType": "uint256",
          "name": "_startBlock",
          "type": "uint256"
        },
        {
          "internalType": "uint256",
          "name": "_fwtPerBlock",
          "type": "uint256"
        },
        {
          "internalType": "address",
          "name": "_fwtAddress",
          "type": "address"
        },
        {
          "internalType": "address",
          "name": "_seedAddress",
          "type": "address"
        },
        {
          "internalType": "address",
          "name": "_blackListAddress",
          "type": "address"
        },
        {
          "internalType": "address",
          "name": "_fwarMarketAddress",
          "type": "address"
        },
        {
          "internalType": "address",
          "name": "_nftContract",
          "type": "address"
        }
      ],
      "name": "initialize",
      "outputs": [],
      "stateMutability": "payable",
      "type": "function",
      "payable": true
    },
    {
      "inputs": [
        {
          "internalType": "uint256",
          "name": "_fwtPerBlock",
          "type": "uint256"
        }
      ],
      "name": "setFWTPerBlock",
      "outputs": [],
      "stateMutability": "nonpayable",
      "type": "function"
    },
    {
      "inputs": [
        {
          "internalType": "address",
          "name": "_blackListAddress",
          "type": "address"
        }
      ],
      "name": "setBlackListAddress",
      "outputs": [],
      "stateMutability": "nonpayable",
      "type": "function"
    },
    {
      "inputs": [
        {
          "internalType": "address",
          "name": "_nftContract",
          "type": "address"
        }
      ],
      "name": "setNFTAddress",
      "outputs": [],
      "stateMutability": "nonpayable",
      "type": "function"
    },
    {
      "inputs": [
        {
          "internalType": "address",
          "name": "_seedAddress",
          "type": "address"
        }
      ],
      "name": "setSeedAddress",
      "outputs": [],
      "stateMutability": "nonpayable",
      "type": "function"
    },
    {
      "inputs": [
        {
          "internalType": "address",
          "name": "_fwarMarketAddress",
          "type": "address"
        }
      ],
      "name": "setFwarMarketAddress",
      "outputs": [],
      "stateMutability": "nonpayable",
      "type": "function"
    },
    {
      "inputs": [
        {
          "internalType": "uint256[]",
          "name": "_nftIds",
          "type": "uint256[]"
        },
        {
          "internalType": "uint256[]",
          "name": "_values",
          "type": "uint256[]"
        }
      ],
      "name": "setStakingNFT",
      "outputs": [],
      "stateMutability": "nonpayable",
      "type": "function"
    },
    {
      "inputs": [
        {
          "internalType": "address",
          "name": "_user",
          "type": "address"
        },
        {
          "internalType": "uint256",
          "name": "_hash",
          "type": "uint256"
        }
      ],
      "name": "setHash",
      "outputs": [],
      "stateMutability": "nonpayable",
      "type": "function"
    },
    {
      "inputs": [
        {
          "internalType": "uint256",
          "name": "_nftId",
          "type": "uint256"
        }
      ],
      "name": "getStakingNFT",
      "outputs": [
        {
          "internalType": "uint256",
          "name": "",
          "type": "uint256"
        }
      ],
      "stateMutability": "view",
      "type": "function",
      "constant": true
    },
    {
      "inputs": [],
      "name": "getTotalHash",
      "outputs": [
        {
          "internalType": "uint256",
          "name": "",
          "type": "uint256"
        }
      ],
      "stateMutability": "view",
      "type": "function",
      "constant": true
    },
    {
      "inputs": [
        {
          "internalType": "address",
          "name": "_user",
          "type": "address"
        }
      ],
      "name": "getUserInfo",
      "outputs": [
        {
          "internalType": "uint256",
          "name": "hash",
          "type": "uint256"
        },
        {
          "internalType": "uint256",
          "name": "rewardDebt",
          "type": "uint256"
        },
        {
          "internalType": "uint256",
          "name": "lastStakeTime",
          "type": "uint256"
        }
      ],
      "stateMutability": "view",
      "type": "function",
      "constant": true
    },
    {
      "inputs": [
        {
          "internalType": "uint256",
          "name": "_from",
          "type": "uint256"
        },
        {
          "internalType": "uint256",
          "name": "_to",
          "type": "uint256"
        }
      ],
      "name": "getMultiplier",
      "outputs": [
        {
          "internalType": "uint256",
          "name": "",
          "type": "uint256"
        }
      ],
      "stateMutability": "pure",
      "type": "function",
      "constant": true
    },
    {
      "inputs": [
        {
          "internalType": "address",
          "name": "_user",
          "type": "address"
        }
      ],
      "name": "pendingFWT",
      "outputs": [
        {
          "internalType": "uint256",
          "name": "",
          "type": "uint256"
        }
      ],
      "stateMutability": "view",
      "type": "function",
      "constant": true
    },
    {
      "inputs": [],
      "name": "updateMining",
      "outputs": [],
      "stateMutability": "nonpayable",
      "type": "function"
    },
    {
      "inputs": [
        {
          "internalType": "uint32[]",
          "name": "_nftIds",
          "type": "uint32[]"
        }
      ],
      "name": "stake",
      "outputs": [],
      "stateMutability": "nonpayable",
      "type": "function"
    },
    {
      "inputs": [
        {
          "internalType": "uint32[]",
          "name": "_nftIds",
          "type": "uint32[]"
        }
      ],
      "name": "unStake",
      "outputs": [],
      "stateMutability": "nonpayable",
      "type": "function"
    },
    {
      "inputs": [],
      "name": "claim",
      "outputs": [],
      "stateMutability": "nonpayable",
      "type": "function"
    },
    {
      "inputs": [
        {
          "internalType": "address",
          "name": "_tokenAddress",
          "type": "address"
        },
        {
          "internalType": "uint256",
          "name": "_amount",
          "type": "uint256"
        }
      ],
      "name": "withdrawERC20Tokens",
      "outputs": [],
      "stateMutability": "nonpayable",
      "type": "function"
    }
  ],
  "bytecode": "0x60806040523480156200001157600080fd5b50600062000024620000d160201b60201c565b905080600260006101000a81548173ffffffffffffffffffffffffffffffffffffffff021916908373ffffffffffffffffffffffffffffffffffffffff1602179055508073ffffffffffffffffffffffffffffffffffffffff16600073ffffffffffffffffffffffffffffffffffffffff167f8be0079c531659141344cd1fd0a4f28419497f9722a3daafe3b4186f6b6457e060405160405180910390a3506001600381905550620000d9565b600033905090565b61423880620000e96000396000f3fe6080604052600436106102295760003560e01c80638ae354f311610123578063ca15c873116100ab578063d825d6f31161006f578063d825d6f314610d56578063da07a54714610da7578063e1875c7914610e0c578063e49cb2fb14610e37578063f2fde38b14610e9257610230565b8063ca15c87314610bcf578063cdf690b314610c1e578063d33f797814610c79578063d547741f14610cba578063d56d229d14610d1557610230565b806391d14854116100f257806391d14854146109dc578063987092f214610a4d578063a217fddf14610a9e578063af9ae3fd14610ac9578063ba376b3a14610af457610230565b80638ae354f3146108925780638da5cb5b146108d35780638dbb1e3a146109145780639010d07c1461096d57610230565b806334b5e5ce116101b15780635eee9230116101755780635eee9230146107515780636386c1c7146107a057806369d0373814610813578063715018a614610864578063863543941461087b57610230565b806334b5e5ce1461062a57806336568abe146106655780633c170f9d146106c057806348cd4cb11461070f5780634e71d92d1461073a57610230565b80631c9dd5b5116101f85780631c9dd5b514610468578063248a9ca3146104ee5780632cd68b3b1461053d5780632d4fd0e21461057e5780632f2ff15d146105cf57610230565b806304a3e4311461023557806312645587146102bb5780631959a002146102fc5780631b4f4fc71461036f57610230565b3661023057005b600080fd5b34801561024157600080fd5b506102b96004803603602081101561025857600080fd5b810190808035906020019064010000000081111561027557600080fd5b82018360208201111561028757600080fd5b803590602001918460208302840111640100000000831117156102a957600080fd5b9091929391929390505050610ee3565b005b3480156102c757600080fd5b506102d061187f565b604051808273ffffffffffffffffffffffffffffffffffffffff16815260200191505060405180910390f35b34801561030857600080fd5b5061034b6004803603602081101561031f57600080fd5b81019080803573ffffffffffffffffffffffffffffffffffffffff1690602001909291905050506118a5565b60405180848152602001838152602001828152602001935050505060405180910390f35b610466600480360361010081101561038657600080fd5b81019080803573ffffffffffffffffffffffffffffffffffffffff1690602001909291908035906020019092919080359060200190929190803573ffffffffffffffffffffffffffffffffffffffff169060200190929190803573ffffffffffffffffffffffffffffffffffffffff169060200190929190803573ffffffffffffffffffffffffffffffffffffffff169060200190929190803573ffffffffffffffffffffffffffffffffffffffff169060200190929190803573ffffffffffffffffffffffffffffffffffffffff1690602001909291905050506118cf565b005b34801561047457600080fd5b506104ec6004803603602081101561048b57600080fd5b81019080803590602001906401000000008111156104a857600080fd5b8201836020820111156104ba57600080fd5b803590602001918460208302840111640100000000831117156104dc57600080fd5b9091929391929390505050611b35565b005b3480156104fa57600080fd5b506105276004803603602081101561051157600080fd5b810190808035906020019092919050505061262a565b6040518082815260200191505060405180910390f35b34801561054957600080fd5b5061055261264a565b604051808273ffffffffffffffffffffffffffffffffffffffff16815260200191505060405180910390f35b34801561058a57600080fd5b506105cd600480360360208110156105a157600080fd5b81019080803573ffffffffffffffffffffffffffffffffffffffff169060200190929190505050612670565b005b3480156105db57600080fd5b50610628600480360360408110156105f257600080fd5b8101908080359060200190929190803573ffffffffffffffffffffffffffffffffffffffff16906020019092919050505061273a565b005b34801561063657600080fd5b506106636004803603602081101561064d57600080fd5b81019080803590602001909291905050506127c4565b005b34801561067157600080fd5b506106be6004803603604081101561068857600080fd5b8101908080359060200190929190803573ffffffffffffffffffffffffffffffffffffffff169060200190929190505050612854565b005b3480156106cc57600080fd5b506106f9600480360360208110156106e357600080fd5b81019080803590602001909291905050506128ed565b6040518082815260200191505060405180910390f35b34801561071b57600080fd5b5061072461290a565b6040518082815260200191505060405180910390f35b34801561074657600080fd5b5061074f612910565b005b34801561075d57600080fd5b5061078a6004803603602081101561077457600080fd5b8101908080359060200190929190505050612ba6565b6040518082815260200191505060405180910390f35b3480156107ac57600080fd5b506107ef600480360360208110156107c357600080fd5b81019080803573ffffffffffffffffffffffffffffffffffffffff169060200190929190505050612bbe565b60405180848152602001838152602001828152602001935050505060405180910390f35b34801561081f57600080fd5b506108626004803603602081101561083657600080fd5b81019080803573ffffffffffffffffffffffffffffffffffffffff169060200190929190505050612c22565b005b34801561087057600080fd5b50610879612cec565b005b34801561088757600080fd5b50610890612e5c565b005b34801561089e57600080fd5b506108a7612fa2565b604051808273ffffffffffffffffffffffffffffffffffffffff16815260200191505060405180910390f35b3480156108df57600080fd5b506108e8612fc8565b604051808273ffffffffffffffffffffffffffffffffffffffff16815260200191505060405180910390f35b34801561092057600080fd5b506109576004803603604081101561093757600080fd5b810190808035906020019092919080359060200190929190505050612ff2565b6040518082815260200191505060405180910390f35b34801561097957600080fd5b506109b06004803603604081101561099057600080fd5b81019080803590602001909291908035906020019092919050505061300f565b604051808273ffffffffffffffffffffffffffffffffffffffff16815260200191505060405180910390f35b3480156109e857600080fd5b50610a35600480360360408110156109ff57600080fd5b8101908080359060200190929190803573ffffffffffffffffffffffffffffffffffffffff169060200190929190505050613041565b60405180821515815260200191505060405180910390f35b348015610a5957600080fd5b50610a9c60048036036020811015610a7057600080fd5b81019080803573ffffffffffffffffffffffffffffffffffffffff169060200190929190505050613073565b005b348015610aaa57600080fd5b50610ab361313d565b6040518082815260200191505060405180910390f35b348015610ad557600080fd5b50610ade613144565b6040518082815260200191505060405180910390f35b348015610b0057600080fd5b50610bcd60048036036040811015610b1757600080fd5b8101908080359060200190640100000000811115610b3457600080fd5b820183602082011115610b4657600080fd5b80359060200191846020830284011164010000000083111715610b6857600080fd5b909192939192939080359060200190640100000000811115610b8957600080fd5b820183602082011115610b9b57600080fd5b80359060200191846020830284011164010000000083111715610bbd57600080fd5b909192939192939050505061314e565b005b348015610bdb57600080fd5b50610c0860048036036020811015610bf257600080fd5b81019080803590602001909291905050506132bb565b6040518082815260200191505060405180910390f35b348015610c2a57600080fd5b50610c7760048036036040811015610c4157600080fd5b81019080803573ffffffffffffffffffffffffffffffffffffffff169060200190929190803590602001909291905050506132e2565b005b348015610c8557600080fd5b50610c8e61342c565b604051808273ffffffffffffffffffffffffffffffffffffffff16815260200191505060405180910390f35b348015610cc657600080fd5b50610d1360048036036040811015610cdd57600080fd5b8101908080359060200190929190803573ffffffffffffffffffffffffffffffffffffffff169060200190929190505050613452565b005b348015610d2157600080fd5b50610d2a6134dc565b604051808273ffffffffffffffffffffffffffffffffffffffff16815260200191505060405180910390f35b348015610d6257600080fd5b50610da560048036036020811015610d7957600080fd5b81019080803573ffffffffffffffffffffffffffffffffffffffff169060200190929190505050613502565b005b348015610db357600080fd5b50610df660048036036020811015610dca57600080fd5b81019080803573ffffffffffffffffffffffffffffffffffffffff1690602001909291905050506135cc565b6040518082815260200191505060405180910390f35b348015610e1857600080fd5b50610e216136e9565b6040518082815260200191505060405180910390f35b348015610e4357600080fd5b50610e9060048036036040811015610e5a57600080fd5b81019080803573ffffffffffffffffffffffffffffffffffffffff169060200190929190803590602001909291905050506136ef565b005b348015610e9e57600080fd5b50610ee160048036036020811015610eb557600080fd5b81019080803573ffffffffffffffffffffffffffffffffffffffff169060200190929190505050613856565b005b60026003541415610f5c576040517f08c379a000000000000000000000000000000000000000000000000000000000815260040180806020018281038252601f8152602001807f5265656e7472616e637947756172643a207265656e7472616e742063616c6c0081525060200191505060405180910390fd5b60026003819055503273ffffffffffffffffffffffffffffffffffffffff16610f83613a4b565b73ffffffffffffffffffffffffffffffffffffffff1614610fef576040517f08c379a00000000000000000000000000000000000000000000000000000000081526004018080602001828103825260268152602001806141ae6026913960400191505060405180910390fd5b600760009054906101000a900473ffffffffffffffffffffffffffffffffffffffff1673ffffffffffffffffffffffffffffffffffffffff1663b36d6919611035613a4b565b6040518263ffffffff1660e01b8152600401808273ffffffffffffffffffffffffffffffffffffffff16815260200191505060206040518083038186803b15801561107f57600080fd5b505afa158015611093573d6000803e3d6000fd5b505050506040513d60208110156110a957600080fd5b81019080805190602001909291905050501561112d576040517f08c379a00000000000000000000000000000000000000000000000000000000081526004018080602001828103825260158152602001807f596f752061726520696e20626c61636b206c697374000000000000000000000081525060200191505060405180910390fd5b60148282905011156111a7576040517f08c379a00000000000000000000000000000000000000000000000000000000081526004018080602001828103825260188152602001807f616d6f756e74207374616b65206e66742065786365656420000000000000000081525060200191505060405180910390fd5b6000805b8383905081101561158e5760008484838181106111c457fe5b9050602002013563ffffffff1663ffffffff16141561124b576040517f08c379a000000000000000000000000000000000000000000000000000000000815260040180806020018281038252600d8152602001807f5f6e6674496473206572726f720000000000000000000000000000000000000081525060200191505060405180910390fd5b611253613a4b565b73ffffffffffffffffffffffffffffffffffffffff16600560009054906101000a900473ffffffffffffffffffffffffffffffffffffffff1673ffffffffffffffffffffffffffffffffffffffff16636352211e8686858181106112b357fe5b9050602002013563ffffffff166040518263ffffffff1660e01b8152600401808263ffffffff16815260200191505060206040518083038186803b1580156112fa57600080fd5b505afa15801561130e573d6000803e3d6000fd5b505050506040513d602081101561132457600080fd5b810190808051906020019092919050505073ffffffffffffffffffffffffffffffffffffffff16146113be576040517f08c379a000000000000000000000000000000000000000000000000000000000815260040180806020018281038252600d8152602001807f4e4654206e6f7420796f7572730000000000000000000000000000000000000081525060200191505060405180910390fd5b6000600f60008686858181106113d057fe5b9050602002013563ffffffff1663ffffffff168152602001908152602001600020541415611466576040517f08c379a00000000000000000000000000000000000000000000000000000000081526004018080602001828103825260158152602001807f4e46542073686f756c64206265207374616b696e67000000000000000000000081525060200191505060405180910390fd5b600f600085858481811061147657fe5b9050602002013563ffffffff1663ffffffff1681526020019081526020016000206000905561157f600560009054906101000a900473ffffffffffffffffffffffffffffffffffffffff1673ffffffffffffffffffffffffffffffffffffffff1663df8a78da8686858181106114e857fe5b9050602002013563ffffffff166040518263ffffffff1660e01b8152600401808263ffffffff16815260200191505060206040518083038186803b15801561152f57600080fd5b505afa158015611543573d6000803e3d6000fd5b505050506040513d602081101561155957600080fd5b810190808051906020019092919050505063ffffffff1683613a5390919063ffffffff16565b915080806001019150506111ab565b506000600e600061159d613a4b565b73ffffffffffffffffffffffffffffffffffffffff1673ffffffffffffffffffffffffffffffffffffffff16815260200190815260200160002090508181600001541015611636576040517f08c379a000000000000000000000000000000000000000000000000000000000815260040180806020018281038252602281526020018061410d6022913960400191505060405180910390fd5b61163e612e5c565b6000611686826001015461167864e8d4a5100061166a600c548760000154613adb90919063ffffffff16565b613b6190919063ffffffff16565b613bea90919063ffffffff16565b9050600081111561176857600460009054906101000a900473ffffffffffffffffffffffffffffffffffffffff1673ffffffffffffffffffffffffffffffffffffffff1663a9059cbb6116d7613a4b565b836040518363ffffffff1660e01b8152600401808373ffffffffffffffffffffffffffffffffffffffff16815260200182815260200192505050602060405180830381600087803b15801561172b57600080fd5b505af115801561173f573d6000803e3d6000fd5b505050506040513d602081101561175557600080fd5b8101908080519060200190929190505050505b60008311156117ac57611788838360000154613bea90919063ffffffff16565b82600001819055506117a583600d54613bea90919063ffffffff16565b600d819055505b6117dc64e8d4a510006117ce600c548560000154613adb90919063ffffffff16565b613b6190919063ffffffff16565b82600101819055506117ec613a4b565b73ffffffffffffffffffffffffffffffffffffffff167fc60bfeed279ca19561b6fe093c91b3cf2e50fd81a6c27103a84118fd031917d986868660405180806020018381526020018281038252858582818152602001925060200280828437600081840152601f19601f82011690508083019250505094505050505060405180910390a250505060016003819055505050565b600460009054906101000a900473ffffffffffffffffffffffffffffffffffffffff1681565b600e6020528060005260406000206000915090508060000154908060010154908060020154905083565b600060019054906101000a900460ff16806118ee57506118ed613c6d565b5b80611904575060008054906101000a900460ff16155b611959576040517f08c379a000000000000000000000000000000000000000000000000000000000815260040180806020018281038252602e81526020018061415f602e913960400191505060405180910390fd5b60008060019054906101000a900460ff1615905080156119a9576001600060016101000a81548160ff02191690831515021790555060016000806101000a81548160ff0219169083151502179055505b6119b66000801b8a613c7e565b87600a819055508660098190555085600460006101000a81548173ffffffffffffffffffffffffffffffffffffffff021916908373ffffffffffffffffffffffffffffffffffffffff16021790555084600660006101000a81548173ffffffffffffffffffffffffffffffffffffffff021916908373ffffffffffffffffffffffffffffffffffffffff16021790555083600760006101000a81548173ffffffffffffffffffffffffffffffffffffffff021916908373ffffffffffffffffffffffffffffffffffffffff16021790555082600860006101000a81548173ffffffffffffffffffffffffffffffffffffffff021916908373ffffffffffffffffffffffffffffffffffffffff16021790555081600560006101000a81548173ffffffffffffffffffffffffffffffffffffffff021916908373ffffffffffffffffffffffffffffffffffffffff1602179055508015611b2a5760008060016101000a81548160ff0219169083151502179055505b505050505050505050565b60026003541415611bae576040517f08c379a000000000000000000000000000000000000000000000000000000000815260040180806020018281038252601f8152602001807f5265656e7472616e637947756172643a207265656e7472616e742063616c6c0081525060200191505060405180910390fd5b60026003819055503273ffffffffffffffffffffffffffffffffffffffff16611bd5613a4b565b73ffffffffffffffffffffffffffffffffffffffff1614611c41576040517f08c379a00000000000000000000000000000000000000000000000000000000081526004018080602001828103825260268152602001806141ae6026913960400191505060405180910390fd5b600760009054906101000a900473ffffffffffffffffffffffffffffffffffffffff1673ffffffffffffffffffffffffffffffffffffffff1663b36d6919611c87613a4b565b6040518263ffffffff1660e01b8152600401808273ffffffffffffffffffffffffffffffffffffffff16815260200191505060206040518083038186803b158015611cd157600080fd5b505afa158015611ce5573d6000803e3d6000fd5b505050506040513d6020811015611cfb57600080fd5b810190808051906020019092919050505015611d7f576040517f08c379a00000000000000000000000000000000000000000000000000000000081526004018080602001828103825260158152602001807f596f752061726520696e20626c61636b206c697374000000000000000000000081525060200191505060405180910390fd5b6014828290501115611df9576040517f08c379a00000000000000000000000000000000000000000000000000000000081526004018080602001828103825260188152602001807f616d6f756e74207374616b65206e66742065786365656420000000000000000081525060200191505060405180910390fd5b6000805b8383905081101561237f576000848483818110611e1657fe5b9050602002013563ffffffff1663ffffffff161415611e9d576040517f08c379a000000000000000000000000000000000000000000000000000000000815260040180806020018281038252600d8152602001807f5f6e6674496473206572726f720000000000000000000000000000000000000081525060200191505060405180910390fd5b611ea5613a4b565b73ffffffffffffffffffffffffffffffffffffffff16600560009054906101000a900473ffffffffffffffffffffffffffffffffffffffff1673ffffffffffffffffffffffffffffffffffffffff16636352211e868685818110611f0557fe5b9050602002013563ffffffff166040518263ffffffff1660e01b8152600401808263ffffffff16815260200191505060206040518083038186803b158015611f4c57600080fd5b505afa158015611f60573d6000803e3d6000fd5b505050506040513d6020811015611f7657600080fd5b810190808051906020019092919050505073ffffffffffffffffffffffffffffffffffffffff1614612010576040517f08c379a000000000000000000000000000000000000000000000000000000000815260040180806020018281038252600d8152602001807f4e4654206e6f7420796f7572730000000000000000000000000000000000000081525060200191505060405180910390fd5b6000600f600086868581811061202257fe5b9050602002013563ffffffff1663ffffffff16815260200190815260200160002054146120b7576040517f08c379a000000000000000000000000000000000000000000000000000000000815260040180806020018281038252600e8152602001807f4e4654206973207374616b696e6700000000000000000000000000000000000081525060200191505060405180910390fd5b6000600860009054906101000a900473ffffffffffffffffffffffffffffffffffffffff1673ffffffffffffffffffffffffffffffffffffffff16630568c0aa86868581811061210357fe5b9050602002013563ffffffff16600560009054906101000a900473ffffffffffffffffffffffffffffffffffffffff166040518363ffffffff1660e01b8152600401808363ffffffff1681526020018273ffffffffffffffffffffffffffffffffffffffff1681526020019250505060206040518083038186803b15801561218a57600080fd5b505afa15801561219e573d6000803e3d6000fd5b505050506040513d60208110156121b457600080fd5b810190808051906020019092919050505014612238576040517f08c379a000000000000000000000000000000000000000000000000000000000815260040180806020018281038252600e8152602001807f4e46542069732073656c6c696e6700000000000000000000000000000000000081525060200191505060405180910390fd5b83838281811061224457fe5b9050602002013563ffffffff1663ffffffff16600f600086868581811061226757fe5b9050602002013563ffffffff1663ffffffff16815260200190815260200160002081905550612370600560009054906101000a900473ffffffffffffffffffffffffffffffffffffffff1673ffffffffffffffffffffffffffffffffffffffff1663df8a78da8686858181106122d957fe5b9050602002013563ffffffff166040518263ffffffff1660e01b8152600401808263ffffffff16815260200191505060206040518083038186803b15801561232057600080fd5b505afa158015612334573d6000803e3d6000fd5b505050506040513d602081101561234a57600080fd5b810190808051906020019092919050505063ffffffff1683613a5390919063ffffffff16565b91508080600101915050611dfd565b506000600e600061238e613a4b565b73ffffffffffffffffffffffffffffffffffffffff1673ffffffffffffffffffffffffffffffffffffffff16815260200190815260200160002090506123d2612e5c565b60008160000154111561250b576000612427826001015461241964e8d4a5100061240b600c548760000154613adb90919063ffffffff16565b613b6190919063ffffffff16565b613bea90919063ffffffff16565b9050600081111561250957600460009054906101000a900473ffffffffffffffffffffffffffffffffffffffff1673ffffffffffffffffffffffffffffffffffffffff1663a9059cbb612478613a4b565b836040518363ffffffff1660e01b8152600401808373ffffffffffffffffffffffffffffffffffffffff16815260200182815260200192505050602060405180830381600087803b1580156124cc57600080fd5b505af11580156124e0573d6000803e3d6000fd5b505050506040513d60208110156124f657600080fd5b8101908080519060200190929190505050505b505b600082111561254f5761252b828260000154613a5390919063ffffffff16565b816000018190555061254882600d54613a5390919063ffffffff16565b600d819055505b61257f64e8d4a51000612571600c548460000154613adb90919063ffffffff16565b613b6190919063ffffffff16565b8160010181905550428160020181905550612598613a4b565b73ffffffffffffffffffffffffffffffffffffffff167f75e581420ad2f3357b3ba885168c03d67d1da1d94cad3460003fbb08b0d9038e85858560405180806020018381526020018281038252858582818152602001925060200280828437600081840152601f19601f82011690508083019250505094505050505060405180910390a2505060016003819055505050565b600060016000838152602001908152602001600020600201549050919050565b600860009054906101000a900473ffffffffffffffffffffffffffffffffffffffff1681565b6126846000801b61267f613a4b565b613041565b6126f6576040517f08c379a00000000000000000000000000000000000000000000000000000000081526004018080602001828103825260168152602001807f41646d696e20726f6c652069732072657175697265640000000000000000000081525060200191505060405180910390fd5b80600660006101000a81548173ffffffffffffffffffffffffffffffffffffffff021916908373ffffffffffffffffffffffffffffffffffffffff16021790555050565b612761600160008481526020019081526020016000206002015461275c613a4b565b613041565b6127b6576040517f08c379a000000000000000000000000000000000000000000000000000000000815260040180806020018281038252602f8152602001806140b8602f913960400191505060405180910390fd5b6127c08282613c8c565b5050565b6127d86000801b6127d3613a4b565b613041565b61284a576040517f08c379a00000000000000000000000000000000000000000000000000000000081526004018080602001828103825260168152602001807f41646d696e20726f6c652069732072657175697265640000000000000000000081525060200191505060405180910390fd5b8060098190555050565b61285c613a4b565b73ffffffffffffffffffffffffffffffffffffffff168173ffffffffffffffffffffffffffffffffffffffff16146128df576040517f08c379a000000000000000000000000000000000000000000000000000000000815260040180806020018281038252602f8152602001806141d4602f913960400191505060405180910390fd5b6128e98282613d20565b5050565b6000600f6000838152602001908152602001600020549050919050565b600a5481565b60026003541415612989576040517f08c379a000000000000000000000000000000000000000000000000000000000815260040180806020018281038252601f8152602001807f5265656e7472616e637947756172643a207265656e7472616e742063616c6c0081525060200191505060405180910390fd5b60026003819055506000600e600061299f613a4b565b73ffffffffffffffffffffffffffffffffffffffff1673ffffffffffffffffffffffffffffffffffffffff16815260200190815260200160002090506129e3612e5c565b6000612a2b8260010154612a1d64e8d4a51000612a0f600c548760000154613adb90919063ffffffff16565b613b6190919063ffffffff16565b613bea90919063ffffffff16565b90506000811115612b0d57600460009054906101000a900473ffffffffffffffffffffffffffffffffffffffff1673ffffffffffffffffffffffffffffffffffffffff1663a9059cbb612a7c613a4b565b836040518363ffffffff1660e01b8152600401808373ffffffffffffffffffffffffffffffffffffffff16815260200182815260200192505050602060405180830381600087803b158015612ad057600080fd5b505af1158015612ae4573d6000803e3d6000fd5b505050506040513d6020811015612afa57600080fd5b8101908080519060200190929190505050505b612b3d64e8d4a51000612b2f600c548560000154613adb90919063ffffffff16565b613b6190919063ffffffff16565b8260010181905550612b4d613a4b565b73ffffffffffffffffffffffffffffffffffffffff167f47cee97cb7acd717b3c0aa1435d004cd5b3c8c57d70dbceb4e4458bbd60e39d4826040518082815260200191505060405180910390a250506001600381905550565b600f6020528060005260406000206000915090505481565b600080600080600e60008673ffffffffffffffffffffffffffffffffffffffff1673ffffffffffffffffffffffffffffffffffffffff1681526020019081526020016000209050806000015481600101548260020154935093509350509193909250565b612c366000801b612c31613a4b565b613041565b612ca8576040517f08c379a00000000000000000000000000000000000000000000000000000000081526004018080602001828103825260168152602001807f41646d696e20726f6c652069732072657175697265640000000000000000000081525060200191505060405180910390fd5b80600560006101000a81548173ffffffffffffffffffffffffffffffffffffffff021916908373ffffffffffffffffffffffffffffffffffffffff16021790555050565b612cf4613a4b565b73ffffffffffffffffffffffffffffffffffffffff16612d12612fc8565b73ffffffffffffffffffffffffffffffffffffffff1614612d9b576040517f08c379a00000000000000000000000000000000000000000000000000000000081526004018080602001828103825260208152602001807f4f776e61626c653a2063616c6c6572206973206e6f7420746865206f776e657281525060200191505060405180910390fd5b600073ffffffffffffffffffffffffffffffffffffffff16600260009054906101000a900473ffffffffffffffffffffffffffffffffffffffff1673ffffffffffffffffffffffffffffffffffffffff167f8be0079c531659141344cd1fd0a4f28419497f9722a3daafe3b4186f6b6457e060405160405180910390a36000600260006101000a81548173ffffffffffffffffffffffffffffffffffffffff021916908373ffffffffffffffffffffffffffffffffffffffff160217905550565b600b544311612e6a57612fa0565b6000600d541415612e815743600b81905550612fa0565b6000612e8f600b5443612ff2565b90506000612ea860095483613adb90919063ffffffff16565b9050612eea612ed9600d54612ecb64e8d4a5100085613adb90919063ffffffff16565b613b6190919063ffffffff16565b600c54613a5390919063ffffffff16565b600c8190555043600b81905550600660009054906101000a900473ffffffffffffffffffffffffffffffffffffffff1673ffffffffffffffffffffffffffffffffffffffff166339e7357c6040518163ffffffff1660e01b8152600401602060405180830381600087803b158015612f6157600080fd5b505af1158015612f75573d6000803e3d6000fd5b505050506040513d6020811015612f8b57600080fd5b81019080805190602001909291905050505050505b565b600760009054906101000a900473ffffffffffffffffffffffffffffffffffffffff1681565b6000600260009054906101000a900473ffffffffffffffffffffffffffffffffffffffff16905090565b60006130078383613bea90919063ffffffff16565b905092915050565b60006130398260016000868152602001908152602001600020600001613db490919063ffffffff16565b905092915050565b600061306b8260016000868152602001908152602001600020600001613dce90919063ffffffff16565b905092915050565b6130876000801b613082613a4b565b613041565b6130f9576040517f08c379a00000000000000000000000000000000000000000000000000000000081526004018080602001828103825260168152602001807f41646d696e20726f6c652069732072657175697265640000000000000000000081525060200191505060405180910390fd5b80600760006101000a81548173ffffffffffffffffffffffffffffffffffffffff021916908373ffffffffffffffffffffffffffffffffffffffff16021790555050565b6000801b81565b6000600d54905090565b6131626000801b61315d613a4b565b613041565b6131d4576040517f08c379a00000000000000000000000000000000000000000000000000000000081526004018080602001828103825260168152602001807f41646d696e20726f6c652069732072657175697265640000000000000000000081525060200191505060405180910390fd5b60005b848490508110156132b45760008585838181106131f057fe5b90506020020135141561326b576040517f08c379a000000000000000000000000000000000000000000000000000000000815260040180806020018281038252600d8152602001807f5f6e6674496473206572726f720000000000000000000000000000000000000081525060200191505060405180910390fd5b82828281811061327757fe5b90506020020135600f600087878581811061328e57fe5b9050602002013581526020019081526020016000208190555080806001019150506131d7565b5050505050565b60006132db60016000848152602001908152602001600020600001613dfe565b9050919050565b6132f66000801b6132f1613a4b565b613041565b613368576040517f08c379a00000000000000000000000000000000000000000000000000000000081526004018080602001828103825260168152602001807f41646d696e20726f6c652069732072657175697265640000000000000000000081525060200191505060405180910390fd5b80600d5410613428576133da816133cc600e60008673ffffffffffffffffffffffffffffffffffffffff1673ffffffffffffffffffffffffffffffffffffffff16815260200190815260200160002060000154600d54613bea90919063ffffffff16565b613a5390919063ffffffff16565b600d8190555080600e60008473ffffffffffffffffffffffffffffffffffffffff1673ffffffffffffffffffffffffffffffffffffffff168152602001908152602001600020600001819055505b5050565b600660009054906101000a900473ffffffffffffffffffffffffffffffffffffffff1681565b6134796001600084815260200190815260200160002060020154613474613a4b565b613041565b6134ce576040517f08c379a000000000000000000000000000000000000000000000000000000000815260040180806020018281038252603081526020018061412f6030913960400191505060405180910390fd5b6134d88282613d20565b5050565b600560009054906101000a900473ffffffffffffffffffffffffffffffffffffffff1681565b6135166000801b613511613a4b565b613041565b613588576040517f08c379a00000000000000000000000000000000000000000000000000000000081526004018080602001828103825260168152602001807f41646d696e20726f6c652069732072657175697265640000000000000000000081525060200191505060405180910390fd5b80600860006101000a81548173ffffffffffffffffffffffffffffffffffffffff021916908373ffffffffffffffffffffffffffffffffffffffff16021790555050565b600080600e60008473ffffffffffffffffffffffffffffffffffffffff1673ffffffffffffffffffffffffffffffffffffffff16815260200190815260200160002090506000600c549050600b544311801561362b57506000600d5414155b1561369c57600061363e600b5443612ff2565b9050600061365760095483613adb90919063ffffffff16565b9050613697613688600d5461367a64e8d4a5100085613adb90919063ffffffff16565b613b6190919063ffffffff16565b84613a5390919063ffffffff16565b925050505b6136e082600101546136d264e8d4a510006136c4858760000154613adb90919063ffffffff16565b613b6190919063ffffffff16565b613bea90919063ffffffff16565b92505050919050565b60095481565b6136f7613a4b565b73ffffffffffffffffffffffffffffffffffffffff16613715612fc8565b73ffffffffffffffffffffffffffffffffffffffff161461379e576040517f08c379a00000000000000000000000000000000000000000000000000000000081526004018080602001828103825260208152602001807f4f776e61626c653a2063616c6c6572206973206e6f7420746865206f776e657281525060200191505060405180910390fd5b8173ffffffffffffffffffffffffffffffffffffffff1663a9059cbb6137c2613a4b565b836040518363ffffffff1660e01b8152600401808373ffffffffffffffffffffffffffffffffffffffff16815260200182815260200192505050602060405180830381600087803b15801561381657600080fd5b505af115801561382a573d6000803e3d6000fd5b505050506040513d602081101561384057600080fd5b8101908080519060200190929190505050505050565b61385e613a4b565b73ffffffffffffffffffffffffffffffffffffffff1661387c612fc8565b73ffffffffffffffffffffffffffffffffffffffff1614613905576040517f08c379a00000000000000000000000000000000000000000000000000000000081526004018080602001828103825260208152602001807f4f776e61626c653a2063616c6c6572206973206e6f7420746865206f776e657281525060200191505060405180910390fd5b600073ffffffffffffffffffffffffffffffffffffffff168173ffffffffffffffffffffffffffffffffffffffff16141561398b576040517f08c379a00000000000000000000000000000000000000000000000000000000081526004018080602001828103825260268152602001806140e76026913960400191505060405180910390fd5b8073ffffffffffffffffffffffffffffffffffffffff16600260009054906101000a900473ffffffffffffffffffffffffffffffffffffffff1673ffffffffffffffffffffffffffffffffffffffff167f8be0079c531659141344cd1fd0a4f28419497f9722a3daafe3b4186f6b6457e060405160405180910390a380600260006101000a81548173ffffffffffffffffffffffffffffffffffffffff021916908373ffffffffffffffffffffffffffffffffffffffff16021790555050565b600033905090565b600080828401905083811015613ad1576040517f08c379a000000000000000000000000000000000000000000000000000000000815260040180806020018281038252601b8152602001807f536166654d6174683a206164646974696f6e206f766572666c6f77000000000081525060200191505060405180910390fd5b8091505092915050565b600080831415613aee5760009050613b5b565b6000828402905082848281613aff57fe5b0414613b56576040517f08c379a000000000000000000000000000000000000000000000000000000000815260040180806020018281038252602181526020018061418d6021913960400191505060405180910390fd5b809150505b92915050565b6000808211613bd8576040517f08c379a000000000000000000000000000000000000000000000000000000000815260040180806020018281038252601a8152602001807f536166654d6174683a206469766973696f6e206279207a65726f00000000000081525060200191505060405180910390fd5b818381613be157fe5b04905092915050565b600082821115613c62576040517f08c379a000000000000000000000000000000000000000000000000000000000815260040180806020018281038252601e8152602001807f536166654d6174683a207375627472616374696f6e206f766572666c6f77000081525060200191505060405180910390fd5b818303905092915050565b6000613c7830613e13565b15905090565b613c888282613c8c565b5050565b613cb48160016000858152602001908152602001600020600001613e2690919063ffffffff16565b15613d1c57613cc1613a4b565b73ffffffffffffffffffffffffffffffffffffffff168173ffffffffffffffffffffffffffffffffffffffff16837f2f8788117e7eff1d82e926ec794901d17c78024a50270940304540a733656f0d60405160405180910390a45b5050565b613d488160016000858152602001908152602001600020600001613e5690919063ffffffff16565b15613db057613d55613a4b565b73ffffffffffffffffffffffffffffffffffffffff168173ffffffffffffffffffffffffffffffffffffffff16837ff6391f5c32d9c69d2a47ea670b442974b53935d1edc7fd64eb21e047a839171b60405160405180910390a45b5050565b6000613dc38360000183613e86565b60001c905092915050565b6000613df6836000018373ffffffffffffffffffffffffffffffffffffffff1660001b613f09565b905092915050565b6000613e0c82600001613f2c565b9050919050565b600080823b905060008111915050919050565b6000613e4e836000018373ffffffffffffffffffffffffffffffffffffffff1660001b613f3d565b905092915050565b6000613e7e836000018373ffffffffffffffffffffffffffffffffffffffff1660001b613fad565b905092915050565b600081836000018054905011613ee7576040517f08c379a00000000000000000000000000000000000000000000000000000000081526004018080602001828103825260228152602001806140966022913960400191505060405180910390fd5b826000018281548110613ef657fe5b9060005260206000200154905092915050565b600080836001016000848152602001908152602001600020541415905092915050565b600081600001805490509050919050565b6000613f498383613f09565b613fa2578260000182908060018154018082558091505060019003906000526020600020016000909190919091505582600001805490508360010160008481526020019081526020016000208190555060019050613fa7565b600090505b92915050565b600080836001016000848152602001908152602001600020549050600081146140895760006001820390506000600186600001805490500390506000866000018281548110613ff857fe5b906000526020600020015490508087600001848154811061401557fe5b906000526020600020018190555060018301876001016000838152602001908152602001600020819055508660000180548061404d57fe5b6001900381819060005260206000200160009055905586600101600087815260200190815260200160002060009055600194505050505061408f565b60009150505b9291505056fe456e756d657261626c655365743a20696e646578206f7574206f6620626f756e6473416363657373436f6e74726f6c3a2073656e646572206d75737420626520616e2061646d696e20746f206772616e744f776e61626c653a206e6577206f776e657220697320746865207a65726f2061646472657373756e5374616b653a20686173682069732065786365656420746f2062616c616e6365416363657373436f6e74726f6c3a2073656e646572206d75737420626520616e2061646d696e20746f207265766f6b65496e697469616c697a61626c653a20636f6e747261637420697320616c726561647920696e697469616c697a6564536166654d6174683a206d756c7469706c69636174696f6e206f766572666c6f77465761724d696e696e673a2043616e206e6f742063616c6c2066726f6d20636f6e7472616374416363657373436f6e74726f6c3a2063616e206f6e6c792072656e6f756e636520726f6c657320666f722073656c66a264697066735822122058536994896b476a6c0384429e5c5aeab26d44bcb1c8ed354b51eac66e0e5afd64736f6c634300060c0033",
  "immutableReferences": {},
  "source": "// SPDX-License-Identifier: MIT\npragma solidity 0.6.12;\n// pragma experimental ABIEncoderV2;\n\nimport \"@openzeppelin/contracts/token/ERC721/ERC721.sol\";\nimport \"@openzeppelin/contracts/token/ERC20/IERC20.sol\";\nimport \"@openzeppelin/contracts/token/ERC20/SafeERC20.sol\";\nimport \"@openzeppelin/contracts/access/AccessControl.sol\";\nimport \"@openzeppelin/contracts/access/Ownable.sol\";\nimport \"@openzeppelin/contracts/proxy/Initializable.sol\";\nimport '@openzeppelin/contracts/utils/ReentrancyGuard.sol';\n\nimport \"./FwarMiningStorage.sol\";\n\ninterface ISeed {\n    function getSeed() external returns(uint256);\n}\n\ninterface IFwarBlackList {\n    function isBlackList(address _address) external view returns (bool);\n}\n\ninterface IFwarChar {\n    function getHash(uint32 _id) external view returns (uint32 hash);\n}\n\ninterface IFwarMarket {\n    function getSellingNFT(uint _nftId, address _nftContract) external view returns (uint);\n}\n\ncontract FwarMining is Initializable, AccessControl, Ownable, ReentrancyGuard, FwarMiningStorage {\n    using SafeERC20 for IERC20;\n    using SafeMath for uint256;\n\n    event Stake(address indexed _owner, uint32[] _nftIds, uint _amount);\n    event Unstake(address indexed _owner, uint32[] _nftIds, uint _amount);\n    event Claim(address indexed _owner, uint _amount);\n\n    function initialize(\n        address admin,\n        uint256 _startBlock,\n        uint256 _fwtPerBlock,\n        address _fwtAddress,\n        address _seedAddress,\n        address _blackListAddress,\n        address _fwarMarketAddress,\n        address _nftContract\n    ) public payable initializer {\n\n        _setupRole(DEFAULT_ADMIN_ROLE, admin);\n\n        startBlock = _startBlock;\n        fwtPerBlock = _fwtPerBlock;\n        fwtAddress = _fwtAddress;\n        seedAddress = _seedAddress;\n        blackListAddress = _blackListAddress;\n        fwarMarketAddress = _fwarMarketAddress;\n        nftContract = _nftContract;\n    }\n\n    // only called by owner once a day\n    function setFWTPerBlock(uint256 _fwtPerBlock) external {\n        require(hasRole(DEFAULT_ADMIN_ROLE, _msgSender()), 'Admin role is required');\n        fwtPerBlock = _fwtPerBlock;\n    }\n\n    function setBlackListAddress(address _blackListAddress) external{\n        require(hasRole(DEFAULT_ADMIN_ROLE, _msgSender()), 'Admin role is required');\n        blackListAddress = _blackListAddress;\n    }\n\n    function setNFTAddress(address _nftContract) public {\n        require(hasRole(DEFAULT_ADMIN_ROLE, _msgSender()), 'Admin role is required');\n        nftContract = _nftContract;\n    }\n\n    function setSeedAddress(address _seedAddress) external {\n        require(hasRole(DEFAULT_ADMIN_ROLE, _msgSender()), 'Admin role is required');\n        seedAddress = _seedAddress;\n    }\n\n    function setFwarMarketAddress(address _fwarMarketAddress) external {\n        require(hasRole(DEFAULT_ADMIN_ROLE, _msgSender()), 'Admin role is required');\n        fwarMarketAddress = _fwarMarketAddress;\n    }\n\n    function setStakingNFT(uint[] calldata _nftIds, uint[] calldata _values) external {\n        require(hasRole(DEFAULT_ADMIN_ROLE, _msgSender()), 'Admin role is required');\n        for (uint i = 0; i < _nftIds.length; i++) {\n            require(_nftIds[i] != 0, \"_nftIds error\");\n            stakingNFT[_nftIds[i]] = _values[i];\n        }\n    }\n\n    function setHash(address _user, uint _hash) external {\n        require(hasRole(DEFAULT_ADMIN_ROLE, _msgSender()), 'Admin role is required');\n        if(totalHash >= _hash) {\n          totalHash = totalHash.sub(userInfo[_user].hash).add(_hash);\n          userInfo[_user].hash = _hash;\n        }\n    }\n\n    function getStakingNFT(uint _nftId) external view returns (uint) {\n        return stakingNFT[_nftId];\n    }\n\n    function getTotalHash() external view returns (uint) {\n        return totalHash;\n    }\n\n    function getUserInfo(address _user) external view returns (uint hash, uint rewardDebt, uint lastStakeTime) {\n      UserInfo storage user = userInfo[_user];\n      return(user.hash, user.rewardDebt, user.lastStakeTime);\n    }\n\n    function getMultiplier(uint256 _from, uint256 _to) public pure returns (uint256) {\n        return _to.sub(_from);\n    }\n\n    // View fwt pending by user\n    function pendingFWT(address _user) external view returns (uint256) {\n        UserInfo storage user = userInfo[_user];\n        uint256 accFWTPerShareTemp = accFWTPerShare;\n        if (block.number > lastRewardBlock && totalHash != 0) {\n            uint256 multiplier = getMultiplier(lastRewardBlock, block.number);\n            uint256 fwtReward = multiplier.mul(fwtPerBlock);\n            accFWTPerShareTemp = accFWTPerShareTemp.add(fwtReward.mul(1e12).div(totalHash));\n        }\n        return user.hash.mul(accFWTPerShareTemp).div(1e12).sub(user.rewardDebt);\n    }\n\n    //Update mining infomation\n    function updateMining() public {\n        if (block.number <= lastRewardBlock) {\n            return;\n        }\n        if (totalHash == 0) {\n            lastRewardBlock = block.number;\n            return;\n        }\n        uint256 multiplier = getMultiplier(lastRewardBlock, block.number);\n        uint256 fwtReward = multiplier.mul(fwtPerBlock);\n        accFWTPerShare = accFWTPerShare.add(fwtReward.mul(1e12).div(totalHash));\n        lastRewardBlock = block.number;\n        //Call for generate new seed for random\n        ISeed(seedAddress).getSeed();\n    }\n\n    /// @dev stake is called by a user\n    /// @param _nftIds is the array of nftId to stake\n    function stake(uint32[] calldata _nftIds) external nonReentrant{\n        require(_msgSender() == tx.origin, \"FWarMining: Can not call from contract\");\n        require(!IFwarBlackList(blackListAddress).isBlackList(_msgSender()), \"You are in black list\");\n        require(_nftIds.length <= 20, \"amount stake nft exceed \");\n\n        uint amount = 0;\n\n        for (uint i = 0; i < _nftIds.length; i++) {\n            require(_nftIds[i] != 0, \"_nftIds error\");\n            require(IERC721(nftContract).ownerOf(_nftIds[i]) == _msgSender(), \"NFT not yours\");\n            require(stakingNFT[_nftIds[i]] == 0, \"NFT is staking\");\n            require(IFwarMarket(fwarMarketAddress).getSellingNFT(_nftIds[i], nftContract) == 0, \"NFT is selling\");\n            stakingNFT[_nftIds[i]] = _nftIds[i];\n            amount = amount.add(IFwarChar(nftContract).getHash(_nftIds[i]));\n        }\n\n        UserInfo storage user = userInfo[_msgSender()];\n\n        updateMining();\n\n        if (user.hash > 0) {\n            uint256 pending = user.hash.mul(accFWTPerShare).div(1e12).sub(user.rewardDebt);\n            if (pending > 0) {\n              IERC20(fwtAddress).transfer(_msgSender(), pending);\n            }\n        }\n\n        if (amount > 0) {\n            user.hash = user.hash.add(amount);\n            totalHash = totalHash.add(amount);\n        }\n\n        user.rewardDebt = user.hash.mul(accFWTPerShare).div(1e12);\n        user.lastStakeTime = block.timestamp;\n\n        emit Stake(_msgSender(), _nftIds, amount);\n    }\n\n    /// @dev unStake is called by a user\n    /// @param _nftIds is the array of nftId to unStake\n    function unStake(uint32[] calldata _nftIds) external nonReentrant{\n        require(_msgSender() == tx.origin, \"FWarMining: Can not call from contract\");\n        require(!IFwarBlackList(blackListAddress).isBlackList(_msgSender()), \"You are in black list\");\n        require(_nftIds.length <= 20, \"amount stake nft exceed \");\n\n        uint amount = 0;\n\n        for (uint i = 0; i < _nftIds.length; i++) {\n            require(_nftIds[i] != 0, \"_nftIds error\");\n            require(IERC721(nftContract).ownerOf(_nftIds[i]) == _msgSender(), \"NFT not yours\");\n            require(stakingNFT[_nftIds[i]] != 0, \"NFT should be staking\");\n            delete stakingNFT[_nftIds[i]];\n\n            amount = amount.add(IFwarChar(nftContract).getHash(_nftIds[i]));\n        }\n\n        UserInfo storage user = userInfo[_msgSender()];\n        require(user.hash >= amount, \"unStake: hash is exceed to balance\");\n\n        updateMining();\n\n        uint256 pending = user.hash.mul(accFWTPerShare).div(1e12).sub(user.rewardDebt);\n        if (pending > 0) {\n            IERC20(fwtAddress).transfer(_msgSender(), pending);\n        }\n\n        if (amount > 0) {\n            user.hash = user.hash.sub(amount);\n            totalHash = totalHash.sub(amount);\n        }\n        user.rewardDebt = user.hash.mul(accFWTPerShare).div(1e12);\n\n        emit Unstake(_msgSender(), _nftIds, amount);\n    }\n\n    function claim() public nonReentrant{\n        UserInfo storage user = userInfo[_msgSender()];\n        updateMining();\n        uint256 pending = user.hash.mul(accFWTPerShare).div(1e12).sub(user.rewardDebt);\n        if (pending > 0) {\n            IERC20(fwtAddress).transfer(_msgSender(), pending);\n        }\n        user.rewardDebt = user.hash.mul(accFWTPerShare).div(1e12);\n        emit Claim(_msgSender(), pending);\n    }\n\n    receive() external payable {}\n\n    // function to allow admin to claim *other* ERC20 tokens sent to this contract (by mistake)\n    function withdrawERC20Tokens(address _tokenAddress, uint _amount) external onlyOwner {\n        IERC20(_tokenAddress).transfer(_msgSender(), _amount);\n    }\n}\n",
  "sourcePath": "/Users/badung1870/Working/Node/fwar-contracts/Fwar/FwarMining/contracts/FwarMining.sol",
  "compiler": {
    "name": "solc",
    "version": "0.6.12+commit.27d51765.Emscripten.clang"
  },
  "schemaVersion": "3.4.3",
  "updatedAt": "2021-11-24T09:17:13.564Z",
  "networkType": "ethereum",
  "devdoc": {
    "kind": "dev",
    "methods": {
      "getRoleAdmin(bytes32)": {
        "details": "Returns the admin role that controls `role`. See {grantRole} and {revokeRole}. To change a role's admin, use {_setRoleAdmin}."
      },
      "getRoleMember(bytes32,uint256)": {
        "details": "Returns one of the accounts that have `role`. `index` must be a value between 0 and {getRoleMemberCount}, non-inclusive. Role bearers are not sorted in any particular way, and their ordering may change at any point. WARNING: When using {getRoleMember} and {getRoleMemberCount}, make sure you perform all queries on the same block. See the following https://forum.openzeppelin.com/t/iterating-over-elements-on-enumerableset-in-openzeppelin-contracts/2296[forum post] for more information."
      },
      "getRoleMemberCount(bytes32)": {
        "details": "Returns the number of accounts that have `role`. Can be used together with {getRoleMember} to enumerate all bearers of a role."
      },
      "grantRole(bytes32,address)": {
        "details": "Grants `role` to `account`. If `account` had not been already granted `role`, emits a {RoleGranted} event. Requirements: - the caller must have ``role``'s admin role."
      },
      "hasRole(bytes32,address)": {
        "details": "Returns `true` if `account` has been granted `role`."
      },
      "owner()": {
        "details": "Returns the address of the current owner."
      },
      "renounceOwnership()": {
        "details": "Leaves the contract without owner. It will not be possible to call `onlyOwner` functions anymore. Can only be called by the current owner. NOTE: Renouncing ownership will leave the contract without an owner, thereby removing any functionality that is only available to the owner."
      },
      "renounceRole(bytes32,address)": {
        "details": "Revokes `role` from the calling account. Roles are often managed via {grantRole} and {revokeRole}: this function's purpose is to provide a mechanism for accounts to lose their privileges if they are compromised (such as when a trusted device is misplaced). If the calling account had been granted `role`, emits a {RoleRevoked} event. Requirements: - the caller must be `account`."
      },
      "revokeRole(bytes32,address)": {
        "details": "Revokes `role` from `account`. If `account` had been granted `role`, emits a {RoleRevoked} event. Requirements: - the caller must have ``role``'s admin role."
      },
      "stake(uint32[])": {
        "details": "stake is called by a user",
        "params": {
          "_nftIds": "is the array of nftId to stake"
        }
      },
      "transferOwnership(address)": {
        "details": "Transfers ownership of the contract to a new account (`newOwner`). Can only be called by the current owner."
      },
      "unStake(uint32[])": {
        "details": "unStake is called by a user",
        "params": {
          "_nftIds": "is the array of nftId to unStake"
        }
      }
    },
    "version": 1
  },
  "userdoc": {
    "kind": "user",
    "methods": {},
    "version": 1
  }
}