{
  "contractName": "FwarMarketDelegate",
  "abi": [
    {
      "anonymous": false,
      "inputs": [
        {
          "indexed": true,
          "internalType": "uint256",
          "name": "_orderId",
          "type": "uint256"
        },
        {
          "indexed": false,
          "internalType": "uint256[]",
          "name": "_nftIds",
          "type": "uint256[]"
        },
        {
          "indexed": true,
          "internalType": "address",
          "name": "_buyer",
          "type": "address"
        },
        {
          "indexed": false,
          "internalType": "address",
          "name": "_seller",
          "type": "address"
        },
        {
          "indexed": false,
          "internalType": "address",
          "name": "_nftContract",
          "type": "address"
        },
        {
          "indexed": false,
          "internalType": "address",
          "name": "_token",
          "type": "address"
        },
        {
          "indexed": true,
          "internalType": "uint256",
          "name": "price",
          "type": "uint256"
        }
      ],
      "name": "BuyOrder",
      "type": "event"
    },
    {
      "anonymous": false,
      "inputs": [
        {
          "indexed": true,
          "internalType": "address",
          "name": "_owner",
          "type": "address"
        },
        {
          "indexed": true,
          "internalType": "address",
          "name": "_nftContract",
          "type": "address"
        },
        {
          "indexed": true,
          "internalType": "uint256",
          "name": "_orderId",
          "type": "uint256"
        },
        {
          "indexed": false,
          "internalType": "uint256[]",
          "name": "_nftIds",
          "type": "uint256[]"
        }
      ],
      "name": "CancelOrder",
      "type": "event"
    },
    {
      "anonymous": false,
      "inputs": [
        {
          "indexed": true,
          "internalType": "uint256",
          "name": "_orderId",
          "type": "uint256"
        },
        {
          "indexed": false,
          "internalType": "uint256[]",
          "name": "_nftIds",
          "type": "uint256[]"
        },
        {
          "indexed": true,
          "internalType": "address",
          "name": "_seller",
          "type": "address"
        },
        {
          "indexed": false,
          "internalType": "address",
          "name": "_nftContract",
          "type": "address"
        },
        {
          "indexed": false,
          "internalType": "address",
          "name": "_token",
          "type": "address"
        },
        {
          "indexed": true,
          "internalType": "uint256",
          "name": "price",
          "type": "uint256"
        }
      ],
      "name": "CleanOrder",
      "type": "event"
    },
    {
      "anonymous": false,
      "inputs": [
        {
          "indexed": false,
          "internalType": "address",
          "name": "_owner",
          "type": "address"
        },
        {
          "indexed": true,
          "internalType": "address",
          "name": "_nftContract",
          "type": "address"
        },
        {
          "indexed": false,
          "internalType": "uint256[]",
          "name": "_nftIds",
          "type": "uint256[]"
        },
        {
          "indexed": true,
          "internalType": "address",
          "name": "_token",
          "type": "address"
        },
        {
          "indexed": true,
          "internalType": "uint256",
          "name": "_price",
          "type": "uint256"
        },
        {
          "indexed": false,
          "internalType": "uint256",
          "name": "_expiration",
          "type": "uint256"
        },
        {
          "indexed": false,
          "internalType": "uint256",
          "name": "_orderId",
          "type": "uint256"
        }
      ],
      "name": "CreateOrder",
      "type": "event"
    },
    {
      "anonymous": false,
      "inputs": [
        {
          "indexed": true,
          "internalType": "bytes32",
          "name": "role",
          "type": "bytes32"
        },
        {
          "indexed": true,
          "internalType": "bytes32",
          "name": "previousAdminRole",
          "type": "bytes32"
        },
        {
          "indexed": true,
          "internalType": "bytes32",
          "name": "newAdminRole",
          "type": "bytes32"
        }
      ],
      "name": "RoleAdminChanged",
      "type": "event"
    },
    {
      "anonymous": false,
      "inputs": [
        {
          "indexed": true,
          "internalType": "bytes32",
          "name": "role",
          "type": "bytes32"
        },
        {
          "indexed": true,
          "internalType": "address",
          "name": "account",
          "type": "address"
        },
        {
          "indexed": true,
          "internalType": "address",
          "name": "sender",
          "type": "address"
        }
      ],
      "name": "RoleGranted",
      "type": "event"
    },
    {
      "anonymous": false,
      "inputs": [
        {
          "indexed": true,
          "internalType": "bytes32",
          "name": "role",
          "type": "bytes32"
        },
        {
          "indexed": true,
          "internalType": "address",
          "name": "account",
          "type": "address"
        },
        {
          "indexed": true,
          "internalType": "address",
          "name": "sender",
          "type": "address"
        }
      ],
      "name": "RoleRevoked",
      "type": "event"
    },
    {
      "inputs": [],
      "name": "DEFAULT_ADMIN_ROLE",
      "outputs": [
        {
          "internalType": "bytes32",
          "name": "",
          "type": "bytes32"
        }
      ],
      "stateMutability": "view",
      "type": "function",
      "constant": true
    },
    {
      "inputs": [],
      "name": "blackListAddress",
      "outputs": [
        {
          "internalType": "address",
          "name": "",
          "type": "address"
        }
      ],
      "stateMutability": "view",
      "type": "function",
      "constant": true
    },
    {
      "inputs": [],
      "name": "feeRate",
      "outputs": [
        {
          "internalType": "uint256",
          "name": "",
          "type": "uint256"
        }
      ],
      "stateMutability": "view",
      "type": "function",
      "constant": true
    },
    {
      "inputs": [],
      "name": "feeTo",
      "outputs": [
        {
          "internalType": "address",
          "name": "",
          "type": "address"
        }
      ],
      "stateMutability": "view",
      "type": "function",
      "constant": true
    },
    {
      "inputs": [],
      "name": "fwarMiningAddress",
      "outputs": [
        {
          "internalType": "address",
          "name": "",
          "type": "address"
        }
      ],
      "stateMutability": "view",
      "type": "function",
      "constant": true
    },
    {
      "inputs": [
        {
          "internalType": "bytes32",
          "name": "role",
          "type": "bytes32"
        }
      ],
      "name": "getRoleAdmin",
      "outputs": [
        {
          "internalType": "bytes32",
          "name": "",
          "type": "bytes32"
        }
      ],
      "stateMutability": "view",
      "type": "function",
      "constant": true
    },
    {
      "inputs": [
        {
          "internalType": "bytes32",
          "name": "role",
          "type": "bytes32"
        },
        {
          "internalType": "uint256",
          "name": "index",
          "type": "uint256"
        }
      ],
      "name": "getRoleMember",
      "outputs": [
        {
          "internalType": "address",
          "name": "",
          "type": "address"
        }
      ],
      "stateMutability": "view",
      "type": "function",
      "constant": true
    },
    {
      "inputs": [
        {
          "internalType": "bytes32",
          "name": "role",
          "type": "bytes32"
        }
      ],
      "name": "getRoleMemberCount",
      "outputs": [
        {
          "internalType": "uint256",
          "name": "",
          "type": "uint256"
        }
      ],
      "stateMutability": "view",
      "type": "function",
      "constant": true
    },
    {
      "inputs": [
        {
          "internalType": "bytes32",
          "name": "role",
          "type": "bytes32"
        },
        {
          "internalType": "address",
          "name": "account",
          "type": "address"
        }
      ],
      "name": "grantRole",
      "outputs": [],
      "stateMutability": "nonpayable",
      "type": "function"
    },
    {
      "inputs": [
        {
          "internalType": "bytes32",
          "name": "role",
          "type": "bytes32"
        },
        {
          "internalType": "address",
          "name": "account",
          "type": "address"
        }
      ],
      "name": "hasRole",
      "outputs": [
        {
          "internalType": "bool",
          "name": "",
          "type": "bool"
        }
      ],
      "stateMutability": "view",
      "type": "function",
      "constant": true
    },
    {
      "inputs": [],
      "name": "maxExpirationTime",
      "outputs": [
        {
          "internalType": "uint256",
          "name": "",
          "type": "uint256"
        }
      ],
      "stateMutability": "view",
      "type": "function",
      "constant": true
    },
    {
      "inputs": [],
      "name": "minExpirationTime",
      "outputs": [
        {
          "internalType": "uint256",
          "name": "",
          "type": "uint256"
        }
      ],
      "stateMutability": "view",
      "type": "function",
      "constant": true
    },
    {
      "inputs": [
        {
          "internalType": "bytes32",
          "name": "role",
          "type": "bytes32"
        },
        {
          "internalType": "address",
          "name": "account",
          "type": "address"
        }
      ],
      "name": "renounceRole",
      "outputs": [],
      "stateMutability": "nonpayable",
      "type": "function"
    },
    {
      "inputs": [
        {
          "internalType": "bytes32",
          "name": "role",
          "type": "bytes32"
        },
        {
          "internalType": "address",
          "name": "account",
          "type": "address"
        }
      ],
      "name": "revokeRole",
      "outputs": [],
      "stateMutability": "nonpayable",
      "type": "function"
    },
    {
      "inputs": [],
      "name": "seedAddress",
      "outputs": [
        {
          "internalType": "address",
          "name": "",
          "type": "address"
        }
      ],
      "stateMutability": "view",
      "type": "function",
      "constant": true
    },
    {
      "inputs": [
        {
          "internalType": "address",
          "name": "admin",
          "type": "address"
        },
        {
          "internalType": "address",
          "name": "_seedAddress",
          "type": "address"
        },
        {
          "internalType": "address",
          "name": "_blackListAddress",
          "type": "address"
        },
        {
          "internalType": "address",
          "name": "_fwarMiningAddress",
          "type": "address"
        }
      ],
      "name": "initialize",
      "outputs": [],
      "stateMutability": "payable",
      "type": "function",
      "payable": true
    },
    {
      "inputs": [
        {
          "internalType": "uint256",
          "name": "_minExpirationTime",
          "type": "uint256"
        },
        {
          "internalType": "uint256",
          "name": "_maxExpirationTime",
          "type": "uint256"
        }
      ],
      "name": "configExpiration",
      "outputs": [],
      "stateMutability": "nonpayable",
      "type": "function"
    },
    {
      "inputs": [
        {
          "internalType": "address",
          "name": "_feeTo",
          "type": "address"
        },
        {
          "internalType": "uint256",
          "name": "_feeRate",
          "type": "uint256"
        }
      ],
      "name": "configFee",
      "outputs": [],
      "stateMutability": "nonpayable",
      "type": "function"
    },
    {
      "inputs": [
        {
          "internalType": "address",
          "name": "_nftAddress",
          "type": "address"
        },
        {
          "internalType": "uint256",
          "name": "_value",
          "type": "uint256"
        }
      ],
      "name": "setNFTAdd",
      "outputs": [],
      "stateMutability": "nonpayable",
      "type": "function"
    },
    {
      "inputs": [
        {
          "internalType": "address",
          "name": "_tokenAddress",
          "type": "address"
        },
        {
          "internalType": "uint256",
          "name": "_value",
          "type": "uint256"
        }
      ],
      "name": "setTokenAdd",
      "outputs": [],
      "stateMutability": "nonpayable",
      "type": "function"
    },
    {
      "inputs": [],
      "name": "getFeeConfig",
      "outputs": [
        {
          "internalType": "address",
          "name": "feeTo",
          "type": "address"
        },
        {
          "internalType": "uint256",
          "name": "feeRate",
          "type": "uint256"
        }
      ],
      "stateMutability": "pure",
      "type": "function",
      "constant": true
    },
    {
      "inputs": [
        {
          "internalType": "address",
          "name": "_seedAddress",
          "type": "address"
        }
      ],
      "name": "setSeedAddress",
      "outputs": [],
      "stateMutability": "nonpayable",
      "type": "function"
    },
    {
      "inputs": [
        {
          "internalType": "address",
          "name": "_blackListAddress",
          "type": "address"
        }
      ],
      "name": "setBlackListAddress",
      "outputs": [],
      "stateMutability": "nonpayable",
      "type": "function"
    },
    {
      "inputs": [
        {
          "internalType": "address",
          "name": "_fwarMiningAddress",
          "type": "address"
        }
      ],
      "name": "setFwarMiningAddress",
      "outputs": [],
      "stateMutability": "nonpayable",
      "type": "function"
    },
    {
      "inputs": [
        {
          "internalType": "uint256",
          "name": "_nftId",
          "type": "uint256"
        },
        {
          "internalType": "address",
          "name": "_nftContract",
          "type": "address"
        }
      ],
      "name": "getSellingNFT",
      "outputs": [
        {
          "internalType": "uint256",
          "name": "",
          "type": "uint256"
        }
      ],
      "stateMutability": "view",
      "type": "function",
      "constant": true
    },
    {
      "inputs": [
        {
          "internalType": "address",
          "name": "_nftContract",
          "type": "address"
        },
        {
          "internalType": "uint256[]",
          "name": "_nftIds",
          "type": "uint256[]"
        },
        {
          "internalType": "address",
          "name": "_token",
          "type": "address"
        },
        {
          "internalType": "uint256",
          "name": "_price",
          "type": "uint256"
        },
        {
          "internalType": "uint256",
          "name": "_expiration",
          "type": "uint256"
        }
      ],
      "name": "createOrder",
      "outputs": [],
      "stateMutability": "nonpayable",
      "type": "function"
    },
    {
      "inputs": [
        {
          "internalType": "uint256",
          "name": "orderId",
          "type": "uint256"
        },
        {
          "internalType": "address",
          "name": "_nftContract",
          "type": "address"
        },
        {
          "internalType": "uint256[]",
          "name": "_nftIds",
          "type": "uint256[]"
        }
      ],
      "name": "cancelOrder",
      "outputs": [],
      "stateMutability": "nonpayable",
      "type": "function"
    },
    {
      "inputs": [
        {
          "internalType": "uint256",
          "name": "_orderId",
          "type": "uint256"
        }
      ],
      "name": "buyOrder",
      "outputs": [],
      "stateMutability": "nonpayable",
      "type": "function"
    },
    {
      "inputs": [],
      "name": "orderCount",
      "outputs": [
        {
          "internalType": "uint256",
          "name": "",
          "type": "uint256"
        }
      ],
      "stateMutability": "view",
      "type": "function",
      "constant": true
    },
    {
      "inputs": [
        {
          "internalType": "uint256",
          "name": "index",
          "type": "uint256"
        }
      ],
      "name": "getOrderId",
      "outputs": [
        {
          "internalType": "uint256",
          "name": "orderId",
          "type": "uint256"
        },
        {
          "internalType": "bool",
          "name": "isValid",
          "type": "bool"
        }
      ],
      "stateMutability": "view",
      "type": "function",
      "constant": true
    },
    {
      "inputs": [
        {
          "internalType": "uint256",
          "name": "orderId",
          "type": "uint256"
        }
      ],
      "name": "getOrderById",
      "outputs": [
        {
          "internalType": "address",
          "name": "owner",
          "type": "address"
        },
        {
          "internalType": "uint256[]",
          "name": "nftIds",
          "type": "uint256[]"
        },
        {
          "internalType": "address",
          "name": "token",
          "type": "address"
        },
        {
          "internalType": "uint256",
          "name": "price",
          "type": "uint256"
        },
        {
          "internalType": "uint256",
          "name": "expiration",
          "type": "uint256"
        },
        {
          "internalType": "uint256",
          "name": "createTime",
          "type": "uint256"
        }
      ],
      "stateMutability": "view",
      "type": "function",
      "constant": true
    },
    {
      "inputs": [
        {
          "internalType": "uint256",
          "name": "orderId",
          "type": "uint256"
        }
      ],
      "name": "checkOrderValid",
      "outputs": [
        {
          "internalType": "bool",
          "name": "",
          "type": "bool"
        }
      ],
      "stateMutability": "view",
      "type": "function",
      "constant": true
    },
    {
      "inputs": [
        {
          "internalType": "address",
          "name": "_nftAddress",
          "type": "address"
        }
      ],
      "name": "isValidNFTAddress",
      "outputs": [
        {
          "internalType": "bool",
          "name": "",
          "type": "bool"
        }
      ],
      "stateMutability": "view",
      "type": "function",
      "constant": true
    },
    {
      "inputs": [
        {
          "internalType": "address",
          "name": "_tokenAddress",
          "type": "address"
        }
      ],
      "name": "isValidTokenAddress",
      "outputs": [
        {
          "internalType": "bool",
          "name": "",
          "type": "bool"
        }
      ],
      "stateMutability": "view",
      "type": "function",
      "constant": true
    },
    {
      "inputs": [
        {
          "internalType": "int256",
          "name": "from",
          "type": "int256"
        },
        {
          "internalType": "int256",
          "name": "to",
          "type": "int256"
        }
      ],
      "name": "cleanInvalidOrders",
      "outputs": [],
      "stateMutability": "nonpayable",
      "type": "function"
    },
    {
      "inputs": [
        {
          "internalType": "uint256",
          "name": "orderId",
          "type": "uint256"
        }
      ],
      "name": "cleanInvalidOrder",
      "outputs": [],
      "stateMutability": "nonpayable",
      "type": "function"
    },
    {
      "inputs": [
        {
          "internalType": "uint256[]",
          "name": "_orderIds",
          "type": "uint256[]"
        }
      ],
      "name": "cleanInvalidOrdersAdmin",
      "outputs": [],
      "stateMutability": "nonpayable",
      "type": "function"
    }
  ],
  "bytecode": "0x608060405234801561001057600080fd5b506154ca806100206000396000f3fe60806040526004361061021a5760003560e01c806385376c8a11610123578063c4a5f277116100ab578063d5d286fc1161006f578063d5d286fc14610cda578063ecf62fdc14610d60578063f541b38214610e3a578063f615c2bf14610e65578063f8c8765e14610eaa5761021a565b8063c4a5f27714610b39578063ca15c87314610b94578063ccb7442c14610be3578063d33f797814610c3e578063d547741f14610c7f5761021a565b806391d14854116100f257806391d14854146109c9578063978bbdb914610a3a578063987092f214610a655780639d2166ae14610ab6578063a217fddf14610b0e5761021a565b806385376c8a1461087d5780638ae354f3146108d85780638e5986a9146109195780639010d07c1461095a5761021a565b80632f2ff15d116101a65780635d2b90f6116101755780635d2b90f6146106885780635e47e05d146107385780635fbbc0d21461079f5780636967f993146107e75780636b3b9a5b1461082c5761021a565b80632f2ff15d146104c857806331b412d71461052357806336568abe1461054e57806342b50a7a146105a95761021a565b806322f85eaa116101ed57806322f85eaa1461035b5780632453ffa814610396578063248a9ca3146103c15780632d4fd0e2146104105780632d880f3e146104615761021a565b8063017e7e581461021f5780630568c0aa1461026057806306a95847146102cf5780630e61611e1461030a575b600080fd5b34801561022b57600080fd5b50610234610f4e565b604051808273ffffffffffffffffffffffffffffffffffffffff16815260200191505060405180910390f35b34801561026c57600080fd5b506102b96004803603604081101561028357600080fd5b8101908080359060200190929190803573ffffffffffffffffffffffffffffffffffffffff169060200190929190505050610f74565b6040518082815260200191505060405180910390f35b3480156102db57600080fd5b50610308600480360360208110156102f257600080fd5b8101908080359060200190929190505050610fcf565b005b34801561031657600080fd5b506103596004803603602081101561032d57600080fd5b81019080803573ffffffffffffffffffffffffffffffffffffffff1690602001909291905050506113b7565b005b34801561036757600080fd5b506103946004803603602081101561037e57600080fd5b8101908080359060200190929190505050611481565b005b3480156103a257600080fd5b506103ab611be0565b6040518082815260200191505060405180910390f35b3480156103cd57600080fd5b506103fa600480360360208110156103e457600080fd5b8101908080359060200190929190505050611bf1565b6040518082815260200191505060405180910390f35b34801561041c57600080fd5b5061045f6004803603602081101561043357600080fd5b81019080803573ffffffffffffffffffffffffffffffffffffffff169060200190929190505050611c11565b005b34801561046d57600080fd5b506104b06004803603602081101561048457600080fd5b81019080803573ffffffffffffffffffffffffffffffffffffffff169060200190929190505050611cdb565b60405180821515815260200191505060405180910390f35b3480156104d457600080fd5b50610521600480360360408110156104eb57600080fd5b8101908080359060200190929190803573ffffffffffffffffffffffffffffffffffffffff169060200190929190505050611dd5565b005b34801561052f57600080fd5b50610538611e5f565b6040518082815260200191505060405180910390f35b34801561055a57600080fd5b506105a76004803603604081101561057157600080fd5b8101908080359060200190929190803573ffffffffffffffffffffffffffffffffffffffff169060200190929190505050611e65565b005b3480156105b557600080fd5b506105e2600480360360208110156105cc57600080fd5b8101908080359060200190929190505050611efe565b604051808773ffffffffffffffffffffffffffffffffffffffff168152602001806020018673ffffffffffffffffffffffffffffffffffffffff168152602001858152602001848152602001838152602001828103825287818151815260200191508051906020019060200280838360005b8381101561066f578082015181840152602081019050610654565b5050505090500197505050505050505060405180910390f35b34801561069457600080fd5b50610736600480360360608110156106ab57600080fd5b8101908080359060200190929190803573ffffffffffffffffffffffffffffffffffffffff169060200190929190803590602001906401000000008111156106f257600080fd5b82018360208201111561070457600080fd5b8035906020019184602083028401116401000000008311171561072657600080fd5b9091929391929390505050611fe1565b005b34801561074457600080fd5b506107876004803603602081101561075b57600080fd5b81019080803573ffffffffffffffffffffffffffffffffffffffff1690602001909291905050506125c3565b60405180821515815260200191505060405180910390f35b3480156107ab57600080fd5b506107b46126bd565b604051808373ffffffffffffffffffffffffffffffffffffffff1681526020018281526020019250505060405180910390f35b3480156107f357600080fd5b5061082a6004803603604081101561080a57600080fd5b8101908080359060200190929190803590602001909291905050506126c3565b005b34801561083857600080fd5b506108656004803603602081101561084f57600080fd5b810190808035906020019092919050505061275b565b60405180821515815260200191505060405180910390f35b34801561088957600080fd5b506108d6600480360360408110156108a057600080fd5b81019080803573ffffffffffffffffffffffffffffffffffffffff169060200190929190803590602001909291905050506129fa565b005b3480156108e457600080fd5b506108ed612acc565b604051808273ffffffffffffffffffffffffffffffffffffffff16815260200191505060405180910390f35b34801561092557600080fd5b5061092e612af2565b604051808273ffffffffffffffffffffffffffffffffffffffff16815260200191505060405180910390f35b34801561096657600080fd5b5061099d6004803603604081101561097d57600080fd5b810190808035906020019092919080359060200190929190505050612b18565b604051808273ffffffffffffffffffffffffffffffffffffffff16815260200191505060405180910390f35b3480156109d557600080fd5b50610a22600480360360408110156109ec57600080fd5b8101908080359060200190929190803573ffffffffffffffffffffffffffffffffffffffff169060200190929190505050612b4a565b60405180821515815260200191505060405180910390f35b348015610a4657600080fd5b50610a4f612b7c565b6040518082815260200191505060405180910390f35b348015610a7157600080fd5b50610ab460048036036020811015610a8857600080fd5b81019080803573ffffffffffffffffffffffffffffffffffffffff169060200190929190505050612b82565b005b348015610ac257600080fd5b50610aef60048036036020811015610ad957600080fd5b8101908080359060200190929190505050612c4c565b6040518083815260200182151581526020019250505060405180910390f35b348015610b1a57600080fd5b50610b23612c7b565b6040518082815260200191505060405180910390f35b348015610b4557600080fd5b50610b9260048036036040811015610b5c57600080fd5b81019080803573ffffffffffffffffffffffffffffffffffffffff16906020019092919080359060200190929190505050612c82565b005b348015610ba057600080fd5b50610bcd60048036036020811015610bb757600080fd5b8101908080359060200190929190505050612d50565b6040518082815260200191505060405180910390f35b348015610bef57600080fd5b50610c3c60048036036040811015610c0657600080fd5b81019080803573ffffffffffffffffffffffffffffffffffffffff16906020019092919080359060200190929190505050612d77565b005b348015610c4a57600080fd5b50610c53612e45565b604051808273ffffffffffffffffffffffffffffffffffffffff16815260200191505060405180910390f35b348015610c8b57600080fd5b50610cd860048036036040811015610ca257600080fd5b8101908080359060200190929190803573ffffffffffffffffffffffffffffffffffffffff169060200190929190505050612e6b565b005b348015610ce657600080fd5b50610d5e60048036036020811015610cfd57600080fd5b8101908080359060200190640100000000811115610d1a57600080fd5b820183602082011115610d2c57600080fd5b80359060200191846020830284011164010000000083111715610d4e57600080fd5b9091929391929390505050612ef5565b005b348015610d6c57600080fd5b50610e38600480360360a0811015610d8357600080fd5b81019080803573ffffffffffffffffffffffffffffffffffffffff16906020019092919080359060200190640100000000811115610dc057600080fd5b820183602082011115610dd257600080fd5b80359060200191846020830284011164010000000083111715610df457600080fd5b9091929391929390803573ffffffffffffffffffffffffffffffffffffffff1690602001909291908035906020019092919080359060200190929190505050613321565b005b348015610e4657600080fd5b50610e4f614133565b6040518082815260200191505060405180910390f35b348015610e7157600080fd5b50610ea860048036036040811015610e8857600080fd5b810190808035906020019092919080359060200190929190505050614139565b005b610f4c60048036036080811015610ec057600080fd5b81019080803573ffffffffffffffffffffffffffffffffffffffff169060200190929190803573ffffffffffffffffffffffffffffffffffffffff169060200190929190803573ffffffffffffffffffffffffffffffffffffffff169060200190929190803573ffffffffffffffffffffffffffffffffffffffff1690602001909291905050506145cd565b005b600a60009054906101000a900473ffffffffffffffffffffffffffffffffffffffff1681565b60006007600084815260200190815260200160002060008373ffffffffffffffffffffffffffffffffffffffff1673ffffffffffffffffffffffffffffffffffffffff16815260200190815260200160002054905092915050565b610fd88161275b565b6113b457610fe4615215565b600660008381526020019081526020016000206040518060e00160405290816000820160009054906101000a900473ffffffffffffffffffffffffffffffffffffffff1673ffffffffffffffffffffffffffffffffffffffff1673ffffffffffffffffffffffffffffffffffffffff1681526020016001820160009054906101000a900473ffffffffffffffffffffffffffffffffffffffff1673ffffffffffffffffffffffffffffffffffffffff1673ffffffffffffffffffffffffffffffffffffffff168152602001600282018054806020026020016040519081016040528092919081815260200182805480156110fd57602002820191906000526020600020905b8154815260200190600101908083116110e9575b505050505081526020016003820160009054906101000a900473ffffffffffffffffffffffffffffffffffffffff1673ffffffffffffffffffffffffffffffffffffffff1673ffffffffffffffffffffffffffffffffffffffff168152602001600482015481526020016005820154815260200160068201548152505090506111908260046147b390919063ffffffff16565b5060066000838152602001908152602001600020600080820160006101000a81549073ffffffffffffffffffffffffffffffffffffffff02191690556001820160006101000a81549073ffffffffffffffffffffffffffffffffffffffff02191690556002820160006112039190615294565b6003820160006101000a81549073ffffffffffffffffffffffffffffffffffffffff0219169055600482016000905560058201600090556006820160009055505060005b8160400151518110156112d057600760008360400151838151811061126857fe5b602002602001015181526020019081526020016000206000836020015173ffffffffffffffffffffffffffffffffffffffff1673ffffffffffffffffffffffffffffffffffffffff168152602001908152602001600020600090558080600101915050611247565b508060800151816000015173ffffffffffffffffffffffffffffffffffffffff16837f9a9aa1d7c42f50caf2407ac70974e40cdaba5d7ac78e26f7689fc5888abeebfa84604001518560200151866060015160405180806020018473ffffffffffffffffffffffffffffffffffffffff1681526020018373ffffffffffffffffffffffffffffffffffffffff168152602001828103825285818151815260200191508051906020019060200280838360005b8381101561139d578082015181840152602081019050611382565b5050505090500194505050505060405180910390a4505b50565b6113cb6000801b6113c66147cd565b612b4a565b61143d576040517f08c379a00000000000000000000000000000000000000000000000000000000081526004018080602001828103825260168152602001807f41646d696e20726f6c652069732072657175697265640000000000000000000081525060200191505060405180910390fd5b80600d60006101000a81548173ffffffffffffffffffffffffffffffffffffffff021916908373ffffffffffffffffffffffffffffffffffffffff16021790555050565b3273ffffffffffffffffffffffffffffffffffffffff166114a06147cd565b73ffffffffffffffffffffffffffffffffffffffff161461150c576040517f08c379a00000000000000000000000000000000000000000000000000000000081526004018080602001828103825260268152602001806153976026913960400191505060405180910390fd5b6115158161275b565b611587576040517f08c379a00000000000000000000000000000000000000000000000000000000081526004018080602001828103825260128152602001807f6f72646572206973206e6f742076616c6964000000000000000000000000000081525060200191505060405180910390fd5b61158f615215565b600660008381526020019081526020016000206040518060e00160405290816000820160009054906101000a900473ffffffffffffffffffffffffffffffffffffffff1673ffffffffffffffffffffffffffffffffffffffff1673ffffffffffffffffffffffffffffffffffffffff1681526020016001820160009054906101000a900473ffffffffffffffffffffffffffffffffffffffff1673ffffffffffffffffffffffffffffffffffffffff1673ffffffffffffffffffffffffffffffffffffffff168152602001600282018054806020026020016040519081016040528092919081815260200182805480156116a857602002820191906000526020600020905b815481526020019060010190808311611694575b505050505081526020016003820160009054906101000a900473ffffffffffffffffffffffffffffffffffffffff1673ffffffffffffffffffffffffffffffffffffffff1673ffffffffffffffffffffffffffffffffffffffff1681526020016004820154815260200160058201548152602001600682015481525050905061173b8260046147b390919063ffffffff16565b5060066000838152602001908152602001600020600080820160006101000a81549073ffffffffffffffffffffffffffffffffffffffff02191690556001820160006101000a81549073ffffffffffffffffffffffffffffffffffffffff02191690556002820160006117ae9190615294565b6003820160006101000a81549073ffffffffffffffffffffffffffffffffffffffff02191690556004820160009055600582016000905560068201600090555050600081608001519050600061182664e8d4a51000611818600e54856147d590919063ffffffff16565b61485b90919063ffffffff16565b9050600b60009054906101000a900473ffffffffffffffffffffffffffffffffffffffff1673ffffffffffffffffffffffffffffffffffffffff166339e7357c6040518163ffffffff1660e01b8152600401602060405180830381600087803b15801561189257600080fd5b505af11580156118a6573d6000803e3d6000fd5b505050506040513d60208110156118bc57600080fd5b8101908080519060200190929190505050506119286118d96147cd565b600a60009054906101000a900473ffffffffffffffffffffffffffffffffffffffff1683866060015173ffffffffffffffffffffffffffffffffffffffff166148e4909392919063ffffffff16565b61197a6119336147cd565b846000015161194f8487608001516149a590919063ffffffff16565b866060015173ffffffffffffffffffffffffffffffffffffffff166148e4909392919063ffffffff16565b60005b836040015151811015611ad357836020015173ffffffffffffffffffffffffffffffffffffffff166342842e0e85600001516119b76147cd565b876040015185815181106119c757fe5b60200260200101516040518463ffffffff1660e01b8152600401808473ffffffffffffffffffffffffffffffffffffffff1681526020018373ffffffffffffffffffffffffffffffffffffffff1681526020018281526020019350505050600060405180830381600087803b158015611a3f57600080fd5b505af1158015611a53573d6000803e3d6000fd5b505050506007600085604001518381518110611a6b57fe5b602002602001015181526020019081526020016000206000856020015173ffffffffffffffffffffffffffffffffffffffff1673ffffffffffffffffffffffffffffffffffffffff16815260200190815260200160002060009055808060010191505061197d565b508260800151611ae16147cd565b73ffffffffffffffffffffffffffffffffffffffff16857ff7e635981964511d001a05bcef6b8d34da1521d32fd3ca8987500de472e95289866040015187600001518860200151896060015160405180806020018573ffffffffffffffffffffffffffffffffffffffff1681526020018473ffffffffffffffffffffffffffffffffffffffff1681526020018373ffffffffffffffffffffffffffffffffffffffff168152602001828103825286818151815260200191508051906020019060200280838360005b83811015611bc4578082015181840152602081019050611ba9565b505050509050019550505050505060405180910390a450505050565b6000611bec6004614a28565b905090565b600060016000838152602001908152602001600020600201549050919050565b611c256000801b611c206147cd565b612b4a565b611c97576040517f08c379a00000000000000000000000000000000000000000000000000000000081526004018080602001828103825260168152602001807f41646d696e20726f6c652069732072657175697265640000000000000000000081525060200191505060405180910390fd5b80600b60006101000a81548173ffffffffffffffffffffffffffffffffffffffff021916908373ffffffffffffffffffffffffffffffffffffffff16021790555050565b60008073ffffffffffffffffffffffffffffffffffffffff168273ffffffffffffffffffffffffffffffffffffffff161415611d7f576040517f08c379a000000000000000000000000000000000000000000000000000000000815260040180806020018281038252600c8152602001807f5f746f6b656e206572726f72000000000000000000000000000000000000000081525060200191505060405180910390fd5b6000600960008473ffffffffffffffffffffffffffffffffffffffff1673ffffffffffffffffffffffffffffffffffffffff1681526020019081526020016000205414611dcf5760019050611dd0565b5b919050565b611dfc6001600084815260200190815260200160002060020154611df76147cd565b612b4a565b611e51576040517f08c379a000000000000000000000000000000000000000000000000000000000815260040180806020018281038252602f815260200180615342602f913960400191505060405180910390fd5b611e5b8282614a3d565b5050565b60035481565b611e6d6147cd565b73ffffffffffffffffffffffffffffffffffffffff168173ffffffffffffffffffffffffffffffffffffffff1614611ef0576040517f08c379a000000000000000000000000000000000000000000000000000000000815260040180806020018281038252602f815260200180615466602f913960400191505060405180910390fd5b611efa8282614ad1565b5050565b6000606060008060008060006006600089815260200190815260200160002090508060000160009054906101000a900473ffffffffffffffffffffffffffffffffffffffff16965080600201805480602002602001604051908101604052809291908181526020018280548015611f9457602002820191906000526020600020905b815481526020019060010190808311611f80575b505050505095508060030160009054906101000a900473ffffffffffffffffffffffffffffffffffffffff1694508060040154935080600501549250806006015491505091939550919395565b3273ffffffffffffffffffffffffffffffffffffffff166120006147cd565b73ffffffffffffffffffffffffffffffffffffffff161461206c576040517f08c379a00000000000000000000000000000000000000000000000000000000081526004018080602001828103825260268152602001806153976026913960400191505060405180910390fd5b60006006600086815260200190815260200160002060000160009054906101000a900473ffffffffffffffffffffffffffffffffffffffff169050600073ffffffffffffffffffffffffffffffffffffffff168173ffffffffffffffffffffffffffffffffffffffff16141561214a576040517f08c379a000000000000000000000000000000000000000000000000000000000815260040180806020018281038252600f8152602001807f6f72646572206e6f74206578697374000000000000000000000000000000000081525060200191505060405180910390fd5b6121526147cd565b73ffffffffffffffffffffffffffffffffffffffff168173ffffffffffffffffffffffffffffffffffffffff16146121f2576040517f08c379a000000000000000000000000000000000000000000000000000000000815260040180806020018281038252600f8152602001807f6f72646572206e6f7420796f757273000000000000000000000000000000000081525060200191505060405180910390fd5b6122068560046147b390919063ffffffff16565b5060066000868152602001908152602001600020600080820160006101000a81549073ffffffffffffffffffffffffffffffffffffffff02191690556001820160006101000a81549073ffffffffffffffffffffffffffffffffffffffff02191690556002820160006122799190615294565b6003820160006101000a81549073ffffffffffffffffffffffffffffffffffffffff02191690556004820160009055600582016000905560068201600090555050600b60009054906101000a900473ffffffffffffffffffffffffffffffffffffffff1673ffffffffffffffffffffffffffffffffffffffff166339e7357c6040518163ffffffff1660e01b8152600401602060405180830381600087803b15801561232457600080fd5b505af1158015612338573d6000803e3d6000fd5b505050506040513d602081101561234e57600080fd5b81019080805190602001909291905050505060005b83839050811015612526576123766147cd565b73ffffffffffffffffffffffffffffffffffffffff168573ffffffffffffffffffffffffffffffffffffffff16636352211e8686858181106123b457fe5b905060200201356040518263ffffffff1660e01b81526004018082815260200191505060206040518083038186803b1580156123ef57600080fd5b505afa158015612403573d6000803e3d6000fd5b505050506040513d602081101561241957600080fd5b810190808051906020019092919050505073ffffffffffffffffffffffffffffffffffffffff16146124b3576040517f08c379a000000000000000000000000000000000000000000000000000000000815260040180806020018281038252600d8152602001807f6e6674206e6f7420796f7572730000000000000000000000000000000000000081525060200191505060405180910390fd5b600760008585848181106124c357fe5b90506020020135815260200190815260200160002060008673ffffffffffffffffffffffffffffffffffffffff1673ffffffffffffffffffffffffffffffffffffffff168152602001908152602001600020600090558080600101915050612363565b50848473ffffffffffffffffffffffffffffffffffffffff168273ffffffffffffffffffffffffffffffffffffffff167f3b63a5b9b9b33835d523ff00b147a0224d3468ea8554f16591b79dc5fea192a1868660405180806020018281038252848482818152602001925060200280828437600081840152601f19601f820116905080830192505050935050505060405180910390a45050505050565b60008073ffffffffffffffffffffffffffffffffffffffff168273ffffffffffffffffffffffffffffffffffffffff161415612667576040517f08c379a00000000000000000000000000000000000000000000000000000000081526004018080602001828103825260128152602001807f5f6e6674436f6e7472616374206572726f72000000000000000000000000000081525060200191505060405180910390fd5b6000600860008473ffffffffffffffffffffffffffffffffffffffff1673ffffffffffffffffffffffffffffffffffffffff16815260200190815260200160002054146126b757600190506126b8565b5b919050565b60008091565b6126d76000801b6126d26147cd565b612b4a565b612749576040517f08c379a00000000000000000000000000000000000000000000000000000000081526004018080602001828103825260168152602001807f41646d696e20726f6c652069732072657175697265640000000000000000000081525060200191505060405180910390fd5b80600281905550816003819055505050565b60008060066000848152602001908152602001600020905060005b81600201805490508110156128bc578160000160009054906101000a900473ffffffffffffffffffffffffffffffffffffffff1673ffffffffffffffffffffffffffffffffffffffff168260010160009054906101000a900473ffffffffffffffffffffffffffffffffffffffff1673ffffffffffffffffffffffffffffffffffffffff16636352211e84600201848154811061280f57fe5b90600052602060002001546040518263ffffffff1660e01b81526004018082815260200191505060206040518083038186803b15801561284e57600080fd5b505afa158015612862573d6000803e3d6000fd5b505050506040513d602081101561287857600080fd5b810190808051906020019092919050505073ffffffffffffffffffffffffffffffffffffffff16146128af576000925050506129f5565b8080600101915050612776565b508060010160009054906101000a900473ffffffffffffffffffffffffffffffffffffffff1673ffffffffffffffffffffffffffffffffffffffff1663e985e9c58260000160009054906101000a900473ffffffffffffffffffffffffffffffffffffffff16306040518363ffffffff1660e01b8152600401808373ffffffffffffffffffffffffffffffffffffffff1681526020018273ffffffffffffffffffffffffffffffffffffffff1681526020019250505060206040518083038186803b15801561298a57600080fd5b505afa15801561299e573d6000803e3d6000fd5b505050506040513d60208110156129b457600080fd5b81019080805190602001909291905050506129d35760009150506129f5565b42816005015482600601540110156129ef5760009150506129f5565b60019150505b919050565b612a0e6000801b612a096147cd565b612b4a565b612a80576040517f08c379a00000000000000000000000000000000000000000000000000000000081526004018080602001828103825260168152602001807f41646d696e20726f6c652069732072657175697265640000000000000000000081525060200191505060405180910390fd5b81600a60006101000a81548173ffffffffffffffffffffffffffffffffffffffff021916908373ffffffffffffffffffffffffffffffffffffffff16021790555080600e819055505050565b600c60009054906101000a900473ffffffffffffffffffffffffffffffffffffffff1681565b600d60009054906101000a900473ffffffffffffffffffffffffffffffffffffffff1681565b6000612b428260016000868152602001908152602001600020600001614b6590919063ffffffff16565b905092915050565b6000612b748260016000868152602001908152602001600020600001614b7f90919063ffffffff16565b905092915050565b600e5481565b612b966000801b612b916147cd565b612b4a565b612c08576040517f08c379a00000000000000000000000000000000000000000000000000000000081526004018080602001828103825260168152602001807f41646d696e20726f6c652069732072657175697265640000000000000000000081525060200191505060405180910390fd5b80600c60006101000a81548173ffffffffffffffffffffffffffffffffffffffff021916908373ffffffffffffffffffffffffffffffffffffffff16021790555050565b6000806000612c65846004614baf90919063ffffffff16565b905080612c718261275b565b9250925050915091565b6000801b81565b612c966000801b612c916147cd565b612b4a565b612d08576040517f08c379a00000000000000000000000000000000000000000000000000000000081526004018080602001828103825260168152602001807f41646d696e20726f6c652069732072657175697265640000000000000000000081525060200191505060405180910390fd5b80600860008473ffffffffffffffffffffffffffffffffffffffff1673ffffffffffffffffffffffffffffffffffffffff168152602001908152602001600020819055505050565b6000612d7060016000848152602001908152602001600020600001614bc9565b9050919050565b612d8b6000801b612d866147cd565b612b4a565b612dfd576040517f08c379a00000000000000000000000000000000000000000000000000000000081526004018080602001828103825260168152602001807f41646d696e20726f6c652069732072657175697265640000000000000000000081525060200191505060405180910390fd5b80600960008473ffffffffffffffffffffffffffffffffffffffff1673ffffffffffffffffffffffffffffffffffffffff168152602001908152602001600020819055505050565b600b60009054906101000a900473ffffffffffffffffffffffffffffffffffffffff1681565b612e926001600084815260200190815260200160002060020154612e8d6147cd565b612b4a565b612ee7576040517f08c379a00000000000000000000000000000000000000000000000000000000081526004018080602001828103825260308152602001806153bd6030913960400191505060405180910390fd5b612ef18282614ad1565b5050565b612f096000801b612f046147cd565b612b4a565b612f1257600080fd5b60005b8282905081101561331c576000838383818110612f2e57fe5b905060200201359050612f3f615215565b600660008381526020019081526020016000206040518060e00160405290816000820160009054906101000a900473ffffffffffffffffffffffffffffffffffffffff1673ffffffffffffffffffffffffffffffffffffffff1673ffffffffffffffffffffffffffffffffffffffff1681526020016001820160009054906101000a900473ffffffffffffffffffffffffffffffffffffffff1673ffffffffffffffffffffffffffffffffffffffff1673ffffffffffffffffffffffffffffffffffffffff1681526020016002820180548060200260200160405190810160405280929190818152602001828054801561305857602002820191906000526020600020905b815481526020019060010190808311613044575b505050505081526020016003820160009054906101000a900473ffffffffffffffffffffffffffffffffffffffff1673ffffffffffffffffffffffffffffffffffffffff1673ffffffffffffffffffffffffffffffffffffffff168152602001600482015481526020016005820154815260200160068201548152505090506130eb8260046147b390919063ffffffff16565b5060066000838152602001908152602001600020600080820160006101000a81549073ffffffffffffffffffffffffffffffffffffffff02191690556001820160006101000a81549073ffffffffffffffffffffffffffffffffffffffff021916905560028201600061315e9190615294565b6003820160006101000a81549073ffffffffffffffffffffffffffffffffffffffff0219169055600482016000905560058201600090556006820160009055505060005b81604001515181101561322b5760076000836040015183815181106131c357fe5b602002602001015181526020019081526020016000206000836020015173ffffffffffffffffffffffffffffffffffffffff1673ffffffffffffffffffffffffffffffffffffffff1681526020019081526020016000206000905580806001019150506131a2565b508060800151816000015173ffffffffffffffffffffffffffffffffffffffff16837f9a9aa1d7c42f50caf2407ac70974e40cdaba5d7ac78e26f7689fc5888abeebfa84604001518560200151866060015160405180806020018473ffffffffffffffffffffffffffffffffffffffff1681526020018373ffffffffffffffffffffffffffffffffffffffff168152602001828103825285818151815260200191508051906020019060200280838360005b838110156132f85780820151818401526020810190506132dd565b5050505090500194505050505060405180910390a450508080600101915050612f15565b505050565b3273ffffffffffffffffffffffffffffffffffffffff166133406147cd565b73ffffffffffffffffffffffffffffffffffffffff16146133ac576040517f08c379a00000000000000000000000000000000000000000000000000000000081526004018080602001828103825260268152602001806153976026913960400191505060405180910390fd5b600c60009054906101000a900473ffffffffffffffffffffffffffffffffffffffff1673ffffffffffffffffffffffffffffffffffffffff1663b36d69196133f26147cd565b6040518263ffffffff1660e01b8152600401808273ffffffffffffffffffffffffffffffffffffffff16815260200191505060206040518083038186803b15801561343c57600080fd5b505afa158015613450573d6000803e3d6000fd5b505050506040513d602081101561346657600080fd5b8101908080519060200190929190505050156134ea576040517f08c379a00000000000000000000000000000000000000000000000000000000081526004018080602001828103825260158152602001807f596f752061726520696e20626c61636b206c697374000000000000000000000081525060200191505060405180910390fd5b8573ffffffffffffffffffffffffffffffffffffffff1663e985e9c561350e6147cd565b306040518363ffffffff1660e01b8152600401808373ffffffffffffffffffffffffffffffffffffffff1681526020018273ffffffffffffffffffffffffffffffffffffffff1681526020019250505060206040518083038186803b15801561357657600080fd5b505afa15801561358a573d6000803e3d6000fd5b505050506040513d60208110156135a057600080fd5b8101908080519060200190929190505050613623576040517f08c379a00000000000000000000000000000000000000000000000000000000081526004018080602001828103825260128152602001807f4d75737420617070726f7665206669727374000000000000000000000000000081525060200191505060405180910390fd5b60025481111561369b576040517f08c379a00000000000000000000000000000000000000000000000000000000081526004018080602001828103825260148152602001807f65787069726174696f6e20746f6f206c6172676500000000000000000000000081525060200191505060405180910390fd5b600354811015613713576040517f08c379a00000000000000000000000000000000000000000000000000000000081526004018080602001828103825260148152602001807f65787069726174696f6e20746f6f20736d616c6c00000000000000000000000081525060200191505060405180910390fd5b600485859050111561378d576040517f08c379a000000000000000000000000000000000000000000000000000000000815260040180806020018281038252601a8152602001807f616d6f756e742073656c6c696e67206e6674206578636565642000000000000081525060200191505060405180910390fd5b613796866125c3565b613808576040517f08c379a000000000000000000000000000000000000000000000000000000000815260040180806020018281038252601c8152602001807f4e46542061646472657373206973206e6f7420737570706f727465640000000081525060200191505060405180910390fd5b61381183611cdb565b613883576040517f08c379a000000000000000000000000000000000000000000000000000000000815260040180806020018281038252601e8152602001807f546f6b656e2061646472657373206973206e6f7420737570706f72746564000081525060200191505060405180910390fd5b60008214156138fa576040517f08c379a000000000000000000000000000000000000000000000000000000000815260040180806020018281038252600c8152602001807f5f7072696365206572726f72000000000000000000000000000000000000000081525060200191505060405180910390fd5b600b60009054906101000a900473ffffffffffffffffffffffffffffffffffffffff1673ffffffffffffffffffffffffffffffffffffffff166339e7357c6040518163ffffffff1660e01b8152600401602060405180830381600087803b15801561396457600080fd5b505af1158015613978573d6000803e3d6000fd5b505050506040513d602081101561398e57600080fd5b81019080805190602001909291905050505060005b85859050811015613e0f5760008686838181106139bc57fe5b905060200201351415613a37576040517f08c379a000000000000000000000000000000000000000000000000000000000815260040180806020018281038252600d8152602001807f5f6e6674496473206572726f720000000000000000000000000000000000000081525060200191505060405180910390fd5b613a3f6147cd565b73ffffffffffffffffffffffffffffffffffffffff168773ffffffffffffffffffffffffffffffffffffffff16636352211e888885818110613a7d57fe5b905060200201356040518263ffffffff1660e01b81526004018082815260200191505060206040518083038186803b158015613ab857600080fd5b505afa158015613acc573d6000803e3d6000fd5b505050506040513d6020811015613ae257600080fd5b810190808051906020019092919050505073ffffffffffffffffffffffffffffffffffffffff1614613b7c576040517f08c379a00000000000000000000000000000000000000000000000000000000081526004018080602001828103825260128152602001807f596f752068617665206e6f20616363657373000000000000000000000000000081525060200191505060405180910390fd5b600060076000888885818110613b8e57fe5b90506020020135815260200190815260200160002060008973ffffffffffffffffffffffffffffffffffffffff1673ffffffffffffffffffffffffffffffffffffffff1681526020019081526020016000205414613c54576040517f08c379a000000000000000000000000000000000000000000000000000000000815260040180806020018281038252600e8152602001807f4e46542069732073656c6c696e6700000000000000000000000000000000000081525060200191505060405180910390fd5b6000600d60009054906101000a900473ffffffffffffffffffffffffffffffffffffffff1673ffffffffffffffffffffffffffffffffffffffff16633c170f9d888885818110613ca057fe5b905060200201356040518263ffffffff1660e01b81526004018082815260200191505060206040518083038186803b158015613cdb57600080fd5b505afa158015613cef573d6000803e3d6000fd5b505050506040513d6020811015613d0557600080fd5b810190808051906020019092919050505014613d89576040517f08c379a000000000000000000000000000000000000000000000000000000000815260040180806020018281038252600e8152602001807f4e4654206973207374616b696e6700000000000000000000000000000000000081525060200191505060405180910390fd5b858582818110613d9557fe5b9050602002013560076000888885818110613dac57fe5b90506020020135815260200190815260200160002060008973ffffffffffffffffffffffffffffffffffffffff1673ffffffffffffffffffffffffffffffffffffffff1681526020019081526020016000208190555080806001019150506139a3565b506000613e1a6147cd565b86868987604051602001808673ffffffffffffffffffffffffffffffffffffffff168152602001806020018473ffffffffffffffffffffffffffffffffffffffff1681526020018373ffffffffffffffffffffffffffffffffffffffff1681526020018281038252868682818152602001925060200280828437600081840152601f19601f82011690508083019250505096505050505050506040516020818303038152906040528051906020012060001c9050613ed66147cd565b6006600083815260200190815260200160002060000160006101000a81548173ffffffffffffffffffffffffffffffffffffffff021916908373ffffffffffffffffffffffffffffffffffffffff160217905550866006600083815260200190815260200160002060010160006101000a81548173ffffffffffffffffffffffffffffffffffffffff021916908373ffffffffffffffffffffffffffffffffffffffff1602179055508585600660008481526020019081526020016000206002019190613fa49291906152b5565b50836006600083815260200190815260200160002060030160006101000a81548173ffffffffffffffffffffffffffffffffffffffff021916908373ffffffffffffffffffffffffffffffffffffffff16021790555082600660008381526020019081526020016000206004018190555081600660008381526020019081526020016000206005018190555042600660008381526020019081526020016000206006018190555061405f816004614bde90919063ffffffff16565b50828473ffffffffffffffffffffffffffffffffffffffff168873ffffffffffffffffffffffffffffffffffffffff167fb873c56149c7f0aab004d9c326891e0a96bf1d79dbe7bd5ddde117165ceb7a5b6140b86147cd565b8a8a8888604051808673ffffffffffffffffffffffffffffffffffffffff168152602001806020018481526020018381526020018281038252868682818152602001925060200280828437600081840152601f19601f820116905080830192505050965050505050505060405180910390a450505050505050565b60025481565b818112156141af576040517f08c379a00000000000000000000000000000000000000000000000000000000081526004018080602001828103825260118152602001807f746f2073686f756c64203e3d2066726f6d00000000000000000000000000000081525060200191505060405180910390fd5b60008190505b8281126145c85760006141d2826004614baf90919063ffffffff16565b90506141dd8161275b565b6145b9576141e9615215565b600660008381526020019081526020016000206040518060e00160405290816000820160009054906101000a900473ffffffffffffffffffffffffffffffffffffffff1673ffffffffffffffffffffffffffffffffffffffff1673ffffffffffffffffffffffffffffffffffffffff1681526020016001820160009054906101000a900473ffffffffffffffffffffffffffffffffffffffff1673ffffffffffffffffffffffffffffffffffffffff1673ffffffffffffffffffffffffffffffffffffffff1681526020016002820180548060200260200160405190810160405280929190818152602001828054801561430257602002820191906000526020600020905b8154815260200190600101908083116142ee575b505050505081526020016003820160009054906101000a900473ffffffffffffffffffffffffffffffffffffffff1673ffffffffffffffffffffffffffffffffffffffff1673ffffffffffffffffffffffffffffffffffffffff168152602001600482015481526020016005820154815260200160068201548152505090506143958260046147b390919063ffffffff16565b5060066000838152602001908152602001600020600080820160006101000a81549073ffffffffffffffffffffffffffffffffffffffff02191690556001820160006101000a81549073ffffffffffffffffffffffffffffffffffffffff02191690556002820160006144089190615294565b6003820160006101000a81549073ffffffffffffffffffffffffffffffffffffffff0219169055600482016000905560058201600090556006820160009055505060005b8160400151518110156144d557600760008360400151838151811061446d57fe5b602002602001015181526020019081526020016000206000836020015173ffffffffffffffffffffffffffffffffffffffff1673ffffffffffffffffffffffffffffffffffffffff16815260200190815260200160002060009055808060010191505061444c565b508060800151816000015173ffffffffffffffffffffffffffffffffffffffff16837f9a9aa1d7c42f50caf2407ac70974e40cdaba5d7ac78e26f7689fc5888abeebfa84604001518560200151866060015160405180806020018473ffffffffffffffffffffffffffffffffffffffff1681526020018373ffffffffffffffffffffffffffffffffffffffff168152602001828103825285818151815260200191508051906020019060200280838360005b838110156145a2578082015181840152602081019050614587565b5050505090500194505050505060405180910390a4505b508080600190039150506141b5565b505050565b600060019054906101000a900460ff16806145ec57506145eb614bf8565b5b80614602575060008054906101000a900460ff16155b614657576040517f08c379a000000000000000000000000000000000000000000000000000000000815260040180806020018281038252602e8152602001806153ed602e913960400191505060405180910390fd5b60008060019054906101000a900460ff1615905080156146a7576001600060016101000a81548160ff02191690831515021790555060016000806101000a81548160ff0219169083151502179055505b6146b46000801b86614c09565b621275006002819055506201518060038190555083600b60006101000a81548173ffffffffffffffffffffffffffffffffffffffff021916908373ffffffffffffffffffffffffffffffffffffffff16021790555082600c60006101000a81548173ffffffffffffffffffffffffffffffffffffffff021916908373ffffffffffffffffffffffffffffffffffffffff16021790555081600d60006101000a81548173ffffffffffffffffffffffffffffffffffffffff021916908373ffffffffffffffffffffffffffffffffffffffff16021790555080156147ac5760008060016101000a81548160ff0219169083151502179055505b5050505050565b60006147c5836000018360001b614c17565b905092915050565b600033905090565b6000808314156147e85760009050614855565b60008284029050828482816147f957fe5b0414614850576040517f08c379a000000000000000000000000000000000000000000000000000000000815260040180806020018281038252602181526020018061541b6021913960400191505060405180910390fd5b809150505b92915050565b60008082116148d2576040517f08c379a000000000000000000000000000000000000000000000000000000000815260040180806020018281038252601a8152602001807f536166654d6174683a206469766973696f6e206279207a65726f00000000000081525060200191505060405180910390fd5b8183816148db57fe5b04905092915050565b61499f846323b872dd60e01b858585604051602401808473ffffffffffffffffffffffffffffffffffffffff1681526020018373ffffffffffffffffffffffffffffffffffffffff1681526020018281526020019350505050604051602081830303815290604052907bffffffffffffffffffffffffffffffffffffffffffffffffffffffff19166020820180517bffffffffffffffffffffffffffffffffffffffffffffffffffffffff8381831617835250505050614cff565b50505050565b600082821115614a1d576040517f08c379a000000000000000000000000000000000000000000000000000000000815260040180806020018281038252601e8152602001807f536166654d6174683a207375627472616374696f6e206f766572666c6f77000081525060200191505060405180910390fd5b818303905092915050565b6000614a3682600001614dee565b9050919050565b614a658160016000858152602001908152602001600020600001614dff90919063ffffffff16565b15614acd57614a726147cd565b73ffffffffffffffffffffffffffffffffffffffff168173ffffffffffffffffffffffffffffffffffffffff16837f2f8788117e7eff1d82e926ec794901d17c78024a50270940304540a733656f0d60405160405180910390a45b5050565b614af98160016000858152602001908152602001600020600001614e2f90919063ffffffff16565b15614b6157614b066147cd565b73ffffffffffffffffffffffffffffffffffffffff168173ffffffffffffffffffffffffffffffffffffffff16837ff6391f5c32d9c69d2a47ea670b442974b53935d1edc7fd64eb21e047a839171b60405160405180910390a45b5050565b6000614b748360000183614e5f565b60001c905092915050565b6000614ba7836000018373ffffffffffffffffffffffffffffffffffffffff1660001b614ee2565b905092915050565b6000614bbe8360000183614e5f565b60001c905092915050565b6000614bd782600001614dee565b9050919050565b6000614bf0836000018360001b614f05565b905092915050565b6000614c0330614f75565b15905090565b614c138282614a3d565b5050565b60008083600101600084815260200190815260200160002054905060008114614cf35760006001820390506000600186600001805490500390506000866000018281548110614c6257fe5b9060005260206000200154905080876000018481548110614c7f57fe5b9060005260206000200181905550600183018760010160008381526020019081526020016000208190555086600001805480614cb757fe5b60019003818190600052602060002001600090559055866001016000878152602001908152602001600020600090556001945050505050614cf9565b60009150505b92915050565b6060614d61826040518060400160405280602081526020017f5361666545524332303a206c6f772d6c6576656c2063616c6c206661696c65648152508573ffffffffffffffffffffffffffffffffffffffff16614f889092919063ffffffff16565b9050600081511115614de957808060200190516020811015614d8257600080fd5b8101908080519060200190929190505050614de8576040517f08c379a000000000000000000000000000000000000000000000000000000000815260040180806020018281038252602a81526020018061543c602a913960400191505060405180910390fd5b5b505050565b600081600001805490509050919050565b6000614e27836000018373ffffffffffffffffffffffffffffffffffffffff1660001b614f05565b905092915050565b6000614e57836000018373ffffffffffffffffffffffffffffffffffffffff1660001b614c17565b905092915050565b600081836000018054905011614ec0576040517f08c379a00000000000000000000000000000000000000000000000000000000081526004018080602001828103825260228152602001806153206022913960400191505060405180910390fd5b826000018281548110614ecf57fe5b9060005260206000200154905092915050565b600080836001016000848152602001908152602001600020541415905092915050565b6000614f118383614ee2565b614f6a578260000182908060018154018082558091505060019003906000526020600020016000909190919091505582600001805490508360010160008481526020019081526020016000208190555060019050614f6f565b600090505b92915050565b600080823b905060008111915050919050565b6060614f978484600085614fa0565b90509392505050565b606082471015614ffb576040517f08c379a00000000000000000000000000000000000000000000000000000000081526004018080602001828103825260268152602001806153716026913960400191505060405180910390fd5b61500485614f75565b615076576040517f08c379a000000000000000000000000000000000000000000000000000000000815260040180806020018281038252601d8152602001807f416464726573733a2063616c6c20746f206e6f6e2d636f6e747261637400000081525060200191505060405180910390fd5b600060608673ffffffffffffffffffffffffffffffffffffffff1685876040518082805190602001908083835b602083106150c657805182526020820191506020810190506020830392506150a3565b6001836020036101000a03801982511681845116808217855250505050505090500191505060006040518083038185875af1925050503d8060008114615128576040519150601f19603f3d011682016040523d82523d6000602084013e61512d565b606091505b509150915061513d828286615149565b92505050949350505050565b606083156151595782905061520e565b60008351111561516c5782518084602001fd5b816040517f08c379a00000000000000000000000000000000000000000000000000000000081526004018080602001828103825283818151815260200191508051906020019080838360005b838110156151d35780820151818401526020810190506151b8565b50505050905090810190601f1680156152005780820380516001836020036101000a031916815260200191505b509250505060405180910390fd5b9392505050565b6040518060e00160405280600073ffffffffffffffffffffffffffffffffffffffff168152602001600073ffffffffffffffffffffffffffffffffffffffff16815260200160608152602001600073ffffffffffffffffffffffffffffffffffffffff1681526020016000815260200160008152602001600081525090565b50805460008255906000526020600020908101906152b29190615302565b50565b8280548282559060005260206000209081019282156152f1579160200282015b828111156152f05782358255916020019190600101906152d5565b5b5090506152fe9190615302565b5090565b5b8082111561531b576000816000905550600101615303565b509056fe456e756d657261626c655365743a20696e646578206f7574206f6620626f756e6473416363657373436f6e74726f6c3a2073656e646572206d75737420626520616e2061646d696e20746f206772616e74416464726573733a20696e73756666696369656e742062616c616e636520666f722063616c6c465761724d61726b65743a2043616e206e6f742063616c6c2066726f6d20636f6e7472616374416363657373436f6e74726f6c3a2073656e646572206d75737420626520616e2061646d696e20746f207265766f6b65496e697469616c697a61626c653a20636f6e747261637420697320616c726561647920696e697469616c697a6564536166654d6174683a206d756c7469706c69636174696f6e206f766572666c6f775361666545524332303a204552433230206f7065726174696f6e20646964206e6f742073756363656564416363657373436f6e74726f6c3a2063616e206f6e6c792072656e6f756e636520726f6c657320666f722073656c66a2646970667358221220b2cf5a29c4d4deeb002372330bc3b5aab4b55aab61c10d9a7d7891695ff492c264736f6c634300060c0033",
  "immutableReferences": {},
  "source": "// SPDX-License-Identifier: MIT\npragma solidity 0.6.12;\n\nimport \"@openzeppelin/contracts/math/SafeMath.sol\";\nimport \"@openzeppelin/contracts/token/ERC721/IERC721.sol\";\nimport \"@openzeppelin/contracts/token/ERC20/IERC20.sol\";\nimport \"@openzeppelin/contracts/token/ERC20/SafeERC20.sol\";\nimport \"@openzeppelin/contracts/access/AccessControl.sol\";\nimport \"@openzeppelin/contracts/proxy/Initializable.sol\";\nimport \"./FwarMarketStorage.sol\";\n\n\ninterface ISeed {\n    function getSeed() external returns(uint256);\n}\n\ninterface IFwarBlackList {\n    function isBlackList(address _address) external view returns (bool);\n}\n\ninterface IFwarMining {\n    function getStakingNFT(uint _nftId) external view returns (uint);\n}\n\ncontract FwarMarketDelegate is Initializable, AccessControl, FwarMarketStorage {\n    using SafeERC20 for IERC20;\n\n    event CreateOrder(address _owner, address indexed _nftContract, uint[] _nftIds, address indexed _token, uint indexed _price, uint _expiration, uint _orderId);\n\n    event CancelOrder(address indexed _owner, address indexed _nftContract , uint indexed _orderId, uint[] _nftIds);\n\n    event BuyOrder(uint indexed _orderId, uint[] _nftIds, address indexed _buyer, address _seller, address _nftContract, address _token, uint indexed price);\n    \n    event CleanOrder(uint indexed _orderId, uint[] _nftIds, address indexed _seller, address _nftContract, address _token, uint indexed price);\n\n    function initialize(address admin, address _seedAddress, address _blackListAddress, address _fwarMiningAddress) public payable initializer {\n        _setupRole(DEFAULT_ADMIN_ROLE, admin);\n        maxExpirationTime = 14 days;\n        minExpirationTime = 1 days;\n        seedAddress = _seedAddress;\n        blackListAddress = _blackListAddress;\n        fwarMiningAddress = _fwarMiningAddress;\n    }\n\n    function configExpiration(uint _minExpirationTime, uint _maxExpirationTime) public {\n        require(hasRole(DEFAULT_ADMIN_ROLE, _msgSender()), 'Admin role is required');\n        maxExpirationTime = _maxExpirationTime;\n        minExpirationTime = _minExpirationTime;\n    }\n\n    function configFee(address _feeTo, uint _feeRate) public {\n        require(hasRole(DEFAULT_ADMIN_ROLE, _msgSender()), 'Admin role is required');\n        feeTo = _feeTo;\n        feeRate = _feeRate;\n    }\n\n    function setNFTAdd(address _nftAddress, uint _value) public {\n        require(hasRole(DEFAULT_ADMIN_ROLE, _msgSender()), 'Admin role is required');\n        nftAdds[_nftAddress] = _value;\n    }\n\n    function setTokenAdd(address _tokenAddress, uint _value) public {\n        require(hasRole(DEFAULT_ADMIN_ROLE, _msgSender()), 'Admin role is required');\n        tokenAdds[_tokenAddress] = _value;\n    }\n\n    function getFeeConfig() external pure returns(address feeTo, uint feeRate){\n        return (feeTo, feeRate);\n    }\n\n    function setSeedAddress(address _seedAddress) external {\n        require(hasRole(DEFAULT_ADMIN_ROLE, _msgSender()), 'Admin role is required');\n        seedAddress = _seedAddress;\n    }\n\n    function setBlackListAddress(address _blackListAddress) external{\n        require(hasRole(DEFAULT_ADMIN_ROLE, _msgSender()), 'Admin role is required');\n        blackListAddress = _blackListAddress;\n    }\n\n    function setFwarMiningAddress(address _fwarMiningAddress) external{\n        require(hasRole(DEFAULT_ADMIN_ROLE, _msgSender()), 'Admin role is required');\n        fwarMiningAddress = _fwarMiningAddress;\n    }\n\n    function getSellingNFT(uint _nftId, address _nftContract) external view returns (uint) {\n        return sellingNFT[_nftId][_nftContract];\n    }\n\n    /// @dev createOrder is called by a seller\n    /// @param _nftContract is the NFT contract address\n    /// @param _nftIds is the array of nftId to sell\n    /// @param _expiration is the expiration of order in seconds\n    /// @param _token is the pay token contract address for buyer\n    /// @param _price is the amount of pay token\n    function createOrder(address _nftContract, uint[] calldata _nftIds, address _token, uint _price, uint _expiration) external {\n        require(_msgSender() == tx.origin, \"FWarMarket: Can not call from contract\");\n        require(!IFwarBlackList(blackListAddress).isBlackList(_msgSender()), \"You are in black list\");\n        require(IERC721(_nftContract).isApprovedForAll(_msgSender(), address(this)), \"Must approve first\");\n        require(_expiration <= maxExpirationTime, \"expiration too large\");\n        require(_expiration >= minExpirationTime, \"expiration too small\");\n        require(_nftIds.length <= 4, \"amount selling nft exceed \");\n        require(isValidNFTAddress(_nftContract), \"NFT address is not supported\");\n        require(isValidTokenAddress(_token), \"Token address is not supported\");\n        require(_price != 0, \"_price error\");\n\n        //Call for generate new seed for random\n        ISeed(seedAddress).getSeed();\n\n        for (uint i = 0; i < _nftIds.length; i++) {\n            require(_nftIds[i] != 0, \"_nftIds error\");\n            require(IERC721(_nftContract).ownerOf(_nftIds[i]) == _msgSender(), \"You have no access\");\n            require(sellingNFT[_nftIds[i]][_nftContract] == 0, \"NFT is selling\");\n            require(IFwarMining(fwarMiningAddress).getStakingNFT(_nftIds[i]) == 0, \"NFT is staking\");\n            sellingNFT[_nftIds[i]][_nftContract] = _nftIds[i];\n        }\n        uint orderId = uint(keccak256(abi.encode(_msgSender(), _nftIds, _nftContract, _token)));\n        \n        orders[orderId].owner = _msgSender();\n        orders[orderId].nftContract = _nftContract;\n        orders[orderId].nftIds = _nftIds;\n        orders[orderId].token = _token;\n        orders[orderId].price = _price;\n        orders[orderId].expiration = _expiration;\n        orders[orderId].createTime = block.timestamp;\n        \n        orderIds.add(orderId);\n\n        emit CreateOrder(_msgSender(), _nftContract, _nftIds, _token, _price, _expiration, orderId);\n    }\n\n    /// @param _nftContract is the NFT contract address\n    /// @param _nftIds is the array of nftId\n    function cancelOrder(uint orderId, address _nftContract, uint[] calldata _nftIds) public {\n        require(_msgSender() == tx.origin, \"FWarMarket: Can not call from contract\");\n        address owner = orders[orderId].owner;\n        require(owner != address(0), \"order not exist\");\n        require(owner == _msgSender(), \"order not yours\");\n        orderIds.remove(orderId);\n        delete orders[orderId];\n\n        //Call for generate new seed for random\n        ISeed(seedAddress).getSeed();\n\n        for (uint i = 0; i < _nftIds.length; i++) {\n            require(IERC721(_nftContract).ownerOf(_nftIds[i]) == _msgSender(), \"nft not yours\");\n            delete sellingNFT[_nftIds[i]][_nftContract];\n        }\n\n        emit CancelOrder(owner, _nftContract,  orderId, _nftIds);\n    }\n\n    function buyOrder(uint _orderId) external {\n        require(_msgSender() == tx.origin, \"FWarMarket: Can not call from contract\");\n        require(checkOrderValid(_orderId), \"order is not valid\");\n        OrderInfo memory order = orders[_orderId];\n\n        orderIds.remove(_orderId);\n        delete orders[_orderId];\n\n        uint total = order.price;\n        uint fee = total.mul(feeRate).div(1e12);\n\n        //Call for generate new seed for random\n        ISeed(seedAddress).getSeed();\n\n        // transfer fee\n        IERC20(order.token).safeTransferFrom(_msgSender(), feeTo, fee);\n\n        IERC20(order.token).safeTransferFrom(_msgSender(), order.owner, order.price.sub(fee));\n        for (uint i = 0; i < order.nftIds.length; i++) {\n            IERC721(order.nftContract).safeTransferFrom(order.owner, _msgSender(), order.nftIds[i]);\n            delete sellingNFT[order.nftIds[i]][order.nftContract];\n        }\n        \n        emit BuyOrder(_orderId, order.nftIds, _msgSender(), order.owner, order.nftContract, order.token, order.price);\n    }\n\n    function orderCount() public view returns (uint) {\n        return orderIds.length();\n    }\n\n    function getOrderId(uint index) public view returns (uint orderId, bool isValid) {\n        uint id = orderIds.at(index);\n        return (id, checkOrderValid(id));\n    }\n\n    function getOrderById(uint orderId) public view returns (address owner, uint[] memory nftIds, address token, uint price, uint expiration, uint createTime) {\n        OrderInfo storage info = orders[orderId];\n        owner = info.owner;\n        nftIds = info.nftIds;\n        token = info.token;\n        price = info.price;\n        expiration = info.expiration;\n        createTime = info.createTime;\n    }\n\n    function checkOrderValid(uint orderId) public view returns (bool) {\n        OrderInfo storage info = orders[orderId];\n        for (uint i = 0; i < info.nftIds.length; i++) {\n            if (IERC721(info.nftContract).ownerOf(info.nftIds[i]) != info.owner) {\n                return false;\n            }\n        }\n\n        if (!IERC721(info.nftContract).isApprovedForAll(info.owner, address(this))) {\n            return false;\n        }\n\n        if (info.createTime + info.expiration < block.timestamp) {\n            return false;\n        }\n\n        return true;\n    }\n\n    function isValidNFTAddress(address _nftAddress) public view returns (bool) {\n        require(_nftAddress != address(0), \"_nftContract error\");\n\n        if(nftAdds[_nftAddress]!=0){\n            return true;\n        }\n    }\n\n    function isValidTokenAddress(address _tokenAddress) public view returns (bool) {\n        require(_tokenAddress != address(0), \"_token error\");\n\n        if(tokenAdds[_tokenAddress]!=0){\n            return true;\n        }\n    }\n\n    function cleanInvalidOrders(int from, int to) public {\n        require(to >= from, \"to should >= from\");\n        for (int i=to; i>= from; i--) {\n            uint orderId = orderIds.at(uint(i));\n            if (!checkOrderValid(orderId)) {\n                OrderInfo memory info = orders[orderId];\n                orderIds.remove(orderId);\n                delete orders[orderId];\n                for (uint j = 0; j < info.nftIds.length; j++) {\n                    delete sellingNFT[info.nftIds[j]][info.nftContract];\n                }\n                emit CleanOrder(orderId, info.nftIds, info.owner, info.nftContract, info.token, info.price);\n            }\n        }\n    }\n\n    function cleanInvalidOrder(uint orderId) public {\n        if (!checkOrderValid(orderId)) {\n            OrderInfo memory info = orders[orderId];\n            orderIds.remove(orderId);\n            delete orders[orderId];\n            for (uint j = 0; j < info.nftIds.length; j++) {\n                delete sellingNFT[info.nftIds[j]][info.nftContract];\n            }\n            emit CleanOrder(orderId, info.nftIds, info.owner, info.nftContract, info.token, info.price);\n        }\n    }\n\n    function cleanInvalidOrdersAdmin(uint[] calldata _orderIds) public {\n        require(hasRole(DEFAULT_ADMIN_ROLE, _msgSender()));\n\n        for (uint i = 0; i < _orderIds.length; i++) {\n            uint orderId = _orderIds[i];\n            OrderInfo memory info = orders[orderId];\n            orderIds.remove(orderId);\n            delete orders[orderId];\n            for (uint j = 0; j < info.nftIds.length; j++) {\n                delete sellingNFT[info.nftIds[j]][info.nftContract];\n            }\n            emit CleanOrder(orderId, info.nftIds, info.owner, info.nftContract, info.token, info.price);\n        }\n    }\n}\n",
  "sourcePath": "/Users/badung1870/Working/Node/fwar-contracts/Fwar/FwarMarket/contracts/FwarMarketDelegate.sol",
  "compiler": {
    "name": "solc",
    "version": "0.6.12+commit.27d51765.Emscripten.clang"
  },
  "schemaVersion": "3.4.3",
  "updatedAt": "2021-11-24T09:13:27.383Z",
  "networkType": "ethereum",
  "devdoc": {
    "kind": "dev",
    "methods": {
      "cancelOrder(uint256,address,uint256[])": {
        "params": {
          "_nftContract": "is the NFT contract address",
          "_nftIds": "is the array of nftId"
        }
      },
      "createOrder(address,uint256[],address,uint256,uint256)": {
        "details": "createOrder is called by a seller",
        "params": {
          "_expiration": "is the expiration of order in seconds",
          "_nftContract": "is the NFT contract address",
          "_nftIds": "is the array of nftId to sell",
          "_price": "is the amount of pay token",
          "_token": "is the pay token contract address for buyer"
        }
      },
      "getRoleAdmin(bytes32)": {
        "details": "Returns the admin role that controls `role`. See {grantRole} and {revokeRole}. To change a role's admin, use {_setRoleAdmin}."
      },
      "getRoleMember(bytes32,uint256)": {
        "details": "Returns one of the accounts that have `role`. `index` must be a value between 0 and {getRoleMemberCount}, non-inclusive. Role bearers are not sorted in any particular way, and their ordering may change at any point. WARNING: When using {getRoleMember} and {getRoleMemberCount}, make sure you perform all queries on the same block. See the following https://forum.openzeppelin.com/t/iterating-over-elements-on-enumerableset-in-openzeppelin-contracts/2296[forum post] for more information."
      },
      "getRoleMemberCount(bytes32)": {
        "details": "Returns the number of accounts that have `role`. Can be used together with {getRoleMember} to enumerate all bearers of a role."
      },
      "grantRole(bytes32,address)": {
        "details": "Grants `role` to `account`. If `account` had not been already granted `role`, emits a {RoleGranted} event. Requirements: - the caller must have ``role``'s admin role."
      },
      "hasRole(bytes32,address)": {
        "details": "Returns `true` if `account` has been granted `role`."
      },
      "renounceRole(bytes32,address)": {
        "details": "Revokes `role` from the calling account. Roles are often managed via {grantRole} and {revokeRole}: this function's purpose is to provide a mechanism for accounts to lose their privileges if they are compromised (such as when a trusted device is misplaced). If the calling account had been granted `role`, emits a {RoleRevoked} event. Requirements: - the caller must be `account`."
      },
      "revokeRole(bytes32,address)": {
        "details": "Revokes `role` from `account`. If `account` had been granted `role`, emits a {RoleRevoked} event. Requirements: - the caller must have ``role``'s admin role."
      }
    },
    "version": 1
  },
  "userdoc": {
    "kind": "user",
    "methods": {},
    "version": 1
  }
}